{
  "_format": "hh-sol-artifact-1",
  "contractName": "PublicSaleFactory",
  "sourceName": "contracts/PublicSaleFactory.sol",
  "abi": [
    {
      "inputs": [
        {
          "internalType": "address",
          "name": "_treasuryWallet",
          "type": "address"
        }
      ],
      "stateMutability": "nonpayable",
      "type": "constructor"
    },
    {
      "anonymous": false,
      "inputs": [
        {
          "indexed": true,
          "internalType": "address",
          "name": "previousOwner",
          "type": "address"
        },
        {
          "indexed": true,
          "internalType": "address",
          "name": "newOwner",
          "type": "address"
        }
      ],
      "name": "OwnershipTransferred",
      "type": "event"
    },
    {
      "anonymous": false,
      "inputs": [
        {
          "indexed": true,
          "internalType": "address",
          "name": "publicSale",
          "type": "address"
        },
        {
          "indexed": true,
          "internalType": "address",
          "name": "creator",
          "type": "address"
        }
      ],
      "name": "PublicSaleCreated",
      "type": "event"
    },
    {
      "inputs": [
        {
          "internalType": "address",
          "name": "_spender",
          "type": "address"
        },
        {
          "internalType": "uint256",
          "name": "_amount",
          "type": "uint256"
        }
      ],
      "name": "approve",
      "outputs": [
        {
          "internalType": "bool",
          "name": "",
          "type": "bool"
        }
      ],
      "stateMutability": "nonpayable",
      "type": "function"
    },
    {
      "inputs": [
        {
          "internalType": "uint256[]",
          "name": "_Caps",
          "type": "uint256[]"
        },
        {
          "internalType": "uint256[]",
          "name": "_Contributions",
          "type": "uint256[]"
        },
        {
          "internalType": "uint256[]",
          "name": "_Times",
          "type": "uint256[]"
        },
        {
          "internalType": "uint256[]",
          "name": "_Rates",
          "type": "uint256[]"
        },
        {
          "internalType": "string",
          "name": "_dataURL",
          "type": "string"
        },
        {
          "internalType": "uint256",
          "name": "_liquidityPercent",
          "type": "uint256"
        },
        {
          "internalType": "uint256",
          "name": "_liquidityLockupTime",
          "type": "uint256"
        },
        {
          "internalType": "address[]",
          "name": "_addr",
          "type": "address[]"
        }
      ],
      "name": "createPublicSale",
      "outputs": [],
      "stateMutability": "payable",
      "type": "function"
    },
    {
      "inputs": [],
      "name": "deployFee",
      "outputs": [
        {
          "internalType": "uint256",
          "name": "",
          "type": "uint256"
        }
      ],
      "stateMutability": "view",
      "type": "function"
    },
    {
      "inputs": [
        {
          "internalType": "uint256",
          "name": "_feeAmount",
          "type": "uint256"
        }
      ],
      "name": "deployFeeToTreasury",
      "outputs": [],
      "stateMutability": "nonpayable",
      "type": "function"
    },
    {
      "inputs": [],
      "name": "getAllPublicSaleAddress",
      "outputs": [
        {
          "internalType": "address[]",
          "name": "",
          "type": "address[]"
        }
      ],
      "stateMutability": "view",
      "type": "function"
    },
    {
      "inputs": [
        {
          "internalType": "address",
          "name": "_tokenAddress",
          "type": "address"
        }
      ],
      "name": "getPresalesByToken",
      "outputs": [
        {
          "internalType": "address[]",
          "name": "",
          "type": "address[]"
        }
      ],
      "stateMutability": "view",
      "type": "function"
    },
    {
      "inputs": [
        {
          "internalType": "address",
          "name": "_publicSaleAddress",
          "type": "address"
        }
      ],
      "name": "getPublicSaleByAddress",
      "outputs": [
        {
          "internalType": "address",
          "name": "",
          "type": "address"
        }
      ],
      "stateMutability": "view",
      "type": "function"
    },
    {
      "inputs": [
        {
          "internalType": "uint256",
          "name": "_listingRate",
          "type": "uint256"
        },
        {
          "internalType": "uint256",
          "name": "_hardCap",
          "type": "uint256"
        },
        {
          "internalType": "uint256",
          "name": "_liquidityPercent",
          "type": "uint256"
        },
        {
          "internalType": "uint8",
          "name": "tokenDecimals",
          "type": "uint8"
        }
      ],
      "name": "getTokensForLiquidity",
      "outputs": [
        {
          "internalType": "uint256",
          "name": "",
          "type": "uint256"
        }
      ],
      "stateMutability": "pure",
      "type": "function"
    },
    {
      "inputs": [],
      "name": "getTotalInvestment",
      "outputs": [
        {
          "internalType": "uint256",
          "name": "",
          "type": "uint256"
        }
      ],
      "stateMutability": "view",
      "type": "function"
    },
    {
      "inputs": [
        {
          "internalType": "address",
          "name": "",
          "type": "address"
        }
      ],
      "name": "isPublicSale",
      "outputs": [
        {
          "internalType": "bool",
          "name": "",
          "type": "bool"
        }
      ],
      "stateMutability": "view",
      "type": "function"
    },
    {
      "inputs": [],
      "name": "owner",
      "outputs": [
        {
          "internalType": "address",
          "name": "",
          "type": "address"
        }
      ],
      "stateMutability": "view",
      "type": "function"
    },
    {
      "inputs": [],
      "name": "payDeployFee",
      "outputs": [],
      "stateMutability": "payable",
      "type": "function"
    },
    {
      "inputs": [
        {
          "internalType": "address",
          "name": "",
          "type": "address"
        },
        {
          "internalType": "uint256",
          "name": "",
          "type": "uint256"
        }
      ],
      "name": "presalesByToken",
      "outputs": [
        {
          "internalType": "address",
          "name": "",
          "type": "address"
        }
      ],
      "stateMutability": "view",
      "type": "function"
    },
    {
      "inputs": [
        {
          "internalType": "uint256",
          "name": "",
          "type": "uint256"
        }
      ],
      "name": "publicSales",
      "outputs": [
        {
          "internalType": "address",
          "name": "",
          "type": "address"
        }
      ],
      "stateMutability": "view",
      "type": "function"
    },
    {
      "inputs": [],
      "name": "renounceOwnership",
      "outputs": [],
      "stateMutability": "nonpayable",
      "type": "function"
    },
    {
      "inputs": [
        {
          "internalType": "uint256",
          "name": "_fee",
          "type": "uint256"
        }
      ],
      "name": "setDeployFee",
      "outputs": [],
      "stateMutability": "nonpayable",
      "type": "function"
    },
    {
      "inputs": [
        {
          "internalType": "address",
          "name": "_tokenAddress",
          "type": "address"
        }
      ],
      "name": "setTokenAddress",
      "outputs": [],
      "stateMutability": "nonpayable",
      "type": "function"
    },
    {
      "inputs": [
        {
          "internalType": "address",
          "name": "_treasuryWallet",
          "type": "address"
        }
      ],
      "name": "setTreasuryWallet",
      "outputs": [],
      "stateMutability": "nonpayable",
      "type": "function"
    },
    {
      "inputs": [],
      "name": "token",
      "outputs": [
        {
          "internalType": "contract IERC20",
          "name": "",
          "type": "address"
        }
      ],
      "stateMutability": "view",
      "type": "function"
    },
    {
      "inputs": [
        {
          "internalType": "address",
          "name": "newOwner",
          "type": "address"
        }
      ],
      "name": "transferOwnership",
      "outputs": [],
      "stateMutability": "nonpayable",
      "type": "function"
    },
    {
      "inputs": [],
      "name": "treasuryWallet",
      "outputs": [
        {
          "internalType": "address",
          "name": "",
          "type": "address"
        }
      ],
      "stateMutability": "view",
      "type": "function"
    },
    {
      "inputs": [],
      "name": "withdrawDeployFee",
      "outputs": [],
      "stateMutability": "nonpayable",
      "type": "function"
    }
  ],
  "bytecode": "0x6080604052670de0b6b3a764000060065534801561001c57600080fd5b50604051620048333803806200483383398101604081905261003d916100bb565b6100463361006b565b600580546001600160a01b0319166001600160a01b03929092169190911790556100eb565b600080546001600160a01b038381166001600160a01b0319831681178455604051919092169283917f8be0079c531659141344cd1fd0a4f28419497f9722a3daafe3b4186f6b6457e09190a35050565b6000602082840312156100cd57600080fd5b81516001600160a01b03811681146100e457600080fd5b9392505050565b61473880620000fb6000396000f3fe6080604052600436106200014f5760003560e01c80638b3635c811620000b9578063eb2a5d2c1162000078578063eb2a5d2c14620003a8578063f2fde38b14620003cf578063f399d86b14620003f4578063f9cb1b48146200040b578063faaa68631462000423578063fc0c546a146200044857600080fd5b80638b3635c814620003005780638da5cb5b1462000334578063a8602fea1462000354578063a9e529871462000379578063dd9337eb146200039e57600080fd5b806326a4e8d2116200011257806326a4e8d214620002325780633432004114620002575780634626402b146200027c57806366388167146200029e578063715018a614620002c35780637ee867f614620002db57600080fd5b806306ea344f1462000154578063095ea7b3146200016e57806319901dec14620001a857806320bc74d514620001e657806320f930f5146200020b575b600080fd5b3480156200016157600080fd5b506200016c6200046a565b005b3480156200017b57600080fd5b50620001936200018d36600462001332565b620005f2565b60405190151581526020015b60405180910390f35b348015620001b557600080fd5b50620001cd620001c736600462001332565b62000730565b6040516001600160a01b0390911681526020016200019f565b348015620001f357600080fd5b506200016c620002053660046200135f565b62000769565b3480156200021857600080fd5b5062000223620008f0565b6040516200019f9190620013bf565b3480156200023f57600080fd5b506200016c62000251366004620013d4565b62000954565b3480156200026457600080fd5b50620001cd620002763660046200135f565b62000a27565b3480156200028957600080fd5b50600554620001cd906001600160a01b031681565b348015620002ab57600080fd5b5062000223620002bd366004620013d4565b62000a52565b348015620002d057600080fd5b506200016c62000aca565b348015620002e857600080fd5b50620001cd620002fa366004620013d4565b62000ae2565b3480156200030d57600080fd5b50620001936200031f366004620013d4565b60026020526000908152604090205460ff1681565b3480156200034157600080fd5b506000546001600160a01b0316620001cd565b3480156200036157600080fd5b506200016c62000373366004620013d4565b62000b50565b3480156200038657600080fd5b506200016c620003983660046200135f565b62000b7c565b6200016c62000b8b565b348015620003b557600080fd5b50620003c060065481565b6040519081526020016200019f565b348015620003dc57600080fd5b506200016c620003ee366004620013d4565b62000bd5565b6200016c62000405366004620015b8565b62000c51565b3480156200041857600080fd5b50620003c0620010cd565b3480156200043057600080fd5b50620003c062000442366004620016e5565b62001199565b3480156200045557600080fd5b50600454620001cd906001600160a01b031681565b62000474620011b4565b600060065411620004cc5760405162461bcd60e51b815260206004820152601760248201527f4e6f206465706c6f792066656520617661696c61626c6500000000000000000060448201526064015b60405180910390fd5b6005546001600160a01b0316620005205760405162461bcd60e51b8152602060048201526017602482015276151c99585cdd5c9e481dd85b1b195d081b9bdd081cd95d604a1b6044820152606401620004c3565b600480546005546006546040516323b872dd60e01b815230948101949094526001600160a01b039182166024850152604484015216906323b872dd906064016020604051808303816000875af11580156200057f573d6000803e3d6000fd5b505050506040513d601f19601f82011682018060405250810190620005a5919062001729565b620005eb5760405162461bcd60e51b8152602060048201526015602482015274151bdad95b881d1c985b9cd9995c8819985a5b1959605a1b6044820152606401620004c3565b6000600655565b600080546001600160a01b03163314620006595760405162461bcd60e51b815260206004820152602160248201527f4f6e6c7920746865206f776e65722063616e20617070726f766520746f6b656e6044820152607360f81b6064820152608401620004c3565b60008211620006ab5760405162461bcd60e51b815260206004820152601d60248201527f416d6f756e74206d7573742062652067726561746572207468616e20300000006044820152606401620004c3565b6004805460405163095ea7b360e01b81526001600160a01b03868116938201939093526024810185905291169063095ea7b3906044016020604051808303816000875af115801562000701573d6000803e3d6000fd5b505050506040513d601f19601f8201168201806040525081019062000727919062001729565b90505b92915050565b600360205281600052604060002081815481106200074d57600080fd5b6000918252602090912001546001600160a01b03169150829050565b62000773620011b4565b60008111620007cf5760405162461bcd60e51b815260206004820152602160248201527f46656520616d6f756e74206d7573742062652067726561746572207468616e206044820152600360fc1b6064820152608401620004c3565b6005546001600160a01b0316620008235760405162461bcd60e51b8152602060048201526017602482015276151c99585cdd5c9e481dd85b1b195d081b9bdd081cd95d604a1b6044820152606401620004c3565b600480546005546040516323b872dd60e01b815233938101939093526001600160a01b0390811660248401526044830184905216906323b872dd906064016020604051808303816000875af115801562000881573d6000803e3d6000fd5b505050506040513d601f19601f82011682018060405250810190620008a7919062001729565b620008ed5760405162461bcd60e51b8152602060048201526015602482015274151bdad95b881d1c985b9cd9995c8819985a5b1959605a1b6044820152606401620004c3565b50565b606060018054806020026020016040519081016040528092919081815260200182805480156200094a57602002820191906000526020600020905b81546001600160a01b031681526001909101906020018083116200092b575b5050505050905090565b6200095e620011b4565b6001600160a01b038116620009b65760405162461bcd60e51b815260206004820152601c60248201527f546f6b656e20616464726573732063616e6e6f74206265207a65726f000000006044820152606401620004c3565b620009c18162001210565b62000a055760405162461bcd60e51b815260206004820152601360248201527224b73b30b634b21022a9219918103a37b5b2b760691b6044820152606401620004c3565b600480546001600160a01b0319166001600160a01b0392909216919091179055565b6001818154811062000a3857600080fd5b6000918252602090912001546001600160a01b0316905081565b6001600160a01b03811660009081526003602090815260409182902080548351818402810184019094528084526060939283018282801562000abe57602002820191906000526020600020905b81546001600160a01b0316815260019091019060200180831162000a9f575b50505050509050919050565b62000ad4620011b4565b62000ae060006200128a565b565b6001600160a01b03811660009081526002602052604081205460ff1662000b4c5760405162461bcd60e51b815260206004820152601f60248201527f4e6f7420612076616c6964205075626c696353616c6520636f6e7472616374006044820152606401620004c3565b5090565b62000b5a620011b4565b600580546001600160a01b0319166001600160a01b0392909216919091179055565b62000b86620011b4565b600655565b600654341462000ae05760405162461bcd60e51b8152602060048201526014602482015273496e636f7272656374206465706c6f792066656560601b6044820152606401620004c3565b62000bdf620011b4565b6001600160a01b03811662000c465760405162461bcd60e51b815260206004820152602660248201527f4f776e61626c653a206e6577206f776e657220697320746865207a65726f206160448201526564647265737360d01b6064820152608401620004c3565b620008ed816200128a565b600654341462000c9b5760405162461bcd60e51b8152602060048201526014602482015273496e636f7272656374206465706c6f792066656560601b6044820152606401620004c3565b60045462000cb2906001600160a01b031662001210565b62000cf85760405162461bcd60e51b8152602060048201526015602482015274151bdad95b881859191c995cdcc81b9bdd081cd95d605a1b6044820152606401620004c3565b6000600460009054906101000a90046001600160a01b03166001600160a01b031663313ce5676040518163ffffffff1660e01b8152600401602060405180830381865afa15801562000d4e573d6000803e3d6000fd5b505050506040513d601f19601f8201168201806040525081019062000d74919062001754565b90506000670de0b6b3a76400008a60018151811062000d975762000d9762001774565b60200260200101518860008151811062000db55762000db562001774565b602002602001015162000dc99190620017a0565b62000dd59190620017ba565b90506000670de0b6b3a7640000868c60018151811062000df95762000df962001774565b60200260200101518a60018151811062000e175762000e1762001774565b602002602001015162000e2b9190620017a0565b62000e379190620017ba565b62000e439190620017ba565b9050600062000e538284620017dd565b905060008c8c8c8c8c8c8c8c3360405162000e6e906200130c565b62000e829998979695949392919062001825565b604051809103906000f08015801562000e9f573d6000803e3d6000fd5b506004805460405163144fa6d760e01b81526001600160a01b03918216928101929092529192509082169063144fa6d790602401600060405180830381600087803b15801562000eee57600080fd5b505af115801562000f03573d6000803e3d6000fd5b50506004805460405163095ea7b360e01b81526001600160a01b0386811693820193909352602481018790529116925063095ea7b391506044016020604051808303816000875af115801562000f5d573d6000803e3d6000fd5b505050506040513d601f19601f8201168201806040525081019062000f83919062001729565b50600480546040516323b872dd60e01b815233928101929092526001600160a01b0383811660248401526044830185905216906323b872dd906064016020604051808303816000875af115801562000fdf573d6000803e3d6000fd5b505050506040513d601f19601f8201168201806040525081019062001005919062001729565b506004546001600160a01b0390811660009081526003602090815260408083208054600181810183559185528385200180549587166001600160a01b031996871681179091558085526002909352818420805460ff191682179055805480820182559084527fb10e2d527612073b26eecdfd717e6a320cf44b4afac2b0732d9fcbe2b7fa0cf6018054909416821790935591513392917f01a5e8416feb8c8028a1d87218da12bef84f2711871599100a22d5a7f895b31591a350505050505050505050505050565b60008060005b6001548110156200119357600060018281548110620010f657620010f662001774565b60009182526020918290200154604080516337c0892360e01b815290516001600160a01b03909216935083926337c08923926004808401938290030181865afa15801562001148573d6000803e3d6000fd5b505050506040513d601f19601f820116820180604052508101906200116e919062001910565b6200117a9084620017dd565b92505080806200118a906200192a565b915050620010d3565b50919050565b600081620011aa86868684620012da565b9695505050505050565b6000546001600160a01b0316331462000ae05760405162461bcd60e51b815260206004820181905260248201527f4f776e61626c653a2063616c6c6572206973206e6f7420746865206f776e65726044820152606401620004c3565b6000816001600160a01b03166318160ddd6040518163ffffffff1660e01b8152600401602060405180830381865afa9250505080156200126f575060408051601f3d908101601f191682019092526200126c9181019062001910565b60015b6200127c57506000919050565b50600192915050565b919050565b600080546001600160a01b038381166001600160a01b0319831681178455604051919092169283917f8be0079c531659141344cd1fd0a4f28419497f9722a3daafe3b4186f6b6457e09190a35050565b60008083620012ea8787620017a0565b620012f69190620017a0565b9050620011aa670de0b6b3a764000082620017ba565b612dbc806200194783390190565b80356001600160a01b03811681146200128557600080fd5b600080604083850312156200134657600080fd5b62001351836200131a565b946020939093013593505050565b6000602082840312156200137257600080fd5b5035919050565b600081518084526020808501945080840160005b83811015620013b45781516001600160a01b0316875295820195908201906001016200138d565b509495945050505050565b60208152600062000727602083018462001379565b600060208284031215620013e757600080fd5b62000727826200131a565b634e487b7160e01b600052604160045260246000fd5b604051601f8201601f1916810167ffffffffffffffff81118282101715620014345762001434620013f2565b604052919050565b600067ffffffffffffffff821115620014595762001459620013f2565b5060051b60200190565b600082601f8301126200147557600080fd5b813560206200148e62001488836200143c565b62001408565b82815260059290921b84018101918181019086841115620014ae57600080fd5b8286015b84811015620014cb5780358352918301918301620014b2565b509695505050505050565b600082601f830112620014e857600080fd5b813567ffffffffffffffff811115620015055762001505620013f2565b6200151a601f8201601f191660200162001408565b8181528460208386010111156200153057600080fd5b816020850160208301376000918101602001919091529392505050565b600082601f8301126200155f57600080fd5b813560206200157262001488836200143c565b82815260059290921b840181019181810190868411156200159257600080fd5b8286015b84811015620014cb57620015aa816200131a565b835291830191830162001596565b600080600080600080600080610100898b031215620015d657600080fd5b883567ffffffffffffffff80821115620015ef57600080fd5b620015fd8c838d0162001463565b995060208b01359150808211156200161457600080fd5b620016228c838d0162001463565b985060408b01359150808211156200163957600080fd5b620016478c838d0162001463565b975060608b01359150808211156200165e57600080fd5b6200166c8c838d0162001463565b965060808b01359150808211156200168357600080fd5b620016918c838d01620014d6565b955060a08b0135945060c08b0135935060e08b0135915080821115620016b657600080fd5b50620016c58b828c016200154d565b9150509295985092959890939650565b60ff81168114620008ed57600080fd5b60008060008060808587031215620016fc57600080fd5b84359350602085013592506040850135915060608501356200171e81620016d5565b939692955090935050565b6000602082840312156200173c57600080fd5b815180151581146200174d57600080fd5b9392505050565b6000602082840312156200176757600080fd5b81516200174d81620016d5565b634e487b7160e01b600052603260045260246000fd5b634e487b7160e01b600052601160045260246000fd5b80820281158282048414176200072a576200072a6200178a565b600082620017d857634e487b7160e01b600052601260045260246000fd5b500490565b808201808211156200072a576200072a6200178a565b600081518084526020808501945080840160005b83811015620013b45781518752958201959082019060010162001807565b60006101208083526200183b8184018d620017f3565b905060208382038185015262001852828d620017f3565b9150838203604085015262001868828c620017f3565b915083820360608501526200187e828b620017f3565b91508382036080850152885180835260005b81811015620018ad578a8101830151848201840152820162001890565b50600083820183015260a0850189905260c08501889052601f01601f1916909101838103820160e085015290620018e78282018762001379565b92505050620019026101008301846001600160a01b03169052565b9a9950505050505050505050565b6000602082840312156200192357600080fd5b5051919050565b6000600182016200193f576200193f6200178a565b506001019056fe60806040523480156200001157600080fd5b5060405162002dbc38038062002dbc833981016040819052620000349162000462565b6200003f336200021b565b8860008151811062000055576200005562000591565b60200260200101516007819055508860018151811062000079576200007962000591565b6020026020010151600881905550876000815181106200009d576200009d62000591565b602002602001015160098190555087600181518110620000c157620000c162000591565b6020026020010151600a8190555086600081518110620000e557620000e562000591565b6020026020010151600b819055508660018151811062000109576200010962000591565b6020026020010151600c81905550856000815181106200012d576200012d62000591565b6020026020010151600d819055508560018151811062000151576200015162000591565b6020908102919091010151600e55600f8490556010839055815182906000906200017f576200017f62000591565b6020026020010151600460006101000a8154816001600160a01b0302191690836001600160a01b0316021790555081600181518110620001c357620001c362000591565b6020908102919091010151600580546001600160a01b03199081166001600160a01b03938416179091556002805490911691831691909117905560126200020b868262000636565b5050505050505050505062000702565b600080546001600160a01b038381166001600160a01b0319831681178455604051919092169283917f8be0079c531659141344cd1fd0a4f28419497f9722a3daafe3b4186f6b6457e09190a35050565b634e487b7160e01b600052604160045260246000fd5b604051601f8201601f191681016001600160401b0381118282101715620002ac57620002ac6200026b565b604052919050565b60006001600160401b03821115620002d057620002d06200026b565b5060051b60200190565b600082601f830112620002ec57600080fd5b8151602062000305620002ff83620002b4565b62000281565b82815260059290921b840181019181810190868411156200032557600080fd5b8286015b8481101562000342578051835291830191830162000329565b509695505050505050565b600082601f8301126200035f57600080fd5b81516001600160401b038111156200037b576200037b6200026b565b602062000391601f8301601f1916820162000281565b8281528582848701011115620003a657600080fd5b60005b83811015620003c6578581018301518282018401528201620003a9565b506000928101909101919091529392505050565b80516001600160a01b0381168114620003f257600080fd5b919050565b600082601f8301126200040957600080fd5b815160206200041c620002ff83620002b4565b82815260059290921b840181019181810190868411156200043c57600080fd5b8286015b8481101562000342576200045481620003da565b835291830191830162000440565b60008060008060008060008060006101208a8c0312156200048257600080fd5b89516001600160401b03808211156200049a57600080fd5b620004a88d838e01620002da565b9a5060208c0151915080821115620004bf57600080fd5b620004cd8d838e01620002da565b995060408c0151915080821115620004e457600080fd5b620004f28d838e01620002da565b985060608c01519150808211156200050957600080fd5b620005178d838e01620002da565b975060808c01519150808211156200052e57600080fd5b6200053c8d838e016200034d565b965060a08c0151955060c08c0151945060e08c01519150808211156200056157600080fd5b50620005708c828d01620003f7565b925050620005826101008b01620003da565b90509295985092959850929598565b634e487b7160e01b600052603260045260246000fd5b600181811c90821680620005bc57607f821691505b602082108103620005dd57634e487b7160e01b600052602260045260246000fd5b50919050565b601f8211156200063157600081815260208120601f850160051c810160208610156200060c5750805b601f850160051c820191505b818110156200062d5782815560010162000618565b5050505b505050565b81516001600160401b038111156200065257620006526200026b565b6200066a81620006638454620005a7565b84620005e3565b602080601f831160018114620006a25760008415620006895750858301515b600019600386901b1c1916600185901b1785556200062d565b600085815260208120601f198616915b82811015620006d357888601518255948401946001909101908401620006b2565b5085821015620006f25787850151600019600388901b60f8161c191681555b5050505050600190811b01905550565b6126aa80620007126000396000f3fe6080604052600436106103ad5760003560e01c806393632ddd116101e7578063bba8bd201161010d578063e9ab77e5116100a0578063fb3de3c01161006f578063fb3de3c0146109f5578063fb86a40414610a0b578063fc0c546a14610a21578063fc6f946814610a4157600080fd5b8063e9ab77e51461098b578063f1850af8146109a0578063f2fde38b146109b5578063f887ea40146109d557600080fd5b8063d5177920116100dc578063d517792014610939578063d7bb99ba14610959578063dda0a81a14610961578063e7e104901461097657600080fd5b8063bba8bd20146108e3578063bdd06a0a146108f9578063c80c28a21461090e578063ceb791d91461092357600080fd5b8063ae9763a511610185578063b5545a3c11610154578063b5545a3c14610899578063b6c0406d14610805578063b8d8fbb4146108ae578063b9dc4ab2146108ce57600080fd5b8063ae9763a51461083b578063b068375514610850578063b0f479a114610866578063b4a344941461088457600080fd5b80639d706d31116101c15780639d706d31146107da578063a20ecbbb146107ef578063a296d67d14610805578063aaffadf31461082557600080fd5b806393632ddd1461078d578063987e5f58146107a35780639accab55146107b857600080fd5b806357df844b116102d75780637a127d551161026a5780638d3d6576116102395780638d3d6576146107235780638da5cb5b146107395780638dd0855714610757578063906a26e01461077757600080fd5b80637a127d55146106a4578063862b092b146106b9578063892ec554146106ce5780638b3635c8146106e357600080fd5b8063735de9f7116102a6578063735de9f714610639578063755e8b721461065957806375d35b621461067957806378e979251461068e57600080fd5b806357df844b146105a2578063715018a6146105b757806371bdce55146105cc57806372d41f701461062457600080fd5b806337c089231161034f5780634a68ae941161031e5780634a68ae941461052b5780634d461ed11461054b5780634d68ceb914610560578063523fba7f1461057557600080fd5b806337c08923146104b357806342e94c90146104c957806346e8a15d146104f657806348c54b9d1461051657600080fd5b8063144fa6d71161038b578063144fa6d71461042b5780633197cbb61461044d57806331d7c4fb1461047157806333dbef9f1461049357600080fd5b806302d05d3f146103b25780630ee2cb10146103ef57806310fe9ae81461040d575b600080fd5b3480156103be57600080fd5b506002546103d2906001600160a01b031681565b6040516001600160a01b0390911681526020015b60405180910390f35b3480156103fb57600080fd5b506002546001600160a01b03166103d2565b34801561041957600080fd5b506001546001600160a01b03166103d2565b34801561043757600080fd5b5061044b61044636600461205f565b610a61565b005b34801561045957600080fd5b50610463600c5481565b6040519081526020016103e6565b34801561047d57600080fd5b50610486610ae9565b6040516103e691906120a7565b34801561049f57600080fd5b5061044b6104ae366004612145565b610b77565b3480156104bf57600080fd5b5061046360135481565b3480156104d557600080fd5b506104636104e436600461205f565b60166020526000908152604090205481565b34801561050257600080fd5b5061044b6105113660046121cb565b610bb1565b34801561052257600080fd5b5061044b610bf4565b34801561053757600080fd5b5061044b610546366004612145565b610d62565b34801561055757600080fd5b5061044b610d98565b34801561056c57600080fd5b50610486610fe0565b34801561058157600080fd5b5061046361059036600461205f565b60176020526000908152604090205481565b3480156105ae57600080fd5b50610463610fed565b3480156105c357600080fd5b5061044b611094565b3480156105d857600080fd5b5061060f6105e736600461205f565b6001600160a01b03166000908152601660209081526040808320546017909252909120549091565b604080519283526020830191909152016103e6565b34801561063057600080fd5b506104866110a6565b34801561064557600080fd5b506004546103d2906001600160a01b031681565b34801561066557600080fd5b50610463610674366004612204565b611138565b34801561068557600080fd5b50601054610463565b34801561069a57600080fd5b50610463600b5481565b3480156106b057600080fd5b50610486611162565b3480156106c557600080fd5b50610486611171565b3480156106da57600080fd5b50610486611297565b3480156106ef57600080fd5b506107136106fe36600461205f565b60186020526000908152604090205460ff1681565b60405190151581526020016103e6565b34801561072f57600080fd5b50610463600a5481565b34801561074557600080fd5b506000546001600160a01b03166103d2565b34801561076357600080fd5b506103d2610772366004612226565b6112a6565b34801561078357600080fd5b5061046360075481565b34801561079957600080fd5b5061046360115481565b3480156107af57600080fd5b506104866112d0565b3480156107c457600080fd5b506107cd6112df565b6040516103e6919061223f565b3480156107e657600080fd5b506107cd61134c565b3480156107fb57600080fd5b50610463600e5481565b34801561081157600080fd5b5061044b610820366004612145565b6113a9565b34801561083157600080fd5b5061046360095481565b34801561084757600080fd5b50601154610463565b34801561085c57600080fd5b50610463600f5481565b34801561087257600080fd5b506004546001600160a01b03166103d2565b34801561089057600080fd5b50600f54610463565b3480156108a557600080fd5b5061044b6113df565b3480156108ba57600080fd5b506006546103d2906001600160a01b031681565b3480156108da57600080fd5b50610486611503565b3480156108ef57600080fd5b5061046360145481565b34801561090557600080fd5b50610486611510565b34801561091a57600080fd5b50600354610463565b34801561092f57600080fd5b50610463600d5481565b34801561094557600080fd5b5061044b610954366004612145565b61151d565b61044b611553565b34801561096d57600080fd5b506107cd6118d3565b34801561098257600080fd5b5061044b611930565b34801561099757600080fd5b506107cd611ada565b3480156109ac57600080fd5b50610486611b37565b3480156109c157600080fd5b5061044b6109d036600461205f565b611c49565b3480156109e157600080fd5b506015546103d2906001600160a01b031681565b348015610a0157600080fd5b5061046360105481565b348015610a1757600080fd5b5061046360085481565b348015610a2d57600080fd5b506001546103d2906001600160a01b031681565b348015610a4d57600080fd5b506005546103d2906001600160a01b031681565b610a69611cc2565b6001546001600160a01b031615610ac75760405162461bcd60e51b815260206004820152601960248201527f546f6b656e206164647265737320616c7265616479207365740000000000000060448201526064015b60405180910390fd5b600180546001600160a01b0319166001600160a01b0392909216919091179055565b601b8054610af690612283565b80601f0160208091040260200160405190810160405280929190818152602001828054610b2290612283565b8015610b6f5780601f10610b4457610100808354040283529160200191610b6f565b820191906000526020600020905b815481529060010190602001808311610b5257829003601f168201915b505050505081565b6005546001600160a01b03163314610ba15760405162461bcd60e51b8152600401610abe906122bd565b601b610bad8282612334565b5050565b610bb9611cc2565b600480546001600160a01b039384166001600160a01b0319918216811790925560158054821690921790915560068054929093169116179055565b33600090815260166020526040902054610c4b5760405162461bcd60e51b81526020600482015260186024820152774e6f20636f6e747269627574696f6e20746f20636c61696d60401b6044820152606401610abe565b3360009081526017602052604090205480610c9d5760405162461bcd60e51b81526020600482015260126024820152714e6f20746f6b656e7320746f20636c61696d60701b6044820152606401610abe565b60015460405163a9059cbb60e01b8152336004820152602481018390526001600160a01b039091169063a9059cbb906044016020604051808303816000875af1158015610cee573d6000803e3d6000fd5b505050506040513d601f19601f82011682018060405250810190610d1291906123f4565b503360008181526017602052604080822091909155517f896e034966eaaf1adc54acc0f257056febbd300c9e47182cf761982cf1f5e43090610d579084815260200190565b60405180910390a250565b6005546001600160a01b03163314610d8c5760405162461bcd60e51b8152600401610abe906122bd565b601a610bad8282612334565b6002546001600160a01b03163314610dc25760405162461bcd60e51b8152600401610abe906122bd565b600c54421015610e0b5760405162461bcd60e51b815260206004820152601460248201527353616c65206973207374696c6c2061637469766560601b6044820152606401610abe565b60075460135410610fd65760006064600f54601354610e2a919061242c565b610e349190612443565b6001546004805460405163a9059cbb60e01b81526001600160a01b03918216928101929092526024820184905292935091169063a9059cbb906044016020604051808303816000875af1158015610e8f573d6000803e3d6000fd5b505050506040513d601f19601f82011682018060405250810190610eb391906123f4565b50600081601354610ec49190612465565b90506000600e54600d5483610ed9919061242c565b610ee39190612443565b604051909150600090309083908381818185875af1925050503d8060008114610f28576040519150601f19603f3d011682016040523d82523d6000602084013e610f2d565b606091505b5050905080610f7e5760405162461bcd60e51b815260206004820152601f60248201527f455448207472616e7366657220746f20636f6e7472616374206661696c6564006044820152606401610abe565b600154610f95906001600160a01b03168584611d1c565b7f6756557036e1e627ff2a1cff103a3f6f50754d34a7895080c5b0288387704060601354604051610fc891815260200190565b60405180910390a150505050565b610fde611930565b565b601a8054610af690612283565b6001546000906001600160a01b03166110185760405162461bcd60e51b8152600401610abe90612478565b600160009054906101000a90046001600160a01b03166001600160a01b03166318160ddd6040518163ffffffff1660e01b8152600401602060405180830381865afa15801561106b573d6000803e3d6000fd5b505050506040513d601f19601f8201168201806040525081019061108f91906124a7565b905090565b61109c611cc2565b610fde6000611f91565b6060601a80546110b590612283565b80601f01602080910402602001604051908101604052809291908181526020018280546110e190612283565b801561112e5780601f106111035761010080835404028352916020019161112e565b820191906000526020600020905b81548152906001019060200180831161111157829003601f168201915b5050505050905090565b600080670de0b6b3a764000061114e848661242c565b6111589190612443565b9150505b92915050565b6060601b80546110b590612283565b6001546060906001600160a01b031661119c5760405162461bcd60e51b8152600401610abe90612478565b600160009054906101000a90046001600160a01b03166001600160a01b03166306fdde036040518163ffffffff1660e01b8152600401600060405180830381865afa92505050801561121057506040513d6000823e601f3d908101601f1916820160405261120d91908101906124c0565b60015b61128f5761121c612542565b806308c379a003611283575061123061255d565b8061123b5750611285565b60405162461bcd60e51b815260206004820152601860248201527f4572726f722067657474696e6720746f6b656e206e616d6500000000000000006044820152606401610abe565b505b3d6000803e3d6000fd5b919050565b90565b6060601980546110b590612283565b600381815481106112b657600080fd5b6000918252602090912001546001600160a01b0316905081565b6060601280546110b590612283565b60408051600280825260608083018452926000929190602083019080368337019050509050600d548160008151811061131a5761131a6125e7565b602002602001018181525050600e548160018151811061133c5761133c6125e7565b6020908102919091010152919050565b6040805160028082526060808301845292600092919060208301908036833701905050905060075481600081518110611387576113876125e7565b6020026020010181815250506008548160018151811061133c5761133c6125e7565b6002546001600160a01b031633146113d35760405162461bcd60e51b8152600401610abe906122bd565b6012610bad8282612334565b336000908152601660205260409020546114365760405162461bcd60e51b81526020600482015260186024820152774e6f20636f6e747269627574696f6e20746f20636c61696d60401b6044820152606401610abe565b600154336000818152601660205260409081902054905163a9059cbb60e01b8152600481019290925260248201526001600160a01b039091169063a9059cbb906044016020604051808303816000875af1158015611498573d6000803e3d6000fd5b505050506040513d601f19601f820116820180604052508101906114bc91906123f4565b50336000818152601660209081526040808320839055519182527f896e034966eaaf1adc54acc0f257056febbd300c9e47182cf761982cf1f5e430910160405180910390a2565b60128054610af690612283565b60198054610af690612283565b6005546001600160a01b031633146115475760405162461bcd60e51b8152600401610abe906122bd565b6019610bad8282612334565b60408051818152600a818301526922ba3420b6b7bab73a1d60b11b6060820152346020820181905291517f65bac6982c4d38c5d60d31375a5acc5e2f09ceba4f763127a5a9fb8fbce0a45e9181900360800190a16009548110156115f95760405162461bcd60e51b815260206004820152601d60248201527f416d6f756e742062656c6f77206d696e20636f6e747269627574696f6e0000006044820152606401610abe565b600a54336000908152601660205260409020546116179083906125fd565b11156116655760405162461bcd60e51b815260206004820152601d60248201527f416d6f756e742061626f7665206d617820636f6e747269627574696f6e0000006044820152606401610abe565b600b544210156116b75760405162461bcd60e51b815260206004820152601860248201527f53616c6520686176656e277420737461727465642079657400000000000000006044820152606401610abe565b600c544211156116f95760405162461bcd60e51b815260206004820152600d60248201526c14d85b1948199a5b9a5cda1959609a1b6044820152606401610abe565b33600090815260166020526040812080548392906117189084906125fd565b92505081905550806013600082825461173191906125fd565b92505081905550806011600082825461174a91906125fd565b9091555050600d54600090670de0b6b3a764000090611769908461242c565b6117739190612443565b90507f65bac6982c4d38c5d60d31375a5acc5e2f09ceba4f763127a5a9fb8fbce0a45e816040516117ce91906040808252600d908201526c2a37b5b2b71020b6b7bab73a1d60991b6060820152602081019190915260800190565b60405180910390a133600090815260176020526040812080548392906117f59084906125fd565b90915550611804905033611fe1565b61184b57600380546001810182556000919091527fc2575a0e9e593c00f959f8c92f12db2869c3395a3b0502d05e2516446f71f85b0180546001600160a01b031916331790555b60405182815233907f4d154d4aae216bed6d0926db77c00df2b57c6b5ba4eee05775de20facede3a7b9060200160405180910390a2600c544211610bad5760085460115410610bad577f6756557036e1e627ff2a1cff103a3f6f50754d34a7895080c5b02883877040606013546040516118c791815260200190565b60405180910390a15050565b604080516002808252606080830184529260009291906020830190803683370190505090506009548160008151811061190e5761190e6125e7565b602002602001018181525050600a548160018151811061133c5761133c6125e7565b6002546001600160a01b031633148061195357506005546001600160a01b031633145b61196f5760405162461bcd60e51b8152600401610abe906122bd565b60005b600354811015611aae57600060038281548110611991576119916125e7565b6000918252602080832091909101546001546001600160a01b03918216808552601690935260409384902054935163a9059cbb60e01b8152600481018490526024810194909452919350169063a9059cbb906044016020604051808303816000875af1158015611a05573d6000803e3d6000fd5b505050506040513d601f19601f82011682018060405250810190611a2991906123f4565b506001600160a01b0381166000818152601660209081526040918290205491519182527f896e034966eaaf1adc54acc0f257056febbd300c9e47182cf761982cf1f5e430910160405180910390a26001600160a01b03166000908152601660209081526040808320839055601790915281205580611aa681612610565b915050611972565b506040517fe0e133045a83e38ee79d367a84f6cbf75018e4457eccd0336c5b596d620d126d90600090a1565b60408051600280825260608083018452926000929190602083019080368337019050509050600b5481600081518110611b1557611b156125e7565b602002602001018181525050600c548160018151811061133c5761133c6125e7565b6001546060906001600160a01b0316611b625760405162461bcd60e51b8152600401610abe90612478565b600160009054906101000a90046001600160a01b03166001600160a01b03166395d89b416040518163ffffffff1660e01b8152600401600060405180830381865afa925050508015611bd657506040513d6000823e601f3d908101601f19168201604052611bd391908101906124c0565b60015b61128f57611be2612542565b806308c379a0036112835750611bf661255d565b80611c015750611285565b60405162461bcd60e51b815260206004820152601a60248201527f4572726f722067657474696e6720746f6b656e2073796d626f6c0000000000006044820152606401610abe565b611c51611cc2565b6001600160a01b038116611cb65760405162461bcd60e51b815260206004820152602660248201527f4f776e61626c653a206e6577206f776e657220697320746865207a65726f206160448201526564647265737360d01b6064820152608401610abe565b611cbf81611f91565b50565b6000546001600160a01b03163314610fde5760405162461bcd60e51b815260206004820181905260248201527f4f776e61626c653a2063616c6c6572206973206e6f7420746865206f776e65726044820152606401610abe565b600654601554604080516315ab88c960e31b815290516000936001600160a01b039081169363e6a43905938993919092169163ad5c46489160048083019260209291908290030181865afa158015611d78573d6000803e3d6000fd5b505050506040513d601f19601f82011682018060405250810190611d9c9190612629565b6040516001600160e01b031960e085901b1681526001600160a01b03928316600482015291166024820152604401602060405180830381865afa158015611de7573d6000803e3d6000fd5b505050506040513d601f19601f82011682018060405250810190611e0b9190612629565b90506001600160a01b038116611e5b5760405162461bcd60e51b81526020600482015260156024820152740a0c2d2e440dcdee840ccdeeadcc840dedc40888ab605b1b6044820152606401610abe565b60155460405163095ea7b360e01b81526001600160a01b039182166004820152602481018590529085169063095ea7b3906044016020604051808303816000875af1158015611eae573d6000803e3d6000fd5b505050506040513d601f19601f82011682018060405250810190611ed291906123f4565b506015546001600160a01b031663f305d71983868660008030611ef642603c6125fd565b60405160e089901b6001600160e01b03191681526001600160a01b039687166004820152602481019590955260448501939093526064840191909152909216608482015260a481019190915260c40160606040518083038185885af1158015611f63573d6000803e3d6000fd5b50505050506040513d601f19601f82011682018060405250810190611f889190612646565b50505050505050565b600080546001600160a01b038381166001600160a01b0319831681178455604051919092169283917f8be0079c531659141344cd1fd0a4f28419497f9722a3daafe3b4186f6b6457e09190a35050565b6000805b60035481101561204157826001600160a01b03166003828154811061200c5761200c6125e7565b6000918252602090912001546001600160a01b03160361202f5750600192915050565b8061203981612610565b915050611fe5565b50600092915050565b6001600160a01b0381168114611cbf57600080fd5b60006020828403121561207157600080fd5b813561207c8161204a565b9392505050565b60005b8381101561209e578181015183820152602001612086565b50506000910152565b60208152600082518060208401526120c6816040850160208701612083565b601f01601f19169190910160400192915050565b634e487b7160e01b600052604160045260246000fd5b601f8201601f1916810167ffffffffffffffff81118282101715612116576121166120da565b6040525050565b600067ffffffffffffffff821115612137576121376120da565b50601f01601f191660200190565b60006020828403121561215757600080fd5b813567ffffffffffffffff81111561216e57600080fd5b8201601f8101841361217f57600080fd5b803561218a8161211d565b60405161219782826120f0565b8281528660208486010111156121ac57600080fd5b8260208501602083013760009281016020019290925250949350505050565b600080604083850312156121de57600080fd5b82356121e98161204a565b915060208301356121f98161204a565b809150509250929050565b6000806040838503121561221757600080fd5b50508035926020909101359150565b60006020828403121561223857600080fd5b5035919050565b6020808252825182820181905260009190848201906040850190845b818110156122775783518352928401929184019160010161225b565b50909695505050505050565b600181811c9082168061229757607f821691505b6020821081036122b757634e487b7160e01b600052602260045260246000fd5b50919050565b6020808252600e908201526d139bdd08185d5d1a1bdc9a5e995960921b604082015260600190565b601f82111561232f57600081815260208120601f850160051c8101602086101561230c5750805b601f850160051c820191505b8181101561232b57828155600101612318565b5050505b505050565b815167ffffffffffffffff81111561234e5761234e6120da565b6123628161235c8454612283565b846122e5565b602080601f831160018114612397576000841561237f5750858301515b600019600386901b1c1916600185901b17855561232b565b600085815260208120601f198616915b828110156123c6578886015182559484019460019091019084016123a7565b50858210156123e45787850151600019600388901b60f8161c191681555b5050505050600190811b01905550565b60006020828403121561240657600080fd5b8151801515811461207c57600080fd5b634e487b7160e01b600052601160045260246000fd5b808202811582820484141761115c5761115c612416565b60008261246057634e487b7160e01b600052601260045260246000fd5b500490565b8181038181111561115c5761115c612416565b602080825260159082015274151bdad95b881859191c995cdcc81b9bdd081cd95d605a1b604082015260600190565b6000602082840312156124b957600080fd5b5051919050565b6000602082840312156124d257600080fd5b815167ffffffffffffffff8111156124e957600080fd5b8201601f810184136124fa57600080fd5b80516125058161211d565b60405161251282826120f0565b82815286602084860101111561252757600080fd5b612538836020830160208701612083565b9695505050505050565b600060033d11156112945760046000803e5060005160e01c90565b600060443d101561256b5790565b6040516003193d81016004833e81513d67ffffffffffffffff816024840111818411171561259b57505050505090565b82850191508151818111156125b35750505050505090565b843d87010160208285010111156125cd5750505050505090565b6125dc602082860101876120f0565b509095945050505050565b634e487b7160e01b600052603260045260246000fd5b8082018082111561115c5761115c612416565b60006001820161262257612622612416565b5060010190565b60006020828403121561263b57600080fd5b815161207c8161204a565b60008060006060848603121561265b57600080fd5b835192506020840151915060408401519050925092509256fea2646970667358221220e5eaa9d178406af7a5ac6a5261406c9e91afd05e219a292622cef72781ebcf3564736f6c63430008120033a2646970667358221220b4b7f21239b1cb21d851abe4e51f5ea2bb27315ed38c966367acdc206fe251cf64736f6c63430008120033",
  "linkReferences": {},
  "deployedLinkReferences": {}
}