{
  "_format": "hh-sol-artifact-1",
  "contractName": "FairLaunchFactory",
  "sourceName": "contracts/FairLaunchFactory.sol",
  "abi": [
    {
      "inputs": [
        {
          "internalType": "address",
          "name": "_treasuryWallet",
          "type": "address"
        }
      ],
      "stateMutability": "nonpayable",
      "type": "constructor"
    },
    {
      "anonymous": false,
      "inputs": [
        {
          "indexed": true,
          "internalType": "address",
          "name": "fairLaunch",
          "type": "address"
        },
        {
          "indexed": true,
          "internalType": "address",
          "name": "creator",
          "type": "address"
        }
      ],
      "name": "FairLaunchCreated",
      "type": "event"
    },
    {
      "anonymous": false,
      "inputs": [
        {
          "indexed": true,
          "internalType": "address",
          "name": "previousOwner",
          "type": "address"
        },
        {
          "indexed": true,
          "internalType": "address",
          "name": "newOwner",
          "type": "address"
        }
      ],
      "name": "OwnershipTransferred",
      "type": "event"
    },
    {
      "inputs": [
        {
          "internalType": "address",
          "name": "_spender",
          "type": "address"
        },
        {
          "internalType": "uint256",
          "name": "_amount",
          "type": "uint256"
        }
      ],
      "name": "approve",
      "outputs": [
        {
          "internalType": "bool",
          "name": "",
          "type": "bool"
        }
      ],
      "stateMutability": "nonpayable",
      "type": "function"
    },
    {
      "inputs": [
        {
          "internalType": "uint256",
          "name": "totalTokensForSale",
          "type": "uint256"
        },
        {
          "internalType": "uint256",
          "name": "softCap",
          "type": "uint256"
        },
        {
          "internalType": "uint256[]",
          "name": "_Contributions",
          "type": "uint256[]"
        },
        {
          "internalType": "uint256[]",
          "name": "_Times",
          "type": "uint256[]"
        },
        {
          "internalType": "string",
          "name": "_dataURL",
          "type": "string"
        },
        {
          "internalType": "uint256",
          "name": "_liquidityPercent",
          "type": "uint256"
        },
        {
          "internalType": "uint256",
          "name": "_liquidityLockupTime",
          "type": "uint256"
        },
        {
          "internalType": "address[]",
          "name": "_addr",
          "type": "address[]"
        }
      ],
      "name": "createFairLaunch",
      "outputs": [],
      "stateMutability": "payable",
      "type": "function"
    },
    {
      "inputs": [],
      "name": "deployFee",
      "outputs": [
        {
          "internalType": "uint256",
          "name": "",
          "type": "uint256"
        }
      ],
      "stateMutability": "view",
      "type": "function"
    },
    {
      "inputs": [
        {
          "internalType": "uint256",
          "name": "_feeAmount",
          "type": "uint256"
        }
      ],
      "name": "deployFeeToTreasury",
      "outputs": [],
      "stateMutability": "nonpayable",
      "type": "function"
    },
    {
      "inputs": [
        {
          "internalType": "uint256",
          "name": "",
          "type": "uint256"
        }
      ],
      "name": "fairLaunchs",
      "outputs": [
        {
          "internalType": "address",
          "name": "",
          "type": "address"
        }
      ],
      "stateMutability": "view",
      "type": "function"
    },
    {
      "inputs": [],
      "name": "getAllFairLaunchAddress",
      "outputs": [
        {
          "internalType": "address[]",
          "name": "",
          "type": "address[]"
        }
      ],
      "stateMutability": "view",
      "type": "function"
    },
    {
      "inputs": [
        {
          "internalType": "address",
          "name": "_fairLaunchAddress",
          "type": "address"
        }
      ],
      "name": "getFairLaunchByAddress",
      "outputs": [
        {
          "internalType": "address",
          "name": "",
          "type": "address"
        }
      ],
      "stateMutability": "view",
      "type": "function"
    },
    {
      "inputs": [
        {
          "internalType": "address",
          "name": "_tokenAddress",
          "type": "address"
        }
      ],
      "name": "getPresalesByToken",
      "outputs": [
        {
          "internalType": "address[]",
          "name": "",
          "type": "address[]"
        }
      ],
      "stateMutability": "view",
      "type": "function"
    },
    {
      "inputs": [
        {
          "internalType": "uint256",
          "name": "_listingRate",
          "type": "uint256"
        },
        {
          "internalType": "uint256",
          "name": "_hardCap",
          "type": "uint256"
        },
        {
          "internalType": "uint256",
          "name": "_liquidityPercent",
          "type": "uint256"
        },
        {
          "internalType": "uint8",
          "name": "tokenDecimals",
          "type": "uint8"
        }
      ],
      "name": "getTokensForLiquidity",
      "outputs": [
        {
          "internalType": "uint256",
          "name": "",
          "type": "uint256"
        }
      ],
      "stateMutability": "pure",
      "type": "function"
    },
    {
      "inputs": [],
      "name": "getTotalInvestment",
      "outputs": [
        {
          "internalType": "uint256",
          "name": "",
          "type": "uint256"
        }
      ],
      "stateMutability": "view",
      "type": "function"
    },
    {
      "inputs": [
        {
          "internalType": "address",
          "name": "",
          "type": "address"
        }
      ],
      "name": "isFairLaunch",
      "outputs": [
        {
          "internalType": "bool",
          "name": "",
          "type": "bool"
        }
      ],
      "stateMutability": "view",
      "type": "function"
    },
    {
      "inputs": [],
      "name": "owner",
      "outputs": [
        {
          "internalType": "address",
          "name": "",
          "type": "address"
        }
      ],
      "stateMutability": "view",
      "type": "function"
    },
    {
      "inputs": [],
      "name": "payDeployFee",
      "outputs": [],
      "stateMutability": "payable",
      "type": "function"
    },
    {
      "inputs": [
        {
          "internalType": "address",
          "name": "",
          "type": "address"
        },
        {
          "internalType": "uint256",
          "name": "",
          "type": "uint256"
        }
      ],
      "name": "presalesByToken",
      "outputs": [
        {
          "internalType": "address",
          "name": "",
          "type": "address"
        }
      ],
      "stateMutability": "view",
      "type": "function"
    },
    {
      "inputs": [],
      "name": "renounceOwnership",
      "outputs": [],
      "stateMutability": "nonpayable",
      "type": "function"
    },
    {
      "inputs": [
        {
          "internalType": "uint256",
          "name": "_fee",
          "type": "uint256"
        }
      ],
      "name": "setDeployFee",
      "outputs": [],
      "stateMutability": "nonpayable",
      "type": "function"
    },
    {
      "inputs": [
        {
          "internalType": "address",
          "name": "_tokenAddress",
          "type": "address"
        }
      ],
      "name": "setTokenAddress",
      "outputs": [],
      "stateMutability": "nonpayable",
      "type": "function"
    },
    {
      "inputs": [
        {
          "internalType": "address",
          "name": "_treasuryWallet",
          "type": "address"
        }
      ],
      "name": "setTreasuryWallet",
      "outputs": [],
      "stateMutability": "nonpayable",
      "type": "function"
    },
    {
      "inputs": [],
      "name": "token",
      "outputs": [
        {
          "internalType": "contract IERC20",
          "name": "",
          "type": "address"
        }
      ],
      "stateMutability": "view",
      "type": "function"
    },
    {
      "inputs": [
        {
          "internalType": "address",
          "name": "newOwner",
          "type": "address"
        }
      ],
      "name": "transferOwnership",
      "outputs": [],
      "stateMutability": "nonpayable",
      "type": "function"
    },
    {
      "inputs": [],
      "name": "treasuryWallet",
      "outputs": [
        {
          "internalType": "address",
          "name": "",
          "type": "address"
        }
      ],
      "stateMutability": "view",
      "type": "function"
    },
    {
      "inputs": [],
      "name": "withdrawDeployFee",
      "outputs": [],
      "stateMutability": "nonpayable",
      "type": "function"
    }
  ],
  "bytecode": "0x6080604052670de0b6b3a764000060065534801561001c57600080fd5b5060405162004b5438038062004b5483398101604081905261003d916100bb565b6100463361006b565b600580546001600160a01b0319166001600160a01b03929092169190911790556100eb565b600080546001600160a01b038381166001600160a01b0319831681178455604051919092169283917f8be0079c531659141344cd1fd0a4f28419497f9722a3daafe3b4186f6b6457e09190a35050565b6000602082840312156100cd57600080fd5b81516001600160a01b03811681146100e457600080fd5b9392505050565b614a5980620000fb6000396000f3fe6080604052600436106200014f5760003560e01c80638da5cb5b11620000b9578063eb2a5d2c1162000078578063eb2a5d2c146200038b578063f2fde38b14620003b2578063f9cb1b4814620003d7578063faaa686314620003ef578063fbda63221462000414578063fc0c546a146200044857600080fd5b80638da5cb5b14620002f25780639ecbd9991462000312578063a8602fea1462000337578063a9e52987146200035c578063dd9337eb146200038157600080fd5b806320bc74d5116200011257806320bc74d5146200022257806326a4e8d214620002475780634626402b146200026c5780634d01e1e5146200028e5780636638816714620002b5578063715018a614620002da57600080fd5b806306ea344f1462000154578063095ea7b3146200016e5780630ec68a8714620001a857806311e009ce14620001bf57806319901dec14620001fd575b600080fd5b3480156200016157600080fd5b506200016c6200046a565b005b3480156200017b57600080fd5b50620001936200018d366004620012ac565b620005f2565b60405190151581526020015b60405180910390f35b6200016c620001b93660046200149f565b62000730565b348015620001cc57600080fd5b50620001e4620001de36600462001580565b62000b26565b6040516001600160a01b0390911681526020016200019f565b3480156200020a57600080fd5b50620001e46200021c366004620012ac565b62000b51565b3480156200022f57600080fd5b506200016c6200024136600462001580565b62000b8a565b3480156200025457600080fd5b506200016c620002663660046200159a565b62000d11565b3480156200027957600080fd5b50600554620001e4906001600160a01b031681565b3480156200029b57600080fd5b50620002a662000de4565b6040516200019f9190620015fe565b348015620002c257600080fd5b50620002a6620002d43660046200159a565b62000e48565b348015620002e757600080fd5b506200016c62000ec0565b348015620002ff57600080fd5b506000546001600160a01b0316620001e4565b3480156200031f57600080fd5b50620001e4620003313660046200159a565b62000ed8565b3480156200034457600080fd5b506200016c620003563660046200159a565b62000f46565b3480156200036957600080fd5b506200016c6200037b36600462001580565b62000f72565b6200016c62000f81565b3480156200039857600080fd5b50620003a360065481565b6040519081526020016200019f565b348015620003bf57600080fd5b506200016c620003d13660046200159a565b62000fcb565b348015620003e457600080fd5b50620003a362001047565b348015620003fc57600080fd5b50620003a36200040e36600462001623565b62001113565b3480156200042157600080fd5b5062000193620004333660046200159a565b60026020526000908152604090205460ff1681565b3480156200045557600080fd5b50600454620001e4906001600160a01b031681565b620004746200112e565b600060065411620004cc5760405162461bcd60e51b815260206004820152601760248201527f4e6f206465706c6f792066656520617661696c61626c6500000000000000000060448201526064015b60405180910390fd5b6005546001600160a01b0316620005205760405162461bcd60e51b8152602060048201526017602482015276151c99585cdd5c9e481dd85b1b195d081b9bdd081cd95d604a1b6044820152606401620004c3565b600480546005546006546040516323b872dd60e01b815230948101949094526001600160a01b039182166024850152604484015216906323b872dd906064016020604051808303816000875af11580156200057f573d6000803e3d6000fd5b505050506040513d601f19601f82011682018060405250810190620005a5919062001667565b620005eb5760405162461bcd60e51b8152602060048201526015602482015274151bdad95b881d1c985b9cd9995c8819985a5b1959605a1b6044820152606401620004c3565b6000600655565b600080546001600160a01b03163314620006595760405162461bcd60e51b815260206004820152602160248201527f4f6e6c7920746865206f776e65722063616e20617070726f766520746f6b656e6044820152607360f81b6064820152608401620004c3565b60008211620006ab5760405162461bcd60e51b815260206004820152601d60248201527f416d6f756e74206d7573742062652067726561746572207468616e20300000006044820152606401620004c3565b6004805460405163095ea7b360e01b81526001600160a01b03868116938201939093526024810185905291169063095ea7b3906044016020604051808303816000875af115801562000701573d6000803e3d6000fd5b505050506040513d601f19601f8201168201806040525081019062000727919062001667565b90505b92915050565b60065434146200077a5760405162461bcd60e51b8152602060048201526014602482015273496e636f7272656374206465706c6f792066656560601b6044820152606401620004c3565b60045462000791906001600160a01b03166200118a565b620007d75760405162461bcd60e51b8152602060048201526015602482015274151bdad95b881859191c995cdcc81b9bdd081cd95d605a1b6044820152606401620004c3565b6000600460009054906101000a90046001600160a01b03166001600160a01b031663313ce5676040518163ffffffff1660e01b8152600401602060405180830381865afa1580156200082d573d6000803e3d6000fd5b505050506040513d601f19601f8201168201806040525081019062000853919062001692565b905060006200086b670de0b6b3a76400008b620016c8565b90506000670de0b6b3a76400008662000886606485620016c8565b620008929190620016eb565b6200089e9190620016c8565b90506000620008ae828462001705565b90506000838c8c8c8c8c8c8c604051620008c89062001286565b620008db9897969594939291906200174d565b604051809103906000f080158015620008f8573d6000803e3d6000fd5b506004805460405163144fa6d760e01b81526001600160a01b03918216928101929092529192509082169063144fa6d790602401600060405180830381600087803b1580156200094757600080fd5b505af11580156200095c573d6000803e3d6000fd5b50506004805460405163095ea7b360e01b81526001600160a01b0386811693820193909352602481018790529116925063095ea7b391506044016020604051808303816000875af1158015620009b6573d6000803e3d6000fd5b505050506040513d601f19601f82011682018060405250810190620009dc919062001667565b50600480546040516323b872dd60e01b815233928101929092526001600160a01b0383811660248401526044830185905216906323b872dd906064016020604051808303816000875af115801562000a38573d6000803e3d6000fd5b505050506040513d601f19601f8201168201806040525081019062000a5e919062001667565b506004546001600160a01b0390811660009081526003602090815260408083208054600181810183559185528385200180549587166001600160a01b031996871681179091558085526002909352818420805460ff191682179055805480820182559084527fb10e2d527612073b26eecdfd717e6a320cf44b4afac2b0732d9fcbe2b7fa0cf6018054909416821790935591513392917f02f3b1e33e7703ca96d5df58edeefad61811eadfdb5be1e16beb4b125a36c31891a350505050505050505050505050565b6001818154811062000b3757600080fd5b6000918252602090912001546001600160a01b0316905081565b6003602052816000526040600020818154811062000b6e57600080fd5b6000918252602090912001546001600160a01b03169150829050565b62000b946200112e565b6000811162000bf05760405162461bcd60e51b815260206004820152602160248201527f46656520616d6f756e74206d7573742062652067726561746572207468616e206044820152600360fc1b6064820152608401620004c3565b6005546001600160a01b031662000c445760405162461bcd60e51b8152602060048201526017602482015276151c99585cdd5c9e481dd85b1b195d081b9bdd081cd95d604a1b6044820152606401620004c3565b600480546005546040516323b872dd60e01b815233938101939093526001600160a01b0390811660248401526044830184905216906323b872dd906064016020604051808303816000875af115801562000ca2573d6000803e3d6000fd5b505050506040513d601f19601f8201168201806040525081019062000cc8919062001667565b62000d0e5760405162461bcd60e51b8152602060048201526015602482015274151bdad95b881d1c985b9cd9995c8819985a5b1959605a1b6044820152606401620004c3565b50565b62000d1b6200112e565b6001600160a01b03811662000d735760405162461bcd60e51b815260206004820152601c60248201527f546f6b656e20616464726573732063616e6e6f74206265207a65726f000000006044820152606401620004c3565b62000d7e816200118a565b62000dc25760405162461bcd60e51b815260206004820152601360248201527224b73b30b634b21022a9219918103a37b5b2b760691b6044820152606401620004c3565b600480546001600160a01b0319166001600160a01b0392909216919091179055565b6060600180548060200260200160405190810160405280929190818152602001828054801562000e3e57602002820191906000526020600020905b81546001600160a01b0316815260019091019060200180831162000e1f575b5050505050905090565b6001600160a01b03811660009081526003602090815260409182902080548351818402810184019094528084526060939283018282801562000eb457602002820191906000526020600020905b81546001600160a01b0316815260019091019060200180831162000e95575b50505050509050919050565b62000eca6200112e565b62000ed6600062001204565b565b6001600160a01b03811660009081526002602052604081205460ff1662000f425760405162461bcd60e51b815260206004820152601f60248201527f4e6f7420612076616c696420466169724c61756e636820636f6e7472616374006044820152606401620004c3565b5090565b62000f506200112e565b600580546001600160a01b0319166001600160a01b0392909216919091179055565b62000f7c6200112e565b600655565b600654341462000ed65760405162461bcd60e51b8152602060048201526014602482015273496e636f7272656374206465706c6f792066656560601b6044820152606401620004c3565b62000fd56200112e565b6001600160a01b0381166200103c5760405162461bcd60e51b815260206004820152602660248201527f4f776e61626c653a206e6577206f776e657220697320746865207a65726f206160448201526564647265737360d01b6064820152608401620004c3565b62000d0e8162001204565b60008060005b6001548110156200110d57600060018281548110620010705762001070620017ff565b60009182526020918290200154604080516337c0892360e01b815290516001600160a01b03909216935083926337c08923926004808401938290030181865afa158015620010c2573d6000803e3d6000fd5b505050506040513d601f19601f82011682018060405250810190620010e8919062001815565b620010f4908462001705565b925050808062001104906200182f565b9150506200104d565b50919050565b600081620011248686868462001254565b9695505050505050565b6000546001600160a01b0316331462000ed65760405162461bcd60e51b815260206004820181905260248201527f4f776e61626c653a2063616c6c6572206973206e6f7420746865206f776e65726044820152606401620004c3565b6000816001600160a01b03166318160ddd6040518163ffffffff1660e01b8152600401602060405180830381865afa925050508015620011e9575060408051601f3d908101601f19168201909252620011e69181019062001815565b60015b620011f657506000919050565b50600192915050565b919050565b600080546001600160a01b038381166001600160a01b0319831681178455604051919092169283917f8be0079c531659141344cd1fd0a4f28419497f9722a3daafe3b4186f6b6457e09190a35050565b60008083620012648787620016eb565b620012709190620016eb565b905062001124670de0b6b3a764000082620016c8565b6131d8806200184c83390190565b80356001600160a01b0381168114620011ff57600080fd5b60008060408385031215620012c057600080fd5b620012cb8362001294565b946020939093013593505050565b634e487b7160e01b600052604160045260246000fd5b604051601f8201601f1916810167ffffffffffffffff811182821017156200131b576200131b620012d9565b604052919050565b600067ffffffffffffffff821115620013405762001340620012d9565b5060051b60200190565b600082601f8301126200135c57600080fd5b81356020620013756200136f8362001323565b620012ef565b82815260059290921b840181019181810190868411156200139557600080fd5b8286015b84811015620013b2578035835291830191830162001399565b509695505050505050565b600082601f830112620013cf57600080fd5b813567ffffffffffffffff811115620013ec57620013ec620012d9565b62001401601f8201601f1916602001620012ef565b8181528460208386010111156200141757600080fd5b816020850160208301376000918101602001919091529392505050565b600082601f8301126200144657600080fd5b81356020620014596200136f8362001323565b82815260059290921b840181019181810190868411156200147957600080fd5b8286015b84811015620013b257620014918162001294565b83529183019183016200147d565b600080600080600080600080610100898b031215620014bd57600080fd5b8835975060208901359650604089013567ffffffffffffffff80821115620014e457600080fd5b620014f28c838d016200134a565b975060608b01359150808211156200150957600080fd5b620015178c838d016200134a565b965060808b01359150808211156200152e57600080fd5b6200153c8c838d01620013bd565b955060a08b0135945060c08b0135935060e08b01359150808211156200156157600080fd5b50620015708b828c0162001434565b9150509295985092959890939650565b6000602082840312156200159357600080fd5b5035919050565b600060208284031215620015ad57600080fd5b620007278262001294565b600081518084526020808501945080840160005b83811015620015f35781516001600160a01b031687529582019590820190600101620015cc565b509495945050505050565b602081526000620007276020830184620015b8565b60ff8116811462000d0e57600080fd5b600080600080608085870312156200163a57600080fd5b84359350602085013592506040850135915060608501356200165c8162001613565b939692955090935050565b6000602082840312156200167a57600080fd5b815180151581146200168b57600080fd5b9392505050565b600060208284031215620016a557600080fd5b81516200168b8162001613565b634e487b7160e01b600052601160045260246000fd5b600082620016e657634e487b7160e01b600052601260045260246000fd5b500490565b80820281158282048414176200072a576200072a620016b2565b808201808211156200072a576200072a620016b2565b600081518084526020808501945080840160005b83811015620015f3578151875295820195908201906001016200172f565b60006101008a835260208a81850152816040850152620017708285018b6200171b565b9150838203606085015262001786828a6200171b565b91508382036080850152875180835260005b81811015620017b557898101830151848201840152820162001798565b50600083820183015260a0850188905260c08501879052601f01601f1916909101838103820160e085015290620017ef82820186620015b8565b9c9b505050505050505050505050565b634e487b7160e01b600052603260045260246000fd5b6000602082840312156200182857600080fd5b5051919050565b600060018201620018445762001844620016b2565b506001019056fe60806040523480156200001157600080fd5b50604051620031d8380380620031d883398101604081905262000034916200043a565b6200003f3362000202565b855186906000906200005557620000556200051b565b6020026020010151600a81905550856001815181106200007957620000796200051b565b6020026020010151600b81905550846000815181106200009d576200009d6200051b565b6020026020010151600c8190555084600181518110620000c157620000c16200051b565b6020908102919091010151600d55600e839055600f82905580518190600090620000ef57620000ef6200051b565b6020026020010151600860006101000a8154816001600160a01b0302191690836001600160a01b03160217905550806001815181106200013357620001336200051b565b6020026020010151600660006101000a8154816001600160a01b0302191690836001600160a01b03160217905550806002815181106200017757620001776200051b565b6020026020010151600260006101000a8154816001600160a01b0302191690836001600160a01b0316021790555080600381518110620001bb57620001bb6200051b565b6020908102919091010151600380546001600160a01b0319166001600160a01b039092169190911790556011620001f38582620005c0565b5050505050505050506200068c565b600080546001600160a01b038381166001600160a01b0319831681178455604051919092169283917f8be0079c531659141344cd1fd0a4f28419497f9722a3daafe3b4186f6b6457e09190a35050565b634e487b7160e01b600052604160045260246000fd5b604051601f8201601f191681016001600160401b038111828210171562000293576200029362000252565b604052919050565b60006001600160401b03821115620002b757620002b762000252565b5060051b60200190565b600082601f830112620002d357600080fd5b81516020620002ec620002e6836200029b565b62000268565b82815260059290921b840181019181810190868411156200030c57600080fd5b8286015b8481101562000329578051835291830191830162000310565b509695505050505050565b600082601f8301126200034657600080fd5b81516001600160401b0381111562000362576200036262000252565b602062000378601f8301601f1916820162000268565b82815285828487010111156200038d57600080fd5b60005b83811015620003ad57858101830151828201840152820162000390565b506000928101909101919091529392505050565b600082601f830112620003d357600080fd5b81516020620003e6620002e6836200029b565b82815260059290921b840181019181810190868411156200040657600080fd5b8286015b84811015620003295780516001600160a01b03811681146200042c5760008081fd5b83529183019183016200040a565b600080600080600080600080610100898b0312156200045857600080fd5b885160208a015160408b015191995097506001600160401b03808211156200047f57600080fd5b6200048d8c838d01620002c1565b975060608b0151915080821115620004a457600080fd5b620004b28c838d01620002c1565b965060808b0151915080821115620004c957600080fd5b620004d78c838d0162000334565b955060a08b0151945060c08b0151935060e08b0151915080821115620004fc57600080fd5b506200050b8b828c01620003c1565b9150509295985092959890939650565b634e487b7160e01b600052603260045260246000fd5b600181811c908216806200054657607f821691505b6020821081036200056757634e487b7160e01b600052602260045260246000fd5b50919050565b601f821115620005bb57600081815260208120601f850160051c81016020861015620005965750805b601f850160051c820191505b81811015620005b757828155600101620005a2565b5050505b505050565b81516001600160401b03811115620005dc57620005dc62000252565b620005f481620005ed845462000531565b846200056d565b602080601f8311600181146200062c5760008415620006135750858301515b600019600386901b1c1916600185901b178555620005b7565b600085815260208120601f198616915b828110156200065d578886015182559484019460019091019084016200063c565b50858210156200067c5787850151600019600388901b60f8161c191681555b5050505050600190811b01905550565b612b3c806200069c6000396000f3fe6080604052600436106103ef5760003560e01c80639d76ea5811610208578063c80c28a211610118578063ea46193e116100ab578063f851a4401161007a578063f851a44014610a82578063fb3de3c014610aa2578063fbda632214610ab8578063fc0c546a14610ae8578063fc6f946814610b0857600080fd5b8063ea46193e14610a25578063ee38db9514610a38578063f1850af814610a4d578063f2fde38b14610a6257600080fd5b8063dda0a81a116100e7578063dda0a81a146109c4578063ddf556d0146109e6578063e7e10490146109fb578063e9ab77e514610a1057600080fd5b8063c80c28a214610972578063c8bdbfb614610987578063d51779201461099c578063d7bb99ba146109bc57600080fd5b8063b4a344941161019b578063bba8bd201161016a578063bba8bd2014610900578063bdd06a0a14610916578063bddb971b1461092b578063bea9849e14610952578063beb2a37c1461070e57600080fd5b8063b4a34494146108c1578063b5545a3c146108d6578063b6c0406d14610818578063b9dc4ab2146108eb57600080fd5b8063aaffadf3116101d7578063aaffadf314610862578063ae9763a514610878578063b06837551461088d578063b0f479a1146108a357600080fd5b80639d76ea58146107e25780639e1a4d1914610802578063a296d67d14610818578063a5f0dea21461083857600080fd5b80636e9960c31161030357806382b2e257116102965780638da5cb5b116102655780638da5cb5b146107635780638dd0855714610781578063906a26e0146107a157806393632ddd146107b7578063987e5f58146107cd57600080fd5b806382b2e2571461070e578063862b092b14610723578063892ec554146107385780638d3d65761461074d57600080fd5b806375d35b62116102d257806375d35b62146106ae57806378cc70b2146106c357806378e97925146106e35780637a127d55146106f957600080fd5b80636e9960c31461060e578063715018a61461062c57806371bdce551461064157806372d41f701461069957600080fd5b806342e94c90116103865780634d68ceb9116103555780634d68ceb914610582578063523fba7f1461059757806355cb2666146105c457806357df844b146105e457806358a687ec146105f957600080fd5b806342e94c901461050b57806348c54b9d146105385780634a68ae941461054d5780634d52a5121461056d57600080fd5b80633197cbb6116103c25780633197cbb61461048f57806331d7c4fb146104b357806333dbef9f146104d557806337c08923146104f557600080fd5b806302d05d3f146103f45780630ee2cb101461043157806310fe9ae81461044f578063144fa6d71461046d575b600080fd5b34801561040057600080fd5b50600354610414906001600160a01b031681565b6040516001600160a01b0390911681526020015b60405180910390f35b34801561043d57600080fd5b506003546001600160a01b0316610414565b34801561045b57600080fd5b506001546001600160a01b0316610414565b34801561047957600080fd5b5061048d610488366004612548565b610b28565b005b34801561049b57600080fd5b506104a5600d5481565b604051908152602001610428565b3480156104bf57600080fd5b506104c8610bb0565b604051610428919061259c565b3480156104e157600080fd5b5061048d6104f036600461263a565b610c3e565b34801561050157600080fd5b506104a560135481565b34801561051757600080fd5b506104a5610526366004612548565b60156020526000908152604090205481565b34801561054457600080fd5b5061048d610c78565b34801561055957600080fd5b5061048d61056836600461263a565b610e31565b34801561057957600080fd5b506009546104a5565b34801561058e57600080fd5b506104c8610e67565b3480156105a357600080fd5b506104a56105b2366004612548565b60166020526000908152604090205481565b3480156105d057600080fd5b50600854610414906001600160a01b031681565b3480156105f057600080fd5b506104a5610e74565b34801561060557600080fd5b5061048d610f1b565b34801561061a57600080fd5b506004546001600160a01b0316610414565b34801561063857600080fd5b5061048d611372565b34801561064d57600080fd5b5061068461065c366004612548565b6001600160a01b03166000908152601560209081526040808320546016909252909120549091565b60408051928352602083019190915201610428565b3480156106a557600080fd5b506104c8611384565b3480156106ba57600080fd5b50600f546104a5565b3480156106cf57600080fd5b50600754610414906001600160a01b031681565b3480156106ef57600080fd5b506104a5600c5481565b34801561070557600080fd5b506104c8611416565b34801561071a57600080fd5b506104a5611425565b34801561072f57600080fd5b506104c861146e565b34801561074457600080fd5b506104c8611594565b34801561075957600080fd5b506104a5600b5481565b34801561076f57600080fd5b506000546001600160a01b0316610414565b34801561078d57600080fd5b5061041461079c3660046126c0565b6115a3565b3480156107ad57600080fd5b506104a560095481565b3480156107c357600080fd5b506104a560105481565b3480156107d957600080fd5b506104c86115cd565b3480156107ee57600080fd5b50600254610414906001600160a01b031681565b34801561080e57600080fd5b506104a560125481565b34801561082457600080fd5b5061048d61083336600461263a565b6115dc565b34801561084457600080fd5b50601b546108529060ff1681565b6040519015158152602001610428565b34801561086e57600080fd5b506104a5600a5481565b34801561088457600080fd5b506010546104a5565b34801561089957600080fd5b506104a5600e5481565b3480156108af57600080fd5b506008546001600160a01b0316610414565b3480156108cd57600080fd5b50600e546104a5565b3480156108e257600080fd5b5061048d611612565b3480156108f757600080fd5b506104c86116e7565b34801561090c57600080fd5b506104a560145481565b34801561092257600080fd5b506104c86116f4565b34801561093757600080fd5b50610940611701565b60405160ff9091168152602001610428565b34801561095e57600080fd5b5061048d61096d366004612548565b61180e565b34801561097e57600080fd5b506005546104a5565b34801561099357600080fd5b5061048d611838565b3480156109a857600080fd5b5061048d6109b736600461263a565b6119d9565b61048d611a0f565b3480156109d057600080fd5b506109d9611da9565b60405161042891906126d9565b3480156109f257600080fd5b506013546104a5565b348015610a0757600080fd5b5061048d611e16565b348015610a1c57600080fd5b506109d9611fc0565b348015610a3157600080fd5b50476104a5565b348015610a4457600080fd5b5061048d61201d565b348015610a5957600080fd5b506104c86122aa565b348015610a6e57600080fd5b5061048d610a7d366004612548565b6123bc565b348015610a8e57600080fd5b50600454610414906001600160a01b031681565b348015610aae57600080fd5b506104a5600f5481565b348015610ac457600080fd5b50610852610ad3366004612548565b60176020526000908152604090205460ff1681565b348015610af457600080fd5b50600154610414906001600160a01b031681565b348015610b1457600080fd5b50600654610414906001600160a01b031681565b610b30612435565b6001546001600160a01b031615610b8e5760405162461bcd60e51b815260206004820152601960248201527f546f6b656e206164647265737320616c7265616479207365740000000000000060448201526064015b60405180910390fd5b600180546001600160a01b0319166001600160a01b0392909216919091179055565b601a8054610bbd9061271d565b80601f0160208091040260200160405190810160405280929190818152602001828054610be99061271d565b8015610c365780601f10610c0b57610100808354040283529160200191610c36565b820191906000526020600020905b815481529060010190602001808311610c1957829003601f168201915b505050505081565b6006546001600160a01b03163314610c685760405162461bcd60e51b8152600401610b8590612757565b601a610c7482826127cd565b5050565b601b5460ff16610cc35760405162461bcd60e51b815260206004820152601660248201527514d85b19481b9bdd081e595d08199a5b985b1a5e995960521b6044820152606401610b85565b33600090815260156020526040902054610d1a5760405162461bcd60e51b81526020600482015260186024820152774e6f20636f6e747269627574696f6e20746f20636c61696d60401b6044820152606401610b85565b3360009081526016602052604090205480610d6c5760405162461bcd60e51b81526020600482015260126024820152714e6f20746f6b656e7320746f20636c61696d60701b6044820152606401610b85565b60015460405163a9059cbb60e01b8152336004820152602481018390526001600160a01b039091169063a9059cbb906044016020604051808303816000875af1158015610dbd573d6000803e3d6000fd5b505050506040513d601f19601f82011682018060405250810190610de1919061288d565b503360008181526016602052604080822091909155517f896e034966eaaf1adc54acc0f257056febbd300c9e47182cf761982cf1f5e43090610e269084815260200190565b60405180910390a250565b6006546001600160a01b03163314610e5b5760405162461bcd60e51b8152600401610b8590612757565b6019610c7482826127cd565b60198054610bbd9061271d565b6001546000906001600160a01b0316610e9f5760405162461bcd60e51b8152600401610b85906128af565b600160009054906101000a90046001600160a01b03166001600160a01b03166318160ddd6040518163ffffffff1660e01b8152600401602060405180830381865afa158015610ef2573d6000803e3d6000fd5b505050506040513d601f19601f82011682018060405250810190610f1691906128de565b905090565b6003546001600160a01b03163314610f455760405162461bcd60e51b8152600401610b8590612757565b600d54421015610f8e5760405162461bcd60e51b815260206004820152601460248201527353616c65206973207374696c6c2061637469766560601b6044820152606401610b85565b601b5460ff1615610fda5760405162461bcd60e51b815260206004820152601660248201527514d85b1948185b1c9958591e48199a5b985b1a5e995960521b6044820152606401610b85565b6009546013541061136857600e546001546040516370a0823160e01b8152306004820152600092670de0b6b3a7640000926064926001600160a01b03909116906370a0823190602401602060405180830381865afa158015611040573d6000803e3d6000fd5b505050506040513d601f19601f8201168201806040525081019061106491906128de565b61106e919061290d565b611078919061292a565b611082919061292a565b905060006064600e54601054611098919061290d565b6110a2919061292a565b6001546040516370a0823160e01b815230600482015291925083916001600160a01b03909116906370a0823190602401602060405180830381865afa1580156110ef573d6000803e3d6000fd5b505050506040513d601f19601f8201168201806040525081019061111391906128de565b10156111725760405162461bcd60e51b815260206004820152602860248201527f496e73756666696369656e7420746f6b656e2062616c616e636520666f72206c604482015267697175696469747960c01b6064820152608401610b85565b60015460085460405163095ea7b360e01b81526001600160a01b0391821660048201526024810185905291169063095ea7b3906044016020604051808303816000875af11580156111c7573d6000803e3d6000fd5b505050506040513d601f19601f820116820180604052508101906111eb919061288d565b50600854600154600354600092839283926001600160a01b039283169263f305d719928892908216918a9182918591166112274261025861294c565b60405160e089901b6001600160e01b03191681526001600160a01b039687166004820152602481019590955260448501939093526064840191909152909216608482015260a481019190915260c40160606040518083038185885af1158015611294573d6000803e3d6000fd5b50505050506040513d601f19601f820116820180604052508101906112b9919061295f565b9250925092506000811161130f5760405162461bcd60e51b815260206004820152601960248201527f4c6971756964697479206164646974696f6e206661696c6564000000000000006044820152606401610b85565b60408051848152602081018490529081018290527fd7f28048575eead8851d024ead087913957dfb4fd1a02b4d1573f5352a5a2be39060600160405180910390a15050601b805460ff1916600117905550611370915050565b611370611e16565b565b61137a612435565b611370600061248f565b6060601980546113939061271d565b80601f01602080910402602001604051908101604052809291908181526020018280546113bf9061271d565b801561140c5780601f106113e15761010080835404028352916020019161140c565b820191906000526020600020905b8154815290600101906020018083116113ef57829003601f168201915b5050505050905090565b6060601a80546113939061271d565b6001546040516370a0823160e01b81523060048201526000916001600160a01b0316906370a0823190602401602060405180830381865afa158015610ef2573d6000803e3d6000fd5b6001546060906001600160a01b03166114995760405162461bcd60e51b8152600401610b85906128af565b600160009054906101000a90046001600160a01b03166001600160a01b03166306fdde036040518163ffffffff1660e01b8152600401600060405180830381865afa92505050801561150d57506040513d6000823e601f3d908101601f1916820160405261150a919081019061298d565b60015b61158c57611519612a0f565b806308c379a003611580575061152d612a2a565b806115385750611582565b60405162461bcd60e51b815260206004820152601860248201527f4572726f722067657474696e6720746f6b656e206e616d6500000000000000006044820152606401610b85565b505b3d6000803e3d6000fd5b919050565b90565b6060601880546113939061271d565b600581815481106115b357600080fd5b6000918252602090912001546001600160a01b0316905081565b6060601180546113939061271d565b6003546001600160a01b031633146116065760405162461bcd60e51b8152600401610b8590612757565b6011610c7482826127cd565b336000908152601560205260409020546116695760405162461bcd60e51b81526020600482015260186024820152774e6f20636f6e747269627574696f6e20746f20636c61696d60401b6044820152606401610b85565b3360008181526015602052604080822054905181156108fc0292818181858888f193505050501580156116a0573d6000803e3d6000fd5b50336000818152601560209081526040808320839055519182527fcea2d90093c266953ae450fdb508a6731b84e3721309933f62e069621d90138c910160405180910390a2565b60118054610bbd9061271d565b60188054610bbd9061271d565b6001546000906001600160a01b031661172c5760405162461bcd60e51b8152600401610b85906128af565b600160009054906101000a90046001600160a01b03166001600160a01b031663313ce5676040518163ffffffff1660e01b8152600401602060405180830381865afa92505050801561179b575060408051601f3d908101601f1916820190925261179891810190612ab4565b60015b61158c576117a7612a0f565b806308c379a00361158057506117bb612a2a565b806117c65750611582565b60405162461bcd60e51b815260206004820152601c60248201527f4572726f722067657474696e6720746f6b656e20646563696d616c73000000006044820152606401610b85565b611816612435565b600880546001600160a01b0319166001600160a01b0392909216919091179055565b6003546001600160a01b031633146118625760405162461bcd60e51b8152600401610b8590612757565b601b5460ff16156118ae5760405162461bcd60e51b815260206004820152601660248201527514d85b1948185b1c9958591e48199a5b985b1a5e995960521b6044820152606401610b85565b6001546040516370a0823160e01b81523060048201526000916001600160a01b0316906370a0823190602401602060405180830381865afa1580156118f7573d6000803e3d6000fd5b505050506040513d601f19601f8201168201806040525081019061191b91906128de565b9050600081116119605760405162461bcd60e51b815260206004820152601060248201526f4e6f20756e736f6c6420746f6b656e7360801b6044820152606401610b85565b60015460035460405163a9059cbb60e01b81526001600160a01b0391821660048201526024810184905291169063a9059cbb906044016020604051808303816000875af11580156119b5573d6000803e3d6000fd5b505050506040513d601f19601f82011682018060405250810190610c74919061288d565b6006546001600160a01b03163314611a035760405162461bcd60e51b8152600401610b8590612757565b6018610c7482826127cd565b60408051818152600a818301526922ba3420b6b7bab73a1d60b11b6060820152346020820181905291517f65bac6982c4d38c5d60d31375a5acc5e2f09ceba4f763127a5a9fb8fbce0a45e9181900360800190a1600a54811015611ab55760405162461bcd60e51b815260206004820152601d60248201527f416d6f756e742062656c6f77206d696e20636f6e747269627574696f6e0000006044820152606401610b85565b600b5433600090815260156020526040902054611ad390839061294c565b1115611b215760405162461bcd60e51b815260206004820152601d60248201527f416d6f756e742061626f7665206d617820636f6e747269627574696f6e0000006044820152606401610b85565b600c54421015611b735760405162461bcd60e51b815260206004820152601860248201527f53616c6520686176656e277420737461727465642079657400000000000000006044820152606401610b85565b600d54421115611bb55760405162461bcd60e51b815260206004820152600d60248201526c14d85b1948199a5b9a5cda1959609a1b6044820152606401610b85565b3360009081526015602052604081208054839290611bd490849061294c565b925050819055508060136000828254611bed919061294c565b925050819055508060106000828254611c06919061294c565b90915550506001546040516370a0823160e01b8152306004820152600091670de0b6b3a7640000916001600160a01b03909116906370a0823190602401602060405180830381865afa158015611c60573d6000803e3d6000fd5b505050506040513d601f19601f82011682018060405250810190611c8491906128de565b611c8e908461290d565b611c98919061292a565b90507f65bac6982c4d38c5d60d31375a5acc5e2f09ceba4f763127a5a9fb8fbce0a45e81604051611cf391906040808252600d908201526c2a37b5b2b71020b6b7bab73a1d60991b6060820152602081019190915260800190565b60405180910390a13360009081526016602052604081208054839290611d1a90849061294c565b90915550611d299050336124df565b611d7057600580546001810182556000919091527f036b6384b5eca791c62761152d0c79bb0604c104a5fb6f4eb0703f3154bb3db00180546001600160a01b031916331790555b60405182815233907f4d154d4aae216bed6d0926db77c00df2b57c6b5ba4eee05775de20facede3a7b9060200160405180910390a25050565b60408051600280825260608083018452926000929190602083019080368337019050509050600a5481600081518110611de457611de4612ad7565b602002602001018181525050600b5481600181518110611e0657611e06612ad7565b6020908102919091010152919050565b6003546001600160a01b0316331480611e3957506006546001600160a01b031633145b611e555760405162461bcd60e51b8152600401610b8590612757565b60005b600554811015611f9457600060058281548110611e7757611e77612ad7565b6000918252602080832091909101546001546001600160a01b03918216808552601590935260409384902054935163a9059cbb60e01b8152600481018490526024810194909452919350169063a9059cbb906044016020604051808303816000875af1158015611eeb573d6000803e3d6000fd5b505050506040513d601f19601f82011682018060405250810190611f0f919061288d565b506001600160a01b0381166000818152601560209081526040918290205491519182527f896e034966eaaf1adc54acc0f257056febbd300c9e47182cf761982cf1f5e430910160405180910390a26001600160a01b03166000908152601560209081526040808320839055601690915281205580611f8c81612aed565b915050611e58565b506040517fe0e133045a83e38ee79d367a84f6cbf75018e4457eccd0336c5b596d620d126d90600090a1565b60408051600280825260608083018452926000929190602083019080368337019050509050600c5481600081518110611ffb57611ffb612ad7565b602002602001018181525050600d5481600181518110611e0657611e06612ad7565b6003546001600160a01b031633146120475760405162461bcd60e51b8152600401610b8590612757565b601b5460ff166120925760405162461bcd60e51b815260206004820152601660248201527514d85b19481b9bdd081e595d08199a5b985b1a5e995960521b6044820152606401610b85565b6001546040516370a0823160e01b81523060048201526000916001600160a01b0316906370a0823190602401602060405180830381865afa1580156120db573d6000803e3d6000fd5b505050506040513d601f19601f820116820180604052508101906120ff91906128de565b9050600081116121475760405162461bcd60e51b81526020600482015260136024820152724e6f2072656d61696e696e6720746f6b656e7360681b6044820152606401610b85565b47806121885760405162461bcd60e51b815260206004820152601060248201526f09cde40e4cadac2d2dcd2dcce408aa8960831b6044820152606401610b85565b60015460035460405163a9059cbb60e01b81526001600160a01b0391821660048201526024810185905291169063a9059cbb906044016020604051808303816000875af11580156121dd573d6000803e3d6000fd5b505050506040513d601f19601f82011682018060405250810190612201919061288d565b506003546040516000916001600160a01b03169083908381818185875af1925050503d806000811461224f576040519150601f19603f3d011682016040523d82523d6000602084013e612254565b606091505b50509050806122a55760405162461bcd60e51b815260206004820152601e60248201527f455448207472616e7366657220746f2063726561746f72206661696c656400006044820152606401610b85565b505050565b6001546060906001600160a01b03166122d55760405162461bcd60e51b8152600401610b85906128af565b600160009054906101000a90046001600160a01b03166001600160a01b03166395d89b416040518163ffffffff1660e01b8152600401600060405180830381865afa92505050801561234957506040513d6000823e601f3d908101601f19168201604052612346919081019061298d565b60015b61158c57612355612a0f565b806308c379a0036115805750612369612a2a565b806123745750611582565b60405162461bcd60e51b815260206004820152601a60248201527f4572726f722067657474696e6720746f6b656e2073796d626f6c0000000000006044820152606401610b85565b6123c4612435565b6001600160a01b0381166124295760405162461bcd60e51b815260206004820152602660248201527f4f776e61626c653a206e6577206f776e657220697320746865207a65726f206160448201526564647265737360d01b6064820152608401610b85565b6124328161248f565b50565b6000546001600160a01b031633146113705760405162461bcd60e51b815260206004820181905260248201527f4f776e61626c653a2063616c6c6572206973206e6f7420746865206f776e65726044820152606401610b85565b600080546001600160a01b038381166001600160a01b0319831681178455604051919092169283917f8be0079c531659141344cd1fd0a4f28419497f9722a3daafe3b4186f6b6457e09190a35050565b6000805b60055481101561253f57826001600160a01b03166005828154811061250a5761250a612ad7565b6000918252602090912001546001600160a01b03160361252d5750600192915050565b8061253781612aed565b9150506124e3565b50600092915050565b60006020828403121561255a57600080fd5b81356001600160a01b038116811461257157600080fd5b9392505050565b60005b8381101561259357818101518382015260200161257b565b50506000910152565b60208152600082518060208401526125bb816040850160208701612578565b601f01601f19169190910160400192915050565b634e487b7160e01b600052604160045260246000fd5b601f8201601f1916810167ffffffffffffffff8111828210171561260b5761260b6125cf565b6040525050565b600067ffffffffffffffff82111561262c5761262c6125cf565b50601f01601f191660200190565b60006020828403121561264c57600080fd5b813567ffffffffffffffff81111561266357600080fd5b8201601f8101841361267457600080fd5b803561267f81612612565b60405161268c82826125e5565b8281528660208486010111156126a157600080fd5b8260208501602083013760009281016020019290925250949350505050565b6000602082840312156126d257600080fd5b5035919050565b6020808252825182820181905260009190848201906040850190845b81811015612711578351835292840192918401916001016126f5565b50909695505050505050565b600181811c9082168061273157607f821691505b60208210810361275157634e487b7160e01b600052602260045260246000fd5b50919050565b6020808252600e908201526d139bdd08185d5d1a1bdc9a5e995960921b604082015260600190565b601f8211156122a557600081815260208120601f850160051c810160208610156127a65750805b601f850160051c820191505b818110156127c5578281556001016127b2565b505050505050565b815167ffffffffffffffff8111156127e7576127e76125cf565b6127fb816127f5845461271d565b8461277f565b602080601f83116001811461283057600084156128185750858301515b600019600386901b1c1916600185901b1785556127c5565b600085815260208120601f198616915b8281101561285f57888601518255948401946001909101908401612840565b508582101561287d5787850151600019600388901b60f8161c191681555b5050505050600190811b01905550565b60006020828403121561289f57600080fd5b8151801515811461257157600080fd5b602080825260159082015274151bdad95b881859191c995cdcc81b9bdd081cd95d605a1b604082015260600190565b6000602082840312156128f057600080fd5b5051919050565b634e487b7160e01b600052601160045260246000fd5b8082028115828204841417612924576129246128f7565b92915050565b60008261294757634e487b7160e01b600052601260045260246000fd5b500490565b80820180821115612924576129246128f7565b60008060006060848603121561297457600080fd5b8351925060208401519150604084015190509250925092565b60006020828403121561299f57600080fd5b815167ffffffffffffffff8111156129b657600080fd5b8201601f810184136129c757600080fd5b80516129d281612612565b6040516129df82826125e5565b8281528660208486010111156129f457600080fd5b612a05836020830160208701612578565b9695505050505050565b600060033d11156115915760046000803e5060005160e01c90565b600060443d1015612a385790565b6040516003193d81016004833e81513d67ffffffffffffffff8160248401118184111715612a6857505050505090565b8285019150815181811115612a805750505050505090565b843d8701016020828501011115612a9a5750505050505090565b612aa9602082860101876125e5565b509095945050505050565b600060208284031215612ac657600080fd5b815160ff8116811461257157600080fd5b634e487b7160e01b600052603260045260246000fd5b600060018201612aff57612aff6128f7565b506001019056fea2646970667358221220a68705c7f83b1f21ab675a7cb246f6e9c1ba28b5dee2873b44e1033381014a3064736f6c63430008120033a2646970667358221220a377895f17ef34f21230aad90e7e9ff27ac13d52aa97db3a687cc6d57c03e1c764736f6c63430008120033",
  "linkReferences": {},
  "deployedLinkReferences": {}
}