{
  "_format": "hh-sol-artifact-1",
  "contractName": "FairLaunch",
  "sourceName": "contracts/Fairlaunch.sol",
  "abi": [
    {
      "inputs": [
        {
          "internalType": "uint256",
          "name": "totalTokensForSale",
          "type": "uint256"
        },
        {
          "internalType": "uint256",
          "name": "SoftCap",
          "type": "uint256"
        },
        {
          "internalType": "uint256[]",
          "name": "_Contributions",
          "type": "uint256[]"
        },
        {
          "internalType": "uint256[]",
          "name": "_Times",
          "type": "uint256[]"
        },
        {
          "internalType": "string",
          "name": "_dataURL",
          "type": "string"
        },
        {
          "internalType": "uint256",
          "name": "_liquidityPercent",
          "type": "uint256"
        },
        {
          "internalType": "uint256",
          "name": "_liquidityLockupTime",
          "type": "uint256"
        },
        {
          "internalType": "address[]",
          "name": "_addr",
          "type": "address[]"
        }
      ],
      "stateMutability": "nonpayable",
      "type": "constructor"
    },
    {
      "anonymous": false,
      "inputs": [
        {
          "indexed": true,
          "internalType": "address",
          "name": "contributor",
          "type": "address"
        },
        {
          "indexed": false,
          "internalType": "uint256",
          "name": "amount",
          "type": "uint256"
        }
      ],
      "name": "BNBRefunded",
      "type": "event"
    },
    {
      "anonymous": false,
      "inputs": [
        {
          "indexed": true,
          "internalType": "address",
          "name": "contributor",
          "type": "address"
        },
        {
          "indexed": false,
          "internalType": "uint256",
          "name": "amount",
          "type": "uint256"
        }
      ],
      "name": "Contribution",
      "type": "event"
    },
    {
      "anonymous": false,
      "inputs": [
        {
          "indexed": false,
          "internalType": "uint256",
          "name": "amountToken",
          "type": "uint256"
        },
        {
          "indexed": false,
          "internalType": "uint256",
          "name": "amountETH",
          "type": "uint256"
        },
        {
          "indexed": false,
          "internalType": "uint256",
          "name": "liquidity",
          "type": "uint256"
        }
      ],
      "name": "LiquidityAdded",
      "type": "event"
    },
    {
      "anonymous": false,
      "inputs": [
        {
          "indexed": false,
          "internalType": "string",
          "name": "message",
          "type": "string"
        },
        {
          "indexed": false,
          "internalType": "uint256",
          "name": "value",
          "type": "uint256"
        }
      ],
      "name": "LogDebug",
      "type": "event"
    },
    {
      "anonymous": false,
      "inputs": [
        {
          "indexed": true,
          "internalType": "address",
          "name": "previousOwner",
          "type": "address"
        },
        {
          "indexed": true,
          "internalType": "address",
          "name": "newOwner",
          "type": "address"
        }
      ],
      "name": "OwnershipTransferred",
      "type": "event"
    },
    {
      "anonymous": false,
      "inputs": [],
      "name": "SaleCancelled",
      "type": "event"
    },
    {
      "anonymous": false,
      "inputs": [
        {
          "indexed": false,
          "internalType": "uint256",
          "name": "totalContributions",
          "type": "uint256"
        }
      ],
      "name": "SaleCompleted",
      "type": "event"
    },
    {
      "anonymous": false,
      "inputs": [
        {
          "indexed": false,
          "internalType": "bool",
          "name": "success",
          "type": "bool"
        },
        {
          "indexed": false,
          "internalType": "uint256",
          "name": "totalContributions",
          "type": "uint256"
        }
      ],
      "name": "SaleFinalized",
      "type": "event"
    },
    {
      "anonymous": false,
      "inputs": [
        {
          "indexed": true,
          "internalType": "address",
          "name": "contributor",
          "type": "address"
        },
        {
          "indexed": false,
          "internalType": "uint256",
          "name": "amount",
          "type": "uint256"
        }
      ],
      "name": "TokensClaimed",
      "type": "event"
    },
    {
      "inputs": [],
      "name": "UniswapV2Factory",
      "outputs": [
        {
          "internalType": "contract IUniswapV2Factory",
          "name": "",
          "type": "address"
        }
      ],
      "stateMutability": "view",
      "type": "function"
    },
    {
      "inputs": [],
      "name": "UniswapV2Router02",
      "outputs": [
        {
          "internalType": "contract IUniswapV2Router02",
          "name": "",
          "type": "address"
        }
      ],
      "stateMutability": "view",
      "type": "function"
    },
    {
      "inputs": [],
      "name": "admin",
      "outputs": [
        {
          "internalType": "address",
          "name": "",
          "type": "address"
        }
      ],
      "stateMutability": "view",
      "type": "function"
    },
    {
      "inputs": [],
      "name": "adminAddress",
      "outputs": [
        {
          "internalType": "address",
          "name": "",
          "type": "address"
        }
      ],
      "stateMutability": "view",
      "type": "function"
    },
    {
      "inputs": [],
      "name": "auditLink",
      "outputs": [
        {
          "internalType": "string",
          "name": "",
          "type": "string"
        }
      ],
      "stateMutability": "view",
      "type": "function"
    },
    {
      "inputs": [],
      "name": "cancelSale",
      "outputs": [],
      "stateMutability": "nonpayable",
      "type": "function"
    },
    {
      "inputs": [
        {
          "internalType": "string",
          "name": "_newDataURL",
          "type": "string"
        }
      ],
      "name": "changeDataURL",
      "outputs": [],
      "stateMutability": "nonpayable",
      "type": "function"
    },
    {
      "inputs": [],
      "name": "claimRefund",
      "outputs": [],
      "stateMutability": "nonpayable",
      "type": "function"
    },
    {
      "inputs": [],
      "name": "claimTokens",
      "outputs": [],
      "stateMutability": "nonpayable",
      "type": "function"
    },
    {
      "inputs": [],
      "name": "contribute",
      "outputs": [],
      "stateMutability": "payable",
      "type": "function"
    },
    {
      "inputs": [
        {
          "internalType": "address",
          "name": "",
          "type": "address"
        }
      ],
      "name": "contributions",
      "outputs": [
        {
          "internalType": "uint256",
          "name": "",
          "type": "uint256"
        }
      ],
      "stateMutability": "view",
      "type": "function"
    },
    {
      "inputs": [
        {
          "internalType": "uint256",
          "name": "",
          "type": "uint256"
        }
      ],
      "name": "contributorAddresses",
      "outputs": [
        {
          "internalType": "address",
          "name": "",
          "type": "address"
        }
      ],
      "stateMutability": "view",
      "type": "function"
    },
    {
      "inputs": [],
      "name": "creator",
      "outputs": [
        {
          "internalType": "address",
          "name": "",
          "type": "address"
        }
      ],
      "stateMutability": "view",
      "type": "function"
    },
    {
      "inputs": [],
      "name": "dataURL",
      "outputs": [
        {
          "internalType": "string",
          "name": "",
          "type": "string"
        }
      ],
      "stateMutability": "view",
      "type": "function"
    },
    {
      "inputs": [],
      "name": "endTime",
      "outputs": [
        {
          "internalType": "uint256",
          "name": "",
          "type": "uint256"
        }
      ],
      "stateMutability": "view",
      "type": "function"
    },
    {
      "inputs": [],
      "name": "finalizeSale",
      "outputs": [],
      "stateMutability": "nonpayable",
      "type": "function"
    },
    {
      "inputs": [],
      "name": "getAdmin",
      "outputs": [
        {
          "internalType": "address",
          "name": "",
          "type": "address"
        }
      ],
      "stateMutability": "view",
      "type": "function"
    },
    {
      "inputs": [],
      "name": "getAuditLink",
      "outputs": [
        {
          "internalType": "string",
          "name": "",
          "type": "string"
        }
      ],
      "stateMutability": "view",
      "type": "function"
    },
    {
      "inputs": [],
      "name": "getContributions",
      "outputs": [
        {
          "internalType": "uint256[]",
          "name": "",
          "type": "uint256[]"
        }
      ],
      "stateMutability": "view",
      "type": "function"
    },
    {
      "inputs": [],
      "name": "getCreator",
      "outputs": [
        {
          "internalType": "address",
          "name": "",
          "type": "address"
        }
      ],
      "stateMutability": "view",
      "type": "function"
    },
    {
      "inputs": [],
      "name": "getDataURL",
      "outputs": [
        {
          "internalType": "string",
          "name": "",
          "type": "string"
        }
      ],
      "stateMutability": "view",
      "type": "function"
    },
    {
      "inputs": [],
      "name": "getEtherBalance",
      "outputs": [
        {
          "internalType": "uint256",
          "name": "",
          "type": "uint256"
        }
      ],
      "stateMutability": "view",
      "type": "function"
    },
    {
      "inputs": [],
      "name": "getKYCLink",
      "outputs": [
        {
          "internalType": "string",
          "name": "",
          "type": "string"
        }
      ],
      "stateMutability": "view",
      "type": "function"
    },
    {
      "inputs": [],
      "name": "getLiquidityLockupTime",
      "outputs": [
        {
          "internalType": "uint256",
          "name": "",
          "type": "uint256"
        }
      ],
      "stateMutability": "view",
      "type": "function"
    },
    {
      "inputs": [],
      "name": "getLiquidityPercent",
      "outputs": [
        {
          "internalType": "uint256",
          "name": "",
          "type": "uint256"
        }
      ],
      "stateMutability": "view",
      "type": "function"
    },
    {
      "inputs": [],
      "name": "getNumberOfParticipants",
      "outputs": [
        {
          "internalType": "uint256",
          "name": "",
          "type": "uint256"
        }
      ],
      "stateMutability": "view",
      "type": "function"
    },
    {
      "inputs": [
        {
          "internalType": "address",
          "name": "_participant",
          "type": "address"
        }
      ],
      "name": "getParticipantInfo",
      "outputs": [
        {
          "internalType": "uint256",
          "name": "contributionAmount",
          "type": "uint256"
        },
        {
          "internalType": "uint256",
          "name": "claimableTokens",
          "type": "uint256"
        }
      ],
      "stateMutability": "view",
      "type": "function"
    },
    {
      "inputs": [],
      "name": "getRouter",
      "outputs": [
        {
          "internalType": "address",
          "name": "",
          "type": "address"
        }
      ],
      "stateMutability": "view",
      "type": "function"
    },
    {
      "inputs": [],
      "name": "getSAFULink",
      "outputs": [
        {
          "internalType": "string",
          "name": "",
          "type": "string"
        }
      ],
      "stateMutability": "view",
      "type": "function"
    },
    {
      "inputs": [],
      "name": "getSoftCap",
      "outputs": [
        {
          "internalType": "uint256",
          "name": "",
          "type": "uint256"
        }
      ],
      "stateMutability": "view",
      "type": "function"
    },
    {
      "inputs": [],
      "name": "getTimes",
      "outputs": [
        {
          "internalType": "uint256[]",
          "name": "",
          "type": "uint256[]"
        }
      ],
      "stateMutability": "view",
      "type": "function"
    },
    {
      "inputs": [],
      "name": "getTokenAddress",
      "outputs": [
        {
          "internalType": "address",
          "name": "",
          "type": "address"
        }
      ],
      "stateMutability": "view",
      "type": "function"
    },
    {
      "inputs": [],
      "name": "getTokenBalance",
      "outputs": [
        {
          "internalType": "uint256",
          "name": "",
          "type": "uint256"
        }
      ],
      "stateMutability": "view",
      "type": "function"
    },
    {
      "inputs": [],
      "name": "getTokenDecimal",
      "outputs": [
        {
          "internalType": "uint8",
          "name": "",
          "type": "uint8"
        }
      ],
      "stateMutability": "view",
      "type": "function"
    },
    {
      "inputs": [],
      "name": "getTokenForSale",
      "outputs": [
        {
          "internalType": "uint256",
          "name": "",
          "type": "uint256"
        }
      ],
      "stateMutability": "view",
      "type": "function"
    },
    {
      "inputs": [],
      "name": "getTokenName",
      "outputs": [
        {
          "internalType": "string",
          "name": "",
          "type": "string"
        }
      ],
      "stateMutability": "view",
      "type": "function"
    },
    {
      "inputs": [],
      "name": "getTokenSymbol",
      "outputs": [
        {
          "internalType": "string",
          "name": "",
          "type": "string"
        }
      ],
      "stateMutability": "view",
      "type": "function"
    },
    {
      "inputs": [],
      "name": "getTokenTotalSupply",
      "outputs": [
        {
          "internalType": "uint256",
          "name": "",
          "type": "uint256"
        }
      ],
      "stateMutability": "view",
      "type": "function"
    },
    {
      "inputs": [],
      "name": "getTotalBNBContributed",
      "outputs": [
        {
          "internalType": "uint256",
          "name": "",
          "type": "uint256"
        }
      ],
      "stateMutability": "view",
      "type": "function"
    },
    {
      "inputs": [],
      "name": "getTotalContributions",
      "outputs": [
        {
          "internalType": "uint256",
          "name": "",
          "type": "uint256"
        }
      ],
      "stateMutability": "view",
      "type": "function"
    },
    {
      "inputs": [
        {
          "internalType": "address",
          "name": "",
          "type": "address"
        }
      ],
      "name": "isFairLaunch",
      "outputs": [
        {
          "internalType": "bool",
          "name": "",
          "type": "bool"
        }
      ],
      "stateMutability": "view",
      "type": "function"
    },
    {
      "inputs": [],
      "name": "kycLink",
      "outputs": [
        {
          "internalType": "string",
          "name": "",
          "type": "string"
        }
      ],
      "stateMutability": "view",
      "type": "function"
    },
    {
      "inputs": [],
      "name": "liquidityLockupTime",
      "outputs": [
        {
          "internalType": "uint256",
          "name": "",
          "type": "uint256"
        }
      ],
      "stateMutability": "view",
      "type": "function"
    },
    {
      "inputs": [],
      "name": "liquidityPercent",
      "outputs": [
        {
          "internalType": "uint256",
          "name": "",
          "type": "uint256"
        }
      ],
      "stateMutability": "view",
      "type": "function"
    },
    {
      "inputs": [],
      "name": "maxContribution",
      "outputs": [
        {
          "internalType": "uint256",
          "name": "",
          "type": "uint256"
        }
      ],
      "stateMutability": "view",
      "type": "function"
    },
    {
      "inputs": [],
      "name": "minContribution",
      "outputs": [
        {
          "internalType": "uint256",
          "name": "",
          "type": "uint256"
        }
      ],
      "stateMutability": "view",
      "type": "function"
    },
    {
      "inputs": [],
      "name": "owner",
      "outputs": [
        {
          "internalType": "address",
          "name": "",
          "type": "address"
        }
      ],
      "stateMutability": "view",
      "type": "function"
    },
    {
      "inputs": [],
      "name": "renounceOwnership",
      "outputs": [],
      "stateMutability": "nonpayable",
      "type": "function"
    },
    {
      "inputs": [],
      "name": "safuLink",
      "outputs": [
        {
          "internalType": "string",
          "name": "",
          "type": "string"
        }
      ],
      "stateMutability": "view",
      "type": "function"
    },
    {
      "inputs": [],
      "name": "saleFinalized",
      "outputs": [
        {
          "internalType": "bool",
          "name": "",
          "type": "bool"
        }
      ],
      "stateMutability": "view",
      "type": "function"
    },
    {
      "inputs": [
        {
          "internalType": "string",
          "name": "_auditLink",
          "type": "string"
        }
      ],
      "name": "setAuditLink",
      "outputs": [],
      "stateMutability": "nonpayable",
      "type": "function"
    },
    {
      "inputs": [
        {
          "internalType": "string",
          "name": "_dataURL",
          "type": "string"
        }
      ],
      "name": "setDataURL",
      "outputs": [],
      "stateMutability": "nonpayable",
      "type": "function"
    },
    {
      "inputs": [
        {
          "internalType": "string",
          "name": "_kycLink",
          "type": "string"
        }
      ],
      "name": "setKYCLink",
      "outputs": [],
      "stateMutability": "nonpayable",
      "type": "function"
    },
    {
      "inputs": [
        {
          "internalType": "string",
          "name": "_safuLink",
          "type": "string"
        }
      ],
      "name": "setSAFULink",
      "outputs": [],
      "stateMutability": "nonpayable",
      "type": "function"
    },
    {
      "inputs": [
        {
          "internalType": "address",
          "name": "_tokenAddress",
          "type": "address"
        }
      ],
      "name": "setToken",
      "outputs": [],
      "stateMutability": "nonpayable",
      "type": "function"
    },
    {
      "inputs": [
        {
          "internalType": "address",
          "name": "_router",
          "type": "address"
        }
      ],
      "name": "setUniswapRouter",
      "outputs": [],
      "stateMutability": "nonpayable",
      "type": "function"
    },
    {
      "inputs": [],
      "name": "softCap",
      "outputs": [
        {
          "internalType": "uint256",
          "name": "",
          "type": "uint256"
        }
      ],
      "stateMutability": "view",
      "type": "function"
    },
    {
      "inputs": [],
      "name": "startTime",
      "outputs": [
        {
          "internalType": "uint256",
          "name": "",
          "type": "uint256"
        }
      ],
      "stateMutability": "view",
      "type": "function"
    },
    {
      "inputs": [],
      "name": "token",
      "outputs": [
        {
          "internalType": "contract IERC20",
          "name": "",
          "type": "address"
        }
      ],
      "stateMutability": "view",
      "type": "function"
    },
    {
      "inputs": [],
      "name": "tokenAddress",
      "outputs": [
        {
          "internalType": "address",
          "name": "",
          "type": "address"
        }
      ],
      "stateMutability": "view",
      "type": "function"
    },
    {
      "inputs": [],
      "name": "tokenBalance",
      "outputs": [
        {
          "internalType": "uint256",
          "name": "",
          "type": "uint256"
        }
      ],
      "stateMutability": "view",
      "type": "function"
    },
    {
      "inputs": [
        {
          "internalType": "address",
          "name": "",
          "type": "address"
        }
      ],
      "name": "tokenBalances",
      "outputs": [
        {
          "internalType": "uint256",
          "name": "",
          "type": "uint256"
        }
      ],
      "stateMutability": "view",
      "type": "function"
    },
    {
      "inputs": [],
      "name": "totalBNBContributed",
      "outputs": [
        {
          "internalType": "uint256",
          "name": "",
          "type": "uint256"
        }
      ],
      "stateMutability": "view",
      "type": "function"
    },
    {
      "inputs": [],
      "name": "totalContributions",
      "outputs": [
        {
          "internalType": "uint256",
          "name": "",
          "type": "uint256"
        }
      ],
      "stateMutability": "view",
      "type": "function"
    },
    {
      "inputs": [],
      "name": "totalTokensNeeded",
      "outputs": [
        {
          "internalType": "uint256",
          "name": "",
          "type": "uint256"
        }
      ],
      "stateMutability": "view",
      "type": "function"
    },
    {
      "inputs": [
        {
          "internalType": "address",
          "name": "newOwner",
          "type": "address"
        }
      ],
      "name": "transferOwnership",
      "outputs": [],
      "stateMutability": "nonpayable",
      "type": "function"
    },
    {
      "inputs": [],
      "name": "withdrawRemaining",
      "outputs": [],
      "stateMutability": "nonpayable",
      "type": "function"
    },
    {
      "inputs": [],
      "name": "withdrawUnsoldTokens",
      "outputs": [],
      "stateMutability": "nonpayable",
      "type": "function"
    }
  ],
  "bytecode": "0x60806040523480156200001157600080fd5b50604051620031d8380380620031d883398101604081905262000034916200043a565b6200003f3362000202565b855186906000906200005557620000556200051b565b6020026020010151600a81905550856001815181106200007957620000796200051b565b6020026020010151600b81905550846000815181106200009d576200009d6200051b565b6020026020010151600c8190555084600181518110620000c157620000c16200051b565b6020908102919091010151600d55600e839055600f82905580518190600090620000ef57620000ef6200051b565b6020026020010151600860006101000a8154816001600160a01b0302191690836001600160a01b03160217905550806001815181106200013357620001336200051b565b6020026020010151600660006101000a8154816001600160a01b0302191690836001600160a01b03160217905550806002815181106200017757620001776200051b565b6020026020010151600260006101000a8154816001600160a01b0302191690836001600160a01b0316021790555080600381518110620001bb57620001bb6200051b565b6020908102919091010151600380546001600160a01b0319166001600160a01b039092169190911790556011620001f38582620005c0565b5050505050505050506200068c565b600080546001600160a01b038381166001600160a01b0319831681178455604051919092169283917f8be0079c531659141344cd1fd0a4f28419497f9722a3daafe3b4186f6b6457e09190a35050565b634e487b7160e01b600052604160045260246000fd5b604051601f8201601f191681016001600160401b038111828210171562000293576200029362000252565b604052919050565b60006001600160401b03821115620002b757620002b762000252565b5060051b60200190565b600082601f830112620002d357600080fd5b81516020620002ec620002e6836200029b565b62000268565b82815260059290921b840181019181810190868411156200030c57600080fd5b8286015b8481101562000329578051835291830191830162000310565b509695505050505050565b600082601f8301126200034657600080fd5b81516001600160401b0381111562000362576200036262000252565b602062000378601f8301601f1916820162000268565b82815285828487010111156200038d57600080fd5b60005b83811015620003ad57858101830151828201840152820162000390565b506000928101909101919091529392505050565b600082601f830112620003d357600080fd5b81516020620003e6620002e6836200029b565b82815260059290921b840181019181810190868411156200040657600080fd5b8286015b84811015620003295780516001600160a01b03811681146200042c5760008081fd5b83529183019183016200040a565b600080600080600080600080610100898b0312156200045857600080fd5b885160208a015160408b015191995097506001600160401b03808211156200047f57600080fd5b6200048d8c838d01620002c1565b975060608b0151915080821115620004a457600080fd5b620004b28c838d01620002c1565b965060808b0151915080821115620004c957600080fd5b620004d78c838d0162000334565b955060a08b0151945060c08b0151935060e08b0151915080821115620004fc57600080fd5b506200050b8b828c01620003c1565b9150509295985092959890939650565b634e487b7160e01b600052603260045260246000fd5b600181811c908216806200054657607f821691505b6020821081036200056757634e487b7160e01b600052602260045260246000fd5b50919050565b601f821115620005bb57600081815260208120601f850160051c81016020861015620005965750805b601f850160051c820191505b81811015620005b757828155600101620005a2565b5050505b505050565b81516001600160401b03811115620005dc57620005dc62000252565b620005f481620005ed845462000531565b846200056d565b602080601f8311600181146200062c5760008415620006135750858301515b600019600386901b1c1916600185901b178555620005b7565b600085815260208120601f198616915b828110156200065d578886015182559484019460019091019084016200063c565b50858210156200067c5787850151600019600388901b60f8161c191681555b5050505050600190811b01905550565b612b3c806200069c6000396000f3fe6080604052600436106103ef5760003560e01c80639d76ea5811610208578063c80c28a211610118578063ea46193e116100ab578063f851a4401161007a578063f851a44014610a82578063fb3de3c014610aa2578063fbda632214610ab8578063fc0c546a14610ae8578063fc6f946814610b0857600080fd5b8063ea46193e14610a25578063ee38db9514610a38578063f1850af814610a4d578063f2fde38b14610a6257600080fd5b8063dda0a81a116100e7578063dda0a81a146109c4578063ddf556d0146109e6578063e7e10490146109fb578063e9ab77e514610a1057600080fd5b8063c80c28a214610972578063c8bdbfb614610987578063d51779201461099c578063d7bb99ba146109bc57600080fd5b8063b4a344941161019b578063bba8bd201161016a578063bba8bd2014610900578063bdd06a0a14610916578063bddb971b1461092b578063bea9849e14610952578063beb2a37c1461070e57600080fd5b8063b4a34494146108c1578063b5545a3c146108d6578063b6c0406d14610818578063b9dc4ab2146108eb57600080fd5b8063aaffadf3116101d7578063aaffadf314610862578063ae9763a514610878578063b06837551461088d578063b0f479a1146108a357600080fd5b80639d76ea58146107e25780639e1a4d1914610802578063a296d67d14610818578063a5f0dea21461083857600080fd5b80636e9960c31161030357806382b2e257116102965780638da5cb5b116102655780638da5cb5b146107635780638dd0855714610781578063906a26e0146107a157806393632ddd146107b7578063987e5f58146107cd57600080fd5b806382b2e2571461070e578063862b092b14610723578063892ec554146107385780638d3d65761461074d57600080fd5b806375d35b62116102d257806375d35b62146106ae57806378cc70b2146106c357806378e97925146106e35780637a127d55146106f957600080fd5b80636e9960c31461060e578063715018a61461062c57806371bdce551461064157806372d41f701461069957600080fd5b806342e94c90116103865780634d68ceb9116103555780634d68ceb914610582578063523fba7f1461059757806355cb2666146105c457806357df844b146105e457806358a687ec146105f957600080fd5b806342e94c901461050b57806348c54b9d146105385780634a68ae941461054d5780634d52a5121461056d57600080fd5b80633197cbb6116103c25780633197cbb61461048f57806331d7c4fb146104b357806333dbef9f146104d557806337c08923146104f557600080fd5b806302d05d3f146103f45780630ee2cb101461043157806310fe9ae81461044f578063144fa6d71461046d575b600080fd5b34801561040057600080fd5b50600354610414906001600160a01b031681565b6040516001600160a01b0390911681526020015b60405180910390f35b34801561043d57600080fd5b506003546001600160a01b0316610414565b34801561045b57600080fd5b506001546001600160a01b0316610414565b34801561047957600080fd5b5061048d610488366004612548565b610b28565b005b34801561049b57600080fd5b506104a5600d5481565b604051908152602001610428565b3480156104bf57600080fd5b506104c8610bb0565b604051610428919061259c565b3480156104e157600080fd5b5061048d6104f036600461263a565b610c3e565b34801561050157600080fd5b506104a560135481565b34801561051757600080fd5b506104a5610526366004612548565b60156020526000908152604090205481565b34801561054457600080fd5b5061048d610c78565b34801561055957600080fd5b5061048d61056836600461263a565b610e31565b34801561057957600080fd5b506009546104a5565b34801561058e57600080fd5b506104c8610e67565b3480156105a357600080fd5b506104a56105b2366004612548565b60166020526000908152604090205481565b3480156105d057600080fd5b50600854610414906001600160a01b031681565b3480156105f057600080fd5b506104a5610e74565b34801561060557600080fd5b5061048d610f1b565b34801561061a57600080fd5b506004546001600160a01b0316610414565b34801561063857600080fd5b5061048d611372565b34801561064d57600080fd5b5061068461065c366004612548565b6001600160a01b03166000908152601560209081526040808320546016909252909120549091565b60408051928352602083019190915201610428565b3480156106a557600080fd5b506104c8611384565b3480156106ba57600080fd5b50600f546104a5565b3480156106cf57600080fd5b50600754610414906001600160a01b031681565b3480156106ef57600080fd5b506104a5600c5481565b34801561070557600080fd5b506104c8611416565b34801561071a57600080fd5b506104a5611425565b34801561072f57600080fd5b506104c861146e565b34801561074457600080fd5b506104c8611594565b34801561075957600080fd5b506104a5600b5481565b34801561076f57600080fd5b506000546001600160a01b0316610414565b34801561078d57600080fd5b5061041461079c3660046126c0565b6115a3565b3480156107ad57600080fd5b506104a560095481565b3480156107c357600080fd5b506104a560105481565b3480156107d957600080fd5b506104c86115cd565b3480156107ee57600080fd5b50600254610414906001600160a01b031681565b34801561080e57600080fd5b506104a560125481565b34801561082457600080fd5b5061048d61083336600461263a565b6115dc565b34801561084457600080fd5b50601b546108529060ff1681565b6040519015158152602001610428565b34801561086e57600080fd5b506104a5600a5481565b34801561088457600080fd5b506010546104a5565b34801561089957600080fd5b506104a5600e5481565b3480156108af57600080fd5b506008546001600160a01b0316610414565b3480156108cd57600080fd5b50600e546104a5565b3480156108e257600080fd5b5061048d611612565b3480156108f757600080fd5b506104c86116e7565b34801561090c57600080fd5b506104a560145481565b34801561092257600080fd5b506104c86116f4565b34801561093757600080fd5b50610940611701565b60405160ff9091168152602001610428565b34801561095e57600080fd5b5061048d61096d366004612548565b61180e565b34801561097e57600080fd5b506005546104a5565b34801561099357600080fd5b5061048d611838565b3480156109a857600080fd5b5061048d6109b736600461263a565b6119d9565b61048d611a0f565b3480156109d057600080fd5b506109d9611da9565b60405161042891906126d9565b3480156109f257600080fd5b506013546104a5565b348015610a0757600080fd5b5061048d611e16565b348015610a1c57600080fd5b506109d9611fc0565b348015610a3157600080fd5b50476104a5565b348015610a4457600080fd5b5061048d61201d565b348015610a5957600080fd5b506104c86122aa565b348015610a6e57600080fd5b5061048d610a7d366004612548565b6123bc565b348015610a8e57600080fd5b50600454610414906001600160a01b031681565b348015610aae57600080fd5b506104a5600f5481565b348015610ac457600080fd5b50610852610ad3366004612548565b60176020526000908152604090205460ff1681565b348015610af457600080fd5b50600154610414906001600160a01b031681565b348015610b1457600080fd5b50600654610414906001600160a01b031681565b610b30612435565b6001546001600160a01b031615610b8e5760405162461bcd60e51b815260206004820152601960248201527f546f6b656e206164647265737320616c7265616479207365740000000000000060448201526064015b60405180910390fd5b600180546001600160a01b0319166001600160a01b0392909216919091179055565b601a8054610bbd9061271d565b80601f0160208091040260200160405190810160405280929190818152602001828054610be99061271d565b8015610c365780601f10610c0b57610100808354040283529160200191610c36565b820191906000526020600020905b815481529060010190602001808311610c1957829003601f168201915b505050505081565b6006546001600160a01b03163314610c685760405162461bcd60e51b8152600401610b8590612757565b601a610c7482826127cd565b5050565b601b5460ff16610cc35760405162461bcd60e51b815260206004820152601660248201527514d85b19481b9bdd081e595d08199a5b985b1a5e995960521b6044820152606401610b85565b33600090815260156020526040902054610d1a5760405162461bcd60e51b81526020600482015260186024820152774e6f20636f6e747269627574696f6e20746f20636c61696d60401b6044820152606401610b85565b3360009081526016602052604090205480610d6c5760405162461bcd60e51b81526020600482015260126024820152714e6f20746f6b656e7320746f20636c61696d60701b6044820152606401610b85565b60015460405163a9059cbb60e01b8152336004820152602481018390526001600160a01b039091169063a9059cbb906044016020604051808303816000875af1158015610dbd573d6000803e3d6000fd5b505050506040513d601f19601f82011682018060405250810190610de1919061288d565b503360008181526016602052604080822091909155517f896e034966eaaf1adc54acc0f257056febbd300c9e47182cf761982cf1f5e43090610e269084815260200190565b60405180910390a250565b6006546001600160a01b03163314610e5b5760405162461bcd60e51b8152600401610b8590612757565b6019610c7482826127cd565b60198054610bbd9061271d565b6001546000906001600160a01b0316610e9f5760405162461bcd60e51b8152600401610b85906128af565b600160009054906101000a90046001600160a01b03166001600160a01b03166318160ddd6040518163ffffffff1660e01b8152600401602060405180830381865afa158015610ef2573d6000803e3d6000fd5b505050506040513d601f19601f82011682018060405250810190610f1691906128de565b905090565b6003546001600160a01b03163314610f455760405162461bcd60e51b8152600401610b8590612757565b600d54421015610f8e5760405162461bcd60e51b815260206004820152601460248201527353616c65206973207374696c6c2061637469766560601b6044820152606401610b85565b601b5460ff1615610fda5760405162461bcd60e51b815260206004820152601660248201527514d85b1948185b1c9958591e48199a5b985b1a5e995960521b6044820152606401610b85565b6009546013541061136857600e546001546040516370a0823160e01b8152306004820152600092670de0b6b3a7640000926064926001600160a01b03909116906370a0823190602401602060405180830381865afa158015611040573d6000803e3d6000fd5b505050506040513d601f19601f8201168201806040525081019061106491906128de565b61106e919061290d565b611078919061292a565b611082919061292a565b905060006064600e54601054611098919061290d565b6110a2919061292a565b6001546040516370a0823160e01b815230600482015291925083916001600160a01b03909116906370a0823190602401602060405180830381865afa1580156110ef573d6000803e3d6000fd5b505050506040513d601f19601f8201168201806040525081019061111391906128de565b10156111725760405162461bcd60e51b815260206004820152602860248201527f496e73756666696369656e7420746f6b656e2062616c616e636520666f72206c604482015267697175696469747960c01b6064820152608401610b85565b60015460085460405163095ea7b360e01b81526001600160a01b0391821660048201526024810185905291169063095ea7b3906044016020604051808303816000875af11580156111c7573d6000803e3d6000fd5b505050506040513d601f19601f820116820180604052508101906111eb919061288d565b50600854600154600354600092839283926001600160a01b039283169263f305d719928892908216918a9182918591166112274261025861294c565b60405160e089901b6001600160e01b03191681526001600160a01b039687166004820152602481019590955260448501939093526064840191909152909216608482015260a481019190915260c40160606040518083038185885af1158015611294573d6000803e3d6000fd5b50505050506040513d601f19601f820116820180604052508101906112b9919061295f565b9250925092506000811161130f5760405162461bcd60e51b815260206004820152601960248201527f4c6971756964697479206164646974696f6e206661696c6564000000000000006044820152606401610b85565b60408051848152602081018490529081018290527fd7f28048575eead8851d024ead087913957dfb4fd1a02b4d1573f5352a5a2be39060600160405180910390a15050601b805460ff1916600117905550611370915050565b611370611e16565b565b61137a612435565b611370600061248f565b6060601980546113939061271d565b80601f01602080910402602001604051908101604052809291908181526020018280546113bf9061271d565b801561140c5780601f106113e15761010080835404028352916020019161140c565b820191906000526020600020905b8154815290600101906020018083116113ef57829003601f168201915b5050505050905090565b6060601a80546113939061271d565b6001546040516370a0823160e01b81523060048201526000916001600160a01b0316906370a0823190602401602060405180830381865afa158015610ef2573d6000803e3d6000fd5b6001546060906001600160a01b03166114995760405162461bcd60e51b8152600401610b85906128af565b600160009054906101000a90046001600160a01b03166001600160a01b03166306fdde036040518163ffffffff1660e01b8152600401600060405180830381865afa92505050801561150d57506040513d6000823e601f3d908101601f1916820160405261150a919081019061298d565b60015b61158c57611519612a0f565b806308c379a003611580575061152d612a2a565b806115385750611582565b60405162461bcd60e51b815260206004820152601860248201527f4572726f722067657474696e6720746f6b656e206e616d6500000000000000006044820152606401610b85565b505b3d6000803e3d6000fd5b919050565b90565b6060601880546113939061271d565b600581815481106115b357600080fd5b6000918252602090912001546001600160a01b0316905081565b6060601180546113939061271d565b6003546001600160a01b031633146116065760405162461bcd60e51b8152600401610b8590612757565b6011610c7482826127cd565b336000908152601560205260409020546116695760405162461bcd60e51b81526020600482015260186024820152774e6f20636f6e747269627574696f6e20746f20636c61696d60401b6044820152606401610b85565b3360008181526015602052604080822054905181156108fc0292818181858888f193505050501580156116a0573d6000803e3d6000fd5b50336000818152601560209081526040808320839055519182527fcea2d90093c266953ae450fdb508a6731b84e3721309933f62e069621d90138c910160405180910390a2565b60118054610bbd9061271d565b60188054610bbd9061271d565b6001546000906001600160a01b031661172c5760405162461bcd60e51b8152600401610b85906128af565b600160009054906101000a90046001600160a01b03166001600160a01b031663313ce5676040518163ffffffff1660e01b8152600401602060405180830381865afa92505050801561179b575060408051601f3d908101601f1916820190925261179891810190612ab4565b60015b61158c576117a7612a0f565b806308c379a00361158057506117bb612a2a565b806117c65750611582565b60405162461bcd60e51b815260206004820152601c60248201527f4572726f722067657474696e6720746f6b656e20646563696d616c73000000006044820152606401610b85565b611816612435565b600880546001600160a01b0319166001600160a01b0392909216919091179055565b6003546001600160a01b031633146118625760405162461bcd60e51b8152600401610b8590612757565b601b5460ff16156118ae5760405162461bcd60e51b815260206004820152601660248201527514d85b1948185b1c9958591e48199a5b985b1a5e995960521b6044820152606401610b85565b6001546040516370a0823160e01b81523060048201526000916001600160a01b0316906370a0823190602401602060405180830381865afa1580156118f7573d6000803e3d6000fd5b505050506040513d601f19601f8201168201806040525081019061191b91906128de565b9050600081116119605760405162461bcd60e51b815260206004820152601060248201526f4e6f20756e736f6c6420746f6b656e7360801b6044820152606401610b85565b60015460035460405163a9059cbb60e01b81526001600160a01b0391821660048201526024810184905291169063a9059cbb906044016020604051808303816000875af11580156119b5573d6000803e3d6000fd5b505050506040513d601f19601f82011682018060405250810190610c74919061288d565b6006546001600160a01b03163314611a035760405162461bcd60e51b8152600401610b8590612757565b6018610c7482826127cd565b60408051818152600a818301526922ba3420b6b7bab73a1d60b11b6060820152346020820181905291517f65bac6982c4d38c5d60d31375a5acc5e2f09ceba4f763127a5a9fb8fbce0a45e9181900360800190a1600a54811015611ab55760405162461bcd60e51b815260206004820152601d60248201527f416d6f756e742062656c6f77206d696e20636f6e747269627574696f6e0000006044820152606401610b85565b600b5433600090815260156020526040902054611ad390839061294c565b1115611b215760405162461bcd60e51b815260206004820152601d60248201527f416d6f756e742061626f7665206d617820636f6e747269627574696f6e0000006044820152606401610b85565b600c54421015611b735760405162461bcd60e51b815260206004820152601860248201527f53616c6520686176656e277420737461727465642079657400000000000000006044820152606401610b85565b600d54421115611bb55760405162461bcd60e51b815260206004820152600d60248201526c14d85b1948199a5b9a5cda1959609a1b6044820152606401610b85565b3360009081526015602052604081208054839290611bd490849061294c565b925050819055508060136000828254611bed919061294c565b925050819055508060106000828254611c06919061294c565b90915550506001546040516370a0823160e01b8152306004820152600091670de0b6b3a7640000916001600160a01b03909116906370a0823190602401602060405180830381865afa158015611c60573d6000803e3d6000fd5b505050506040513d601f19601f82011682018060405250810190611c8491906128de565b611c8e908461290d565b611c98919061292a565b90507f65bac6982c4d38c5d60d31375a5acc5e2f09ceba4f763127a5a9fb8fbce0a45e81604051611cf391906040808252600d908201526c2a37b5b2b71020b6b7bab73a1d60991b6060820152602081019190915260800190565b60405180910390a13360009081526016602052604081208054839290611d1a90849061294c565b90915550611d299050336124df565b611d7057600580546001810182556000919091527f036b6384b5eca791c62761152d0c79bb0604c104a5fb6f4eb0703f3154bb3db00180546001600160a01b031916331790555b60405182815233907f4d154d4aae216bed6d0926db77c00df2b57c6b5ba4eee05775de20facede3a7b9060200160405180910390a25050565b60408051600280825260608083018452926000929190602083019080368337019050509050600a5481600081518110611de457611de4612ad7565b602002602001018181525050600b5481600181518110611e0657611e06612ad7565b6020908102919091010152919050565b6003546001600160a01b0316331480611e3957506006546001600160a01b031633145b611e555760405162461bcd60e51b8152600401610b8590612757565b60005b600554811015611f9457600060058281548110611e7757611e77612ad7565b6000918252602080832091909101546001546001600160a01b03918216808552601590935260409384902054935163a9059cbb60e01b8152600481018490526024810194909452919350169063a9059cbb906044016020604051808303816000875af1158015611eeb573d6000803e3d6000fd5b505050506040513d601f19601f82011682018060405250810190611f0f919061288d565b506001600160a01b0381166000818152601560209081526040918290205491519182527f896e034966eaaf1adc54acc0f257056febbd300c9e47182cf761982cf1f5e430910160405180910390a26001600160a01b03166000908152601560209081526040808320839055601690915281205580611f8c81612aed565b915050611e58565b506040517fe0e133045a83e38ee79d367a84f6cbf75018e4457eccd0336c5b596d620d126d90600090a1565b60408051600280825260608083018452926000929190602083019080368337019050509050600c5481600081518110611ffb57611ffb612ad7565b602002602001018181525050600d5481600181518110611e0657611e06612ad7565b6003546001600160a01b031633146120475760405162461bcd60e51b8152600401610b8590612757565b601b5460ff166120925760405162461bcd60e51b815260206004820152601660248201527514d85b19481b9bdd081e595d08199a5b985b1a5e995960521b6044820152606401610b85565b6001546040516370a0823160e01b81523060048201526000916001600160a01b0316906370a0823190602401602060405180830381865afa1580156120db573d6000803e3d6000fd5b505050506040513d601f19601f820116820180604052508101906120ff91906128de565b9050600081116121475760405162461bcd60e51b81526020600482015260136024820152724e6f2072656d61696e696e6720746f6b656e7360681b6044820152606401610b85565b47806121885760405162461bcd60e51b815260206004820152601060248201526f09cde40e4cadac2d2dcd2dcce408aa8960831b6044820152606401610b85565b60015460035460405163a9059cbb60e01b81526001600160a01b0391821660048201526024810185905291169063a9059cbb906044016020604051808303816000875af11580156121dd573d6000803e3d6000fd5b505050506040513d601f19601f82011682018060405250810190612201919061288d565b506003546040516000916001600160a01b03169083908381818185875af1925050503d806000811461224f576040519150601f19603f3d011682016040523d82523d6000602084013e612254565b606091505b50509050806122a55760405162461bcd60e51b815260206004820152601e60248201527f455448207472616e7366657220746f2063726561746f72206661696c656400006044820152606401610b85565b505050565b6001546060906001600160a01b03166122d55760405162461bcd60e51b8152600401610b85906128af565b600160009054906101000a90046001600160a01b03166001600160a01b03166395d89b416040518163ffffffff1660e01b8152600401600060405180830381865afa92505050801561234957506040513d6000823e601f3d908101601f19168201604052612346919081019061298d565b60015b61158c57612355612a0f565b806308c379a0036115805750612369612a2a565b806123745750611582565b60405162461bcd60e51b815260206004820152601a60248201527f4572726f722067657474696e6720746f6b656e2073796d626f6c0000000000006044820152606401610b85565b6123c4612435565b6001600160a01b0381166124295760405162461bcd60e51b815260206004820152602660248201527f4f776e61626c653a206e6577206f776e657220697320746865207a65726f206160448201526564647265737360d01b6064820152608401610b85565b6124328161248f565b50565b6000546001600160a01b031633146113705760405162461bcd60e51b815260206004820181905260248201527f4f776e61626c653a2063616c6c6572206973206e6f7420746865206f776e65726044820152606401610b85565b600080546001600160a01b038381166001600160a01b0319831681178455604051919092169283917f8be0079c531659141344cd1fd0a4f28419497f9722a3daafe3b4186f6b6457e09190a35050565b6000805b60055481101561253f57826001600160a01b03166005828154811061250a5761250a612ad7565b6000918252602090912001546001600160a01b03160361252d5750600192915050565b8061253781612aed565b9150506124e3565b50600092915050565b60006020828403121561255a57600080fd5b81356001600160a01b038116811461257157600080fd5b9392505050565b60005b8381101561259357818101518382015260200161257b565b50506000910152565b60208152600082518060208401526125bb816040850160208701612578565b601f01601f19169190910160400192915050565b634e487b7160e01b600052604160045260246000fd5b601f8201601f1916810167ffffffffffffffff8111828210171561260b5761260b6125cf565b6040525050565b600067ffffffffffffffff82111561262c5761262c6125cf565b50601f01601f191660200190565b60006020828403121561264c57600080fd5b813567ffffffffffffffff81111561266357600080fd5b8201601f8101841361267457600080fd5b803561267f81612612565b60405161268c82826125e5565b8281528660208486010111156126a157600080fd5b8260208501602083013760009281016020019290925250949350505050565b6000602082840312156126d257600080fd5b5035919050565b6020808252825182820181905260009190848201906040850190845b81811015612711578351835292840192918401916001016126f5565b50909695505050505050565b600181811c9082168061273157607f821691505b60208210810361275157634e487b7160e01b600052602260045260246000fd5b50919050565b6020808252600e908201526d139bdd08185d5d1a1bdc9a5e995960921b604082015260600190565b601f8211156122a557600081815260208120601f850160051c810160208610156127a65750805b601f850160051c820191505b818110156127c5578281556001016127b2565b505050505050565b815167ffffffffffffffff8111156127e7576127e76125cf565b6127fb816127f5845461271d565b8461277f565b602080601f83116001811461283057600084156128185750858301515b600019600386901b1c1916600185901b1785556127c5565b600085815260208120601f198616915b8281101561285f57888601518255948401946001909101908401612840565b508582101561287d5787850151600019600388901b60f8161c191681555b5050505050600190811b01905550565b60006020828403121561289f57600080fd5b8151801515811461257157600080fd5b602080825260159082015274151bdad95b881859191c995cdcc81b9bdd081cd95d605a1b604082015260600190565b6000602082840312156128f057600080fd5b5051919050565b634e487b7160e01b600052601160045260246000fd5b8082028115828204841417612924576129246128f7565b92915050565b60008261294757634e487b7160e01b600052601260045260246000fd5b500490565b80820180821115612924576129246128f7565b60008060006060848603121561297457600080fd5b8351925060208401519150604084015190509250925092565b60006020828403121561299f57600080fd5b815167ffffffffffffffff8111156129b657600080fd5b8201601f810184136129c757600080fd5b80516129d281612612565b6040516129df82826125e5565b8281528660208486010111156129f457600080fd5b612a05836020830160208701612578565b9695505050505050565b600060033d11156115915760046000803e5060005160e01c90565b600060443d1015612a385790565b6040516003193d81016004833e81513d67ffffffffffffffff8160248401118184111715612a6857505050505090565b8285019150815181811115612a805750505050505090565b843d8701016020828501011115612a9a5750505050505090565b612aa9602082860101876125e5565b509095945050505050565b600060208284031215612ac657600080fd5b815160ff8116811461257157600080fd5b634e487b7160e01b600052603260045260246000fd5b600060018201612aff57612aff6128f7565b506001019056fea2646970667358221220a68705c7f83b1f21ab675a7cb246f6e9c1ba28b5dee2873b44e1033381014a3064736f6c63430008120033",
  "linkReferences": {},
  "deployedLinkReferences": {}
}