{
  "_format": "hh-sol-artifact-1",
  "contractName": "PrivateSale",
  "sourceName": "contracts/PrivateSale.sol",
  "abi": [
    {
      "inputs": [
        {
          "internalType": "uint256[]",
          "name": "_Caps",
          "type": "uint256[]"
        },
        {
          "internalType": "uint256[]",
          "name": "_Contributions",
          "type": "uint256[]"
        },
        {
          "internalType": "uint256[]",
          "name": "_Times",
          "type": "uint256[]"
        },
        {
          "internalType": "uint256[]",
          "name": "_Rate",
          "type": "uint256[]"
        },
        {
          "internalType": "string",
          "name": "_dataURL",
          "type": "string"
        },
        {
          "internalType": "uint256",
          "name": "_liquidityPercent",
          "type": "uint256"
        },
        {
          "internalType": "uint256",
          "name": "_liquidityLockupTime",
          "type": "uint256"
        },
        {
          "internalType": "address[]",
          "name": "_addr",
          "type": "address[]"
        },
        {
          "internalType": "address",
          "name": "_creator",
          "type": "address"
        }
      ],
      "stateMutability": "nonpayable",
      "type": "constructor"
    },
    {
      "anonymous": false,
      "inputs": [
        {
          "indexed": true,
          "internalType": "address",
          "name": "contributor",
          "type": "address"
        },
        {
          "indexed": false,
          "internalType": "uint256",
          "name": "amount",
          "type": "uint256"
        }
      ],
      "name": "BNBRefunded",
      "type": "event"
    },
    {
      "anonymous": false,
      "inputs": [
        {
          "indexed": true,
          "internalType": "address",
          "name": "contributor",
          "type": "address"
        },
        {
          "indexed": false,
          "internalType": "uint256",
          "name": "amount",
          "type": "uint256"
        }
      ],
      "name": "Contribution",
      "type": "event"
    },
    {
      "anonymous": false,
      "inputs": [
        {
          "indexed": false,
          "internalType": "uint256",
          "name": "amountToken",
          "type": "uint256"
        },
        {
          "indexed": false,
          "internalType": "uint256",
          "name": "amountETH",
          "type": "uint256"
        },
        {
          "indexed": false,
          "internalType": "uint256",
          "name": "liquidity",
          "type": "uint256"
        }
      ],
      "name": "LiquidityAdded",
      "type": "event"
    },
    {
      "anonymous": false,
      "inputs": [
        {
          "indexed": false,
          "internalType": "string",
          "name": "message",
          "type": "string"
        },
        {
          "indexed": false,
          "internalType": "uint256",
          "name": "value",
          "type": "uint256"
        }
      ],
      "name": "LogDebug",
      "type": "event"
    },
    {
      "anonymous": false,
      "inputs": [
        {
          "indexed": true,
          "internalType": "address",
          "name": "previousOwner",
          "type": "address"
        },
        {
          "indexed": true,
          "internalType": "address",
          "name": "newOwner",
          "type": "address"
        }
      ],
      "name": "OwnershipTransferred",
      "type": "event"
    },
    {
      "anonymous": false,
      "inputs": [],
      "name": "SaleCancelled",
      "type": "event"
    },
    {
      "anonymous": false,
      "inputs": [
        {
          "indexed": false,
          "internalType": "uint256",
          "name": "totalContributions",
          "type": "uint256"
        }
      ],
      "name": "SaleCompleted",
      "type": "event"
    },
    {
      "anonymous": false,
      "inputs": [
        {
          "indexed": false,
          "internalType": "bool",
          "name": "success",
          "type": "bool"
        },
        {
          "indexed": false,
          "internalType": "uint256",
          "name": "totalContributions",
          "type": "uint256"
        }
      ],
      "name": "SaleFinalized",
      "type": "event"
    },
    {
      "anonymous": false,
      "inputs": [
        {
          "indexed": true,
          "internalType": "address",
          "name": "contributor",
          "type": "address"
        },
        {
          "indexed": false,
          "internalType": "uint256",
          "name": "amount",
          "type": "uint256"
        }
      ],
      "name": "TokensClaimed",
      "type": "event"
    },
    {
      "anonymous": false,
      "inputs": [
        {
          "indexed": true,
          "internalType": "address",
          "name": "beneficiary",
          "type": "address"
        },
        {
          "indexed": false,
          "internalType": "uint256",
          "name": "amount",
          "type": "uint256"
        }
      ],
      "name": "TokensVested",
      "type": "event"
    },
    {
      "inputs": [],
      "name": "UniswapV2Factory",
      "outputs": [
        {
          "internalType": "contract IUniswapV2Factory",
          "name": "",
          "type": "address"
        }
      ],
      "stateMutability": "view",
      "type": "function"
    },
    {
      "inputs": [],
      "name": "UniswapV2Router02",
      "outputs": [
        {
          "internalType": "contract IUniswapV2Router02",
          "name": "",
          "type": "address"
        }
      ],
      "stateMutability": "view",
      "type": "function"
    },
    {
      "inputs": [],
      "name": "admin",
      "outputs": [
        {
          "internalType": "address",
          "name": "",
          "type": "address"
        }
      ],
      "stateMutability": "view",
      "type": "function"
    },
    {
      "inputs": [],
      "name": "adminAddress",
      "outputs": [
        {
          "internalType": "address",
          "name": "",
          "type": "address"
        }
      ],
      "stateMutability": "view",
      "type": "function"
    },
    {
      "inputs": [],
      "name": "auditLink",
      "outputs": [
        {
          "internalType": "string",
          "name": "",
          "type": "string"
        }
      ],
      "stateMutability": "view",
      "type": "function"
    },
    {
      "inputs": [],
      "name": "cancelSale",
      "outputs": [],
      "stateMutability": "nonpayable",
      "type": "function"
    },
    {
      "inputs": [
        {
          "internalType": "string",
          "name": "_newDataURL",
          "type": "string"
        }
      ],
      "name": "changeDataURL",
      "outputs": [],
      "stateMutability": "nonpayable",
      "type": "function"
    },
    {
      "inputs": [],
      "name": "claimRefund",
      "outputs": [],
      "stateMutability": "nonpayable",
      "type": "function"
    },
    {
      "inputs": [],
      "name": "contribute",
      "outputs": [],
      "stateMutability": "payable",
      "type": "function"
    },
    {
      "inputs": [
        {
          "internalType": "address",
          "name": "",
          "type": "address"
        }
      ],
      "name": "contributions",
      "outputs": [
        {
          "internalType": "uint256",
          "name": "",
          "type": "uint256"
        }
      ],
      "stateMutability": "view",
      "type": "function"
    },
    {
      "inputs": [
        {
          "internalType": "uint256",
          "name": "",
          "type": "uint256"
        }
      ],
      "name": "contributorAddresses",
      "outputs": [
        {
          "internalType": "address",
          "name": "",
          "type": "address"
        }
      ],
      "stateMutability": "view",
      "type": "function"
    },
    {
      "inputs": [],
      "name": "creator",
      "outputs": [
        {
          "internalType": "address",
          "name": "",
          "type": "address"
        }
      ],
      "stateMutability": "view",
      "type": "function"
    },
    {
      "inputs": [],
      "name": "dataURL",
      "outputs": [
        {
          "internalType": "string",
          "name": "",
          "type": "string"
        }
      ],
      "stateMutability": "view",
      "type": "function"
    },
    {
      "inputs": [],
      "name": "endTime",
      "outputs": [
        {
          "internalType": "uint256",
          "name": "",
          "type": "uint256"
        }
      ],
      "stateMutability": "view",
      "type": "function"
    },
    {
      "inputs": [],
      "name": "finalizeSale",
      "outputs": [],
      "stateMutability": "nonpayable",
      "type": "function"
    },
    {
      "inputs": [],
      "name": "getAdmin",
      "outputs": [
        {
          "internalType": "address",
          "name": "",
          "type": "address"
        }
      ],
      "stateMutability": "view",
      "type": "function"
    },
    {
      "inputs": [],
      "name": "getAuditLink",
      "outputs": [
        {
          "internalType": "string",
          "name": "",
          "type": "string"
        }
      ],
      "stateMutability": "view",
      "type": "function"
    },
    {
      "inputs": [],
      "name": "getCaps",
      "outputs": [
        {
          "internalType": "uint256[]",
          "name": "",
          "type": "uint256[]"
        }
      ],
      "stateMutability": "view",
      "type": "function"
    },
    {
      "inputs": [],
      "name": "getContributions",
      "outputs": [
        {
          "internalType": "uint256[]",
          "name": "",
          "type": "uint256[]"
        }
      ],
      "stateMutability": "view",
      "type": "function"
    },
    {
      "inputs": [],
      "name": "getCreator",
      "outputs": [
        {
          "internalType": "address",
          "name": "",
          "type": "address"
        }
      ],
      "stateMutability": "view",
      "type": "function"
    },
    {
      "inputs": [],
      "name": "getDataURL",
      "outputs": [
        {
          "internalType": "string",
          "name": "",
          "type": "string"
        }
      ],
      "stateMutability": "view",
      "type": "function"
    },
    {
      "inputs": [],
      "name": "getEtherBalance",
      "outputs": [
        {
          "internalType": "uint256",
          "name": "",
          "type": "uint256"
        }
      ],
      "stateMutability": "view",
      "type": "function"
    },
    {
      "inputs": [],
      "name": "getKYCLink",
      "outputs": [
        {
          "internalType": "string",
          "name": "",
          "type": "string"
        }
      ],
      "stateMutability": "view",
      "type": "function"
    },
    {
      "inputs": [],
      "name": "getLiquidityLockupTime",
      "outputs": [
        {
          "internalType": "uint256",
          "name": "",
          "type": "uint256"
        }
      ],
      "stateMutability": "view",
      "type": "function"
    },
    {
      "inputs": [],
      "name": "getLiquidityPercent",
      "outputs": [
        {
          "internalType": "uint256",
          "name": "",
          "type": "uint256"
        }
      ],
      "stateMutability": "view",
      "type": "function"
    },
    {
      "inputs": [],
      "name": "getNumberOfParticipants",
      "outputs": [
        {
          "internalType": "uint256",
          "name": "",
          "type": "uint256"
        }
      ],
      "stateMutability": "view",
      "type": "function"
    },
    {
      "inputs": [
        {
          "internalType": "address",
          "name": "_participant",
          "type": "address"
        }
      ],
      "name": "getParticipantInfo",
      "outputs": [
        {
          "internalType": "uint256",
          "name": "contributionAmount",
          "type": "uint256"
        },
        {
          "internalType": "uint256",
          "name": "claimableTokens",
          "type": "uint256"
        }
      ],
      "stateMutability": "view",
      "type": "function"
    },
    {
      "inputs": [],
      "name": "getRates",
      "outputs": [
        {
          "internalType": "uint256[]",
          "name": "",
          "type": "uint256[]"
        }
      ],
      "stateMutability": "view",
      "type": "function"
    },
    {
      "inputs": [],
      "name": "getRouter",
      "outputs": [
        {
          "internalType": "address",
          "name": "",
          "type": "address"
        }
      ],
      "stateMutability": "view",
      "type": "function"
    },
    {
      "inputs": [],
      "name": "getSAFULink",
      "outputs": [
        {
          "internalType": "string",
          "name": "",
          "type": "string"
        }
      ],
      "stateMutability": "view",
      "type": "function"
    },
    {
      "inputs": [],
      "name": "getTimes",
      "outputs": [
        {
          "internalType": "uint256[]",
          "name": "",
          "type": "uint256[]"
        }
      ],
      "stateMutability": "view",
      "type": "function"
    },
    {
      "inputs": [],
      "name": "getTokenAddress",
      "outputs": [
        {
          "internalType": "address",
          "name": "",
          "type": "address"
        }
      ],
      "stateMutability": "view",
      "type": "function"
    },
    {
      "inputs": [],
      "name": "getTokenBalance",
      "outputs": [
        {
          "internalType": "uint256",
          "name": "",
          "type": "uint256"
        }
      ],
      "stateMutability": "view",
      "type": "function"
    },
    {
      "inputs": [],
      "name": "getTokenDecimal",
      "outputs": [
        {
          "internalType": "uint8",
          "name": "",
          "type": "uint8"
        }
      ],
      "stateMutability": "view",
      "type": "function"
    },
    {
      "inputs": [
        {
          "internalType": "uint256",
          "name": "priceRate",
          "type": "uint256"
        },
        {
          "internalType": "uint256",
          "name": "hardCap",
          "type": "uint256"
        }
      ],
      "name": "getTokenForSale",
      "outputs": [
        {
          "internalType": "uint256",
          "name": "",
          "type": "uint256"
        }
      ],
      "stateMutability": "pure",
      "type": "function"
    },
    {
      "inputs": [],
      "name": "getTokenName",
      "outputs": [
        {
          "internalType": "string",
          "name": "",
          "type": "string"
        }
      ],
      "stateMutability": "view",
      "type": "function"
    },
    {
      "inputs": [],
      "name": "getTokenSymbol",
      "outputs": [
        {
          "internalType": "string",
          "name": "",
          "type": "string"
        }
      ],
      "stateMutability": "view",
      "type": "function"
    },
    {
      "inputs": [],
      "name": "getTokenTotalSupply",
      "outputs": [
        {
          "internalType": "uint256",
          "name": "",
          "type": "uint256"
        }
      ],
      "stateMutability": "view",
      "type": "function"
    },
    {
      "inputs": [],
      "name": "getTotalBNBContributed",
      "outputs": [
        {
          "internalType": "uint256",
          "name": "",
          "type": "uint256"
        }
      ],
      "stateMutability": "view",
      "type": "function"
    },
    {
      "inputs": [],
      "name": "getTotalContributions",
      "outputs": [
        {
          "internalType": "uint256",
          "name": "",
          "type": "uint256"
        }
      ],
      "stateMutability": "view",
      "type": "function"
    },
    {
      "inputs": [],
      "name": "hardCap",
      "outputs": [
        {
          "internalType": "uint256",
          "name": "",
          "type": "uint256"
        }
      ],
      "stateMutability": "view",
      "type": "function"
    },
    {
      "inputs": [
        {
          "internalType": "address",
          "name": "",
          "type": "address"
        }
      ],
      "name": "isPublicSale",
      "outputs": [
        {
          "internalType": "bool",
          "name": "",
          "type": "bool"
        }
      ],
      "stateMutability": "view",
      "type": "function"
    },
    {
      "inputs": [],
      "name": "kycLink",
      "outputs": [
        {
          "internalType": "string",
          "name": "",
          "type": "string"
        }
      ],
      "stateMutability": "view",
      "type": "function"
    },
    {
      "inputs": [],
      "name": "liquidityLockupTime",
      "outputs": [
        {
          "internalType": "uint256",
          "name": "",
          "type": "uint256"
        }
      ],
      "stateMutability": "view",
      "type": "function"
    },
    {
      "inputs": [],
      "name": "liquidityPercent",
      "outputs": [
        {
          "internalType": "uint256",
          "name": "",
          "type": "uint256"
        }
      ],
      "stateMutability": "view",
      "type": "function"
    },
    {
      "inputs": [],
      "name": "listingRate",
      "outputs": [
        {
          "internalType": "uint256",
          "name": "",
          "type": "uint256"
        }
      ],
      "stateMutability": "view",
      "type": "function"
    },
    {
      "inputs": [],
      "name": "maxContribution",
      "outputs": [
        {
          "internalType": "uint256",
          "name": "",
          "type": "uint256"
        }
      ],
      "stateMutability": "view",
      "type": "function"
    },
    {
      "inputs": [],
      "name": "minContribution",
      "outputs": [
        {
          "internalType": "uint256",
          "name": "",
          "type": "uint256"
        }
      ],
      "stateMutability": "view",
      "type": "function"
    },
    {
      "inputs": [],
      "name": "owner",
      "outputs": [
        {
          "internalType": "address",
          "name": "",
          "type": "address"
        }
      ],
      "stateMutability": "view",
      "type": "function"
    },
    {
      "inputs": [],
      "name": "priceRate",
      "outputs": [
        {
          "internalType": "uint256",
          "name": "",
          "type": "uint256"
        }
      ],
      "stateMutability": "view",
      "type": "function"
    },
    {
      "inputs": [],
      "name": "renounceOwnership",
      "outputs": [],
      "stateMutability": "nonpayable",
      "type": "function"
    },
    {
      "inputs": [],
      "name": "safuLink",
      "outputs": [
        {
          "internalType": "string",
          "name": "",
          "type": "string"
        }
      ],
      "stateMutability": "view",
      "type": "function"
    },
    {
      "inputs": [],
      "name": "saleFinalized",
      "outputs": [
        {
          "internalType": "bool",
          "name": "",
          "type": "bool"
        }
      ],
      "stateMutability": "view",
      "type": "function"
    },
    {
      "inputs": [
        {
          "internalType": "string",
          "name": "_auditLink",
          "type": "string"
        }
      ],
      "name": "setAuditLink",
      "outputs": [],
      "stateMutability": "nonpayable",
      "type": "function"
    },
    {
      "inputs": [
        {
          "internalType": "string",
          "name": "_dataURL",
          "type": "string"
        }
      ],
      "name": "setDataURL",
      "outputs": [],
      "stateMutability": "nonpayable",
      "type": "function"
    },
    {
      "inputs": [
        {
          "internalType": "string",
          "name": "_kycLink",
          "type": "string"
        }
      ],
      "name": "setKYCLink",
      "outputs": [],
      "stateMutability": "nonpayable",
      "type": "function"
    },
    {
      "inputs": [
        {
          "internalType": "string",
          "name": "_safuLink",
          "type": "string"
        }
      ],
      "name": "setSAFULink",
      "outputs": [],
      "stateMutability": "nonpayable",
      "type": "function"
    },
    {
      "inputs": [
        {
          "internalType": "address",
          "name": "_tokenAddress",
          "type": "address"
        }
      ],
      "name": "setToken",
      "outputs": [],
      "stateMutability": "nonpayable",
      "type": "function"
    },
    {
      "inputs": [
        {
          "internalType": "address",
          "name": "_router",
          "type": "address"
        }
      ],
      "name": "setUniswapRouter",
      "outputs": [],
      "stateMutability": "nonpayable",
      "type": "function"
    },
    {
      "inputs": [
        {
          "internalType": "address",
          "name": "beneficiary",
          "type": "address"
        },
        {
          "internalType": "uint256",
          "name": "cliff",
          "type": "uint256"
        },
        {
          "internalType": "uint256",
          "name": "duration",
          "type": "uint256"
        },
        {
          "internalType": "uint256",
          "name": "percentReleasedPerInterval",
          "type": "uint256"
        },
        {
          "internalType": "uint256",
          "name": "intervals",
          "type": "uint256"
        }
      ],
      "name": "setVesting",
      "outputs": [],
      "stateMutability": "nonpayable",
      "type": "function"
    },
    {
      "inputs": [],
      "name": "softCap",
      "outputs": [
        {
          "internalType": "uint256",
          "name": "",
          "type": "uint256"
        }
      ],
      "stateMutability": "view",
      "type": "function"
    },
    {
      "inputs": [],
      "name": "startTime",
      "outputs": [
        {
          "internalType": "uint256",
          "name": "",
          "type": "uint256"
        }
      ],
      "stateMutability": "view",
      "type": "function"
    },
    {
      "inputs": [],
      "name": "token",
      "outputs": [
        {
          "internalType": "contract IERC20",
          "name": "",
          "type": "address"
        }
      ],
      "stateMutability": "view",
      "type": "function"
    },
    {
      "inputs": [],
      "name": "tokenBalance",
      "outputs": [
        {
          "internalType": "uint256",
          "name": "",
          "type": "uint256"
        }
      ],
      "stateMutability": "view",
      "type": "function"
    },
    {
      "inputs": [
        {
          "internalType": "address",
          "name": "",
          "type": "address"
        }
      ],
      "name": "tokenBalances",
      "outputs": [
        {
          "internalType": "uint256",
          "name": "",
          "type": "uint256"
        }
      ],
      "stateMutability": "view",
      "type": "function"
    },
    {
      "inputs": [],
      "name": "totalBNBContributed",
      "outputs": [
        {
          "internalType": "uint256",
          "name": "",
          "type": "uint256"
        }
      ],
      "stateMutability": "view",
      "type": "function"
    },
    {
      "inputs": [],
      "name": "totalContributions",
      "outputs": [
        {
          "internalType": "uint256",
          "name": "",
          "type": "uint256"
        }
      ],
      "stateMutability": "view",
      "type": "function"
    },
    {
      "inputs": [],
      "name": "totalTokensNeeded",
      "outputs": [
        {
          "internalType": "uint256",
          "name": "",
          "type": "uint256"
        }
      ],
      "stateMutability": "view",
      "type": "function"
    },
    {
      "inputs": [
        {
          "internalType": "address",
          "name": "newOwner",
          "type": "address"
        }
      ],
      "name": "transferOwnership",
      "outputs": [],
      "stateMutability": "nonpayable",
      "type": "function"
    },
    {
      "inputs": [],
      "name": "vest",
      "outputs": [],
      "stateMutability": "nonpayable",
      "type": "function"
    },
    {
      "inputs": [],
      "name": "vestingInterval",
      "outputs": [
        {
          "internalType": "uint256",
          "name": "",
          "type": "uint256"
        }
      ],
      "stateMutability": "view",
      "type": "function"
    },
    {
      "inputs": [
        {
          "internalType": "address",
          "name": "",
          "type": "address"
        }
      ],
      "name": "vestingSchedules",
      "outputs": [
        {
          "internalType": "uint256",
          "name": "cliff",
          "type": "uint256"
        },
        {
          "internalType": "uint256",
          "name": "duration",
          "type": "uint256"
        },
        {
          "internalType": "uint256",
          "name": "percentReleasedPerInterval",
          "type": "uint256"
        },
        {
          "internalType": "uint256",
          "name": "intervals",
          "type": "uint256"
        },
        {
          "internalType": "uint256",
          "name": "lastClaimedTime",
          "type": "uint256"
        }
      ],
      "stateMutability": "view",
      "type": "function"
    },
    {
      "inputs": [],
      "name": "withdrawRemaining",
      "outputs": [],
      "stateMutability": "nonpayable",
      "type": "function"
    },
    {
      "inputs": [],
      "name": "withdrawUnsoldTokens",
      "outputs": [],
      "stateMutability": "nonpayable",
      "type": "function"
    }
  ],
  "bytecode": "0x60806040523480156200001157600080fd5b506040516200377238038062003772833981016040819052620000349162000462565b6200003f336200021b565b8860008151811062000055576200005562000591565b60200260200101516008819055508860018151811062000079576200007962000591565b6020026020010151600981905550876000815181106200009d576200009d62000591565b6020026020010151600a8190555087600181518110620000c157620000c162000591565b6020026020010151600b8190555086600081518110620000e557620000e562000591565b6020026020010151600c819055508660018151811062000109576200010962000591565b6020026020010151600d81905550856000815181106200012d576200012d62000591565b6020026020010151600e819055508560018151811062000151576200015162000591565b6020908102919091010151600f5560108490556011839055815182906000906200017f576200017f62000591565b6020026020010151600760006101000a8154816001600160a01b0302191690836001600160a01b0316021790555081600181518110620001c357620001c362000591565b6020908102919091010151600580546001600160a01b03199081166001600160a01b03938416179091556002805490911691831691909117905560136200020b868262000636565b5050505050505050505062000702565b600080546001600160a01b038381166001600160a01b0319831681178455604051919092169283917f8be0079c531659141344cd1fd0a4f28419497f9722a3daafe3b4186f6b6457e09190a35050565b634e487b7160e01b600052604160045260246000fd5b604051601f8201601f191681016001600160401b0381118282101715620002ac57620002ac6200026b565b604052919050565b60006001600160401b03821115620002d057620002d06200026b565b5060051b60200190565b600082601f830112620002ec57600080fd5b8151602062000305620002ff83620002b4565b62000281565b82815260059290921b840181019181810190868411156200032557600080fd5b8286015b8481101562000342578051835291830191830162000329565b509695505050505050565b600082601f8301126200035f57600080fd5b81516001600160401b038111156200037b576200037b6200026b565b602062000391601f8301601f1916820162000281565b8281528582848701011115620003a657600080fd5b60005b83811015620003c6578581018301518282018401528201620003a9565b506000928101909101919091529392505050565b80516001600160a01b0381168114620003f257600080fd5b919050565b600082601f8301126200040957600080fd5b815160206200041c620002ff83620002b4565b82815260059290921b840181019181810190868411156200043c57600080fd5b8286015b8481101562000342576200045481620003da565b835291830191830162000440565b60008060008060008060008060006101208a8c0312156200048257600080fd5b89516001600160401b03808211156200049a57600080fd5b620004a88d838e01620002da565b9a5060208c0151915080821115620004bf57600080fd5b620004cd8d838e01620002da565b995060408c0151915080821115620004e457600080fd5b620004f28d838e01620002da565b985060608c01519150808211156200050957600080fd5b620005178d838e01620002da565b975060808c01519150808211156200052e57600080fd5b6200053c8d838e016200034d565b965060a08c0151955060c08c0151945060e08c01519150808211156200056157600080fd5b50620005708c828d01620003f7565b925050620005826101008b01620003da565b90509295985092959850929598565b634e487b7160e01b600052603260045260246000fd5b600181811c90821680620005bc57607f821691505b602082108103620005dd57634e487b7160e01b600052602260045260246000fd5b50919050565b601f8211156200063157600081815260208120601f850160051c810160208610156200060c5750805b601f850160051c820191505b818110156200062d5782815560010162000618565b5050505b505050565b81516001600160401b038111156200065257620006526200026b565b6200066a81620006638454620005a7565b84620005e3565b602080601f831160018114620006a25760008415620006895750858301515b600019600386901b1c1916600185901b1785556200062d565b600085815260208120601f198616915b82811015620006d357888601518255948401946001909101908401620006b2565b5085821015620006f25787850151600019600388901b60f8161c191681555b5050505050600190811b01905550565b61306080620007126000396000f3fe6080604052600436106104315760003560e01c80639d706d3111610229578063c80c28a21161012e578063ea46193e116100b6578063fb3de3c01161007a578063fb3de3c014610b8b578063fb86a40414610ba1578063fc0c546a14610bb7578063fc6f946814610bd7578063fdb20ccb14610bf757600080fd5b8063ea46193e14610b0e578063ee38db9514610b21578063f1850af814610b36578063f2fde38b14610b4b578063f851a44014610b6b57600080fd5b8063d7bb99ba116100fd578063d7bb99ba14610ab2578063dda0a81a14610aba578063ddf556d014610acf578063e7e1049014610ae4578063e9ab77e514610af957600080fd5b8063c80c28a214610a52578063c8bdbfb614610a67578063ceb791d914610a7c578063d517792014610a9257600080fd5b8063b4a34494116101b1578063b9dc4ab211610180578063b9dc4ab2146109cb578063bba8bd20146109e0578063bdd06a0a146109f6578063bddb971b14610a0b578063bea9849e14610a3257600080fd5b8063b4a344941461098b578063b5545a3c146109a0578063b6c0406d146108f2578063b8e50cab146109b557600080fd5b8063a5f0dea2116101f8578063a5f0dea214610912578063aaffadf31461092c578063ae9763a514610942578063b068375514610957578063b0f479a11461096d57600080fd5b80639d706d31146108b15780639e1a4d19146108c6578063a20ecbbb146108dc578063a296d67d146108f257600080fd5b8063715018a61161033a578063862b092b116102c25780638dd08557116102865780638dd085571461082e578063906a26e01461084e57806393632ddd14610864578063987e5f581461087a5780639accab551461088f57600080fd5b8063862b092b14610790578063892ec554146107a55780638b3635c8146107ba5780638d3d6576146107fa5780638da5cb5b1461081057600080fd5b806375d35b621161030957806375d35b621461071b57806378cc70b21461073057806378e97925146107505780637a127d551461076657806382b2e2571461077b57600080fd5b8063715018a61461067957806371bdce551461068e57806372d41f70146106e6578063755e8b72146106fb57600080fd5b806342e94c90116103bd578063523fba7f1161038c578063523fba7f146105e457806355cb26661461061157806357df844b1461063157806358a687ec146106465780636e9960c31461065b57600080fd5b806342e94c901461056d578063458efde31461059a5780634a68ae94146105af5780634d68ceb9146105cf57600080fd5b80632a2eddde116104045780632a2eddde146104d15780633197cbb6146104f157806331d7c4fb1461051557806333dbef9f1461053757806337c089231461055757600080fd5b806302d05d3f146104365780630ee2cb101461047357806310fe9ae814610491578063144fa6d7146104af575b600080fd5b34801561044257600080fd5b50600254610456906001600160a01b031681565b6040516001600160a01b0390911681526020015b60405180910390f35b34801561047f57600080fd5b506002546001600160a01b0316610456565b34801561049d57600080fd5b506001546001600160a01b0316610456565b3480156104bb57600080fd5b506104cf6104ca366004612a09565b610c69565b005b3480156104dd57600080fd5b506104cf6104ec366004612a2b565b610cf1565b3480156104fd57600080fd5b50610507600d5481565b60405190815260200161046a565b34801561052157600080fd5b5061052a610e37565b60405161046a9190612a91565b34801561054357600080fd5b506104cf610552366004612b2f565b610ec5565b34801561056357600080fd5b5061050760165481565b34801561057957600080fd5b50610507610588366004612a09565b60186020526000908152604090205481565b3480156105a657600080fd5b506104cf610eff565b3480156105bb57600080fd5b506104cf6105ca366004612b2f565b611140565b3480156105db57600080fd5b5061052a611176565b3480156105f057600080fd5b506105076105ff366004612a09565b60196020526000908152604090205481565b34801561061d57600080fd5b50600754610456906001600160a01b031681565b34801561063d57600080fd5b50610507611183565b34801561065257600080fd5b506104cf61122a565b34801561066757600080fd5b506003546001600160a01b0316610456565b34801561068557600080fd5b506104cf611622565b34801561069a57600080fd5b506106d16106a9366004612a09565b6001600160a01b03166000908152601860209081526040808320546019909252909120549091565b6040805192835260208301919091520161046a565b3480156106f257600080fd5b5061052a611634565b34801561070757600080fd5b50610507610716366004612bb5565b6116c6565b34801561072757600080fd5b50601154610507565b34801561073c57600080fd5b50600654610456906001600160a01b031681565b34801561075c57600080fd5b50610507600c5481565b34801561077257600080fd5b5061052a6116f0565b34801561078757600080fd5b506105076116ff565b34801561079c57600080fd5b5061052a611748565b3480156107b157600080fd5b5061052a61186e565b3480156107c657600080fd5b506107ea6107d5366004612a09565b601a6020526000908152604090205460ff1681565b604051901515815260200161046a565b34801561080657600080fd5b50610507600b5481565b34801561081c57600080fd5b506000546001600160a01b0316610456565b34801561083a57600080fd5b50610456610849366004612bd7565b61187d565b34801561085a57600080fd5b5061050760085481565b34801561087057600080fd5b5061050760125481565b34801561088657600080fd5b5061052a6118a7565b34801561089b57600080fd5b506108a46118b6565b60405161046a9190612bf0565b3480156108bd57600080fd5b506108a4611923565b3480156108d257600080fd5b5061050760145481565b3480156108e857600080fd5b50610507600f5481565b3480156108fe57600080fd5b506104cf61090d366004612b2f565b611980565b34801561091e57600080fd5b50601e546107ea9060ff1681565b34801561093857600080fd5b50610507600a5481565b34801561094e57600080fd5b50601254610507565b34801561096357600080fd5b5061050760105481565b34801561097957600080fd5b506007546001600160a01b0316610456565b34801561099757600080fd5b50601054610507565b3480156109ac57600080fd5b506104cf6119b6565b3480156109c157600080fd5b5061050760155481565b3480156109d757600080fd5b5061052a611a90565b3480156109ec57600080fd5b5061050760175481565b348015610a0257600080fd5b5061052a611a9d565b348015610a1757600080fd5b50610a20611aaa565b60405160ff909116815260200161046a565b348015610a3e57600080fd5b506104cf610a4d366004612a09565b611bb7565b348015610a5e57600080fd5b50600454610507565b348015610a7357600080fd5b506104cf611be1565b348015610a8857600080fd5b50610507600e5481565b348015610a9e57600080fd5b506104cf610aad366004612b2f565b611d82565b6104cf611db8565b348015610ac657600080fd5b506108a4612138565b348015610adb57600080fd5b50601654610507565b348015610af057600080fd5b506104cf612195565b348015610b0557600080fd5b506108a461233f565b348015610b1a57600080fd5b5047610507565b348015610b2d57600080fd5b506104cf61239c565b348015610b4257600080fd5b5061052a612629565b348015610b5757600080fd5b506104cf610b66366004612a09565b61273b565b348015610b7757600080fd5b50600354610456906001600160a01b031681565b348015610b9757600080fd5b5061050760115481565b348015610bad57600080fd5b5061050760095481565b348015610bc357600080fd5b50600154610456906001600160a01b031681565b348015610be357600080fd5b50600554610456906001600160a01b031681565b348015610c0357600080fd5b50610c41610c12366004612a09565b601f60205260009081526040902080546001820154600283015460038401546004909401549293919290919085565b604080519586526020860194909452928401919091526060830152608082015260a00161046a565b610c716127b4565b6001546001600160a01b031615610ccf5760405162461bcd60e51b815260206004820152601960248201527f546f6b656e206164647265737320616c7265616479207365740000000000000060448201526064015b60405180910390fd5b600180546001600160a01b0319166001600160a01b0392909216919091179055565b6005546001600160a01b03163314610d1b5760405162461bcd60e51b8152600401610cc690612c34565b6001600160a01b038516610d715760405162461bcd60e51b815260206004820152601b60248201527f496e76616c69642062656e6566696369617279206164647265737300000000006044820152606401610cc6565b82841115610dd85760405162461bcd60e51b815260206004820152602e60248201527f436c6966662073686f756c64206265206c657373207468616e206f722065717560448201526d30b6103a3790323ab930ba34b7b760911b6064820152608401610cc6565b6040805160a0810182529485526020808601948552858201938452606086019283526000608087018181526001600160a01b039098168152601f9091522093518455915160018401555160028301555160038201559051600490910155565b601d8054610e4490612c5c565b80601f0160208091040260200160405190810160405280929190818152602001828054610e7090612c5c565b8015610ebd5780601f10610e9257610100808354040283529160200191610ebd565b820191906000526020600020905b815481529060010190602001808311610ea057829003601f168201915b505050505081565b6005546001600160a01b03163314610eef5760405162461bcd60e51b8152600401610cc690612c34565b601d610efb8282612ce4565b5050565b336000818152601f6020526040902060010154610f6a5760405162461bcd60e51b815260206004820152602360248201527f56657374696e67206e6f742073657420666f722074686520636f6e74726962756044820152623a37b960e91b6064820152608401610cc6565b336000908152601f602052604090208054600c54610f889190612dba565b421015610fd75760405162461bcd60e51b815260206004820152601960248201527f56657374696e6720636c696666206e6f742072656163686564000000000000006044820152606401610cc6565b6015546004820154610fe99042612dcd565b10156110375760405162461bcd60e51b815260206004820152601c60248201527f56657374696e6720696e74657276616c206e6f742072656163686564000000006044820152606401610cc6565b60006110423361280e565b90506000811161108a5760405162461bcd60e51b81526020600482015260136024820152724e6f20636c61696d61626c6520746f6b656e7360681b6044820152606401610cc6565b60015460405163a9059cbb60e01b8152336004820152602481018390526001600160a01b039091169063a9059cbb906044016020604051808303816000875af11580156110db573d6000803e3d6000fd5b505050506040513d601f19601f820116820180604052508101906110ff9190612de0565b5042600483015560405181815233907fd4691cc79b8fc72aac1e8c0d15a2ca06d71a386c983f815266f0fce713dc5ea79060200160405180910390a2505050565b6005546001600160a01b0316331461116a5760405162461bcd60e51b8152600401610cc690612c34565b601c610efb8282612ce4565b601c8054610e4490612c5c565b6001546000906001600160a01b03166111ae5760405162461bcd60e51b8152600401610cc690612e02565b600160009054906101000a90046001600160a01b03166001600160a01b03166318160ddd6040518163ffffffff1660e01b8152600401602060405180830381865afa158015611201573d6000803e3d6000fd5b505050506040513d601f19601f820116820180604052508101906112259190612e31565b905090565b6002546001600160a01b031633146112545760405162461bcd60e51b8152600401610cc690612c34565b600d5442101561129d5760405162461bcd60e51b815260206004820152601460248201527353616c65206973207374696c6c2061637469766560601b6044820152606401610cc6565b601e5460ff16156112e95760405162461bcd60e51b815260206004820152601660248201527514d85b1948185b1c9958591e48199a5b985b1a5e995960521b6044820152606401610cc6565b60085460165410611618576000670de0b6b3a76400006064601054600f546016546113149190612e4a565b61131e9190612e4a565b6113289190612e61565b6113329190612e61565b9050600060646010546012546113489190612e4a565b6113529190612e61565b6001546040516370a0823160e01b815230600482015291925083916001600160a01b03909116906370a0823190602401602060405180830381865afa15801561139f573d6000803e3d6000fd5b505050506040513d601f19601f820116820180604052508101906113c39190612e31565b10156114225760405162461bcd60e51b815260206004820152602860248201527f496e73756666696369656e7420746f6b656e2062616c616e636520666f72206c604482015267697175696469747960c01b6064820152608401610cc6565b60015460075460405163095ea7b360e01b81526001600160a01b0391821660048201526024810185905291169063095ea7b3906044016020604051808303816000875af1158015611477573d6000803e3d6000fd5b505050506040513d601f19601f8201168201806040525081019061149b9190612de0565b50600754600154600254600092839283926001600160a01b039283169263f305d719928892908216918a9182918591166114d742610258612dba565b60405160e089901b6001600160e01b03191681526001600160a01b039687166004820152602481019590955260448501939093526064840191909152909216608482015260a481019190915260c40160606040518083038185885af1158015611544573d6000803e3d6000fd5b50505050506040513d601f19601f820116820180604052508101906115699190612e83565b925092509250600081116115bf5760405162461bcd60e51b815260206004820152601960248201527f4c6971756964697479206164646974696f6e206661696c6564000000000000006044820152606401610cc6565b60408051848152602081018490529081018290527fd7f28048575eead8851d024ead087913957dfb4fd1a02b4d1573f5352a5a2be39060600160405180910390a15050601e805460ff1916600117905550611620915050565b611620612195565b565b61162a6127b4565b6116206000612939565b6060601c805461164390612c5c565b80601f016020809104026020016040519081016040528092919081815260200182805461166f90612c5c565b80156116bc5780601f10611691576101008083540402835291602001916116bc565b820191906000526020600020905b81548152906001019060200180831161169f57829003601f168201915b5050505050905090565b600080670de0b6b3a76400006116dc8486612e4a565b6116e69190612e61565b9150505b92915050565b6060601d805461164390612c5c565b6001546040516370a0823160e01b81523060048201526000916001600160a01b0316906370a0823190602401602060405180830381865afa158015611201573d6000803e3d6000fd5b6001546060906001600160a01b03166117735760405162461bcd60e51b8152600401610cc690612e02565b600160009054906101000a90046001600160a01b03166001600160a01b03166306fdde036040518163ffffffff1660e01b8152600401600060405180830381865afa9250505080156117e757506040513d6000823e601f3d908101601f191682016040526117e49190810190612eb1565b60015b611866576117f3612f33565b806308c379a00361185a5750611807612f4e565b80611812575061185c565b60405162461bcd60e51b815260206004820152601860248201527f4572726f722067657474696e6720746f6b656e206e616d6500000000000000006044820152606401610cc6565b505b3d6000803e3d6000fd5b919050565b90565b6060601b805461164390612c5c565b6004818154811061188d57600080fd5b6000918252602090912001546001600160a01b0316905081565b60606013805461164390612c5c565b60408051600280825260608083018452926000929190602083019080368337019050509050600e54816000815181106118f1576118f1612fd8565b602002602001018181525050600f548160018151811061191357611913612fd8565b6020908102919091010152919050565b604080516002808252606080830184529260009291906020830190803683370190505090506008548160008151811061195e5761195e612fd8565b6020026020010181815250506009548160018151811061191357611913612fd8565b6002546001600160a01b031633146119aa5760405162461bcd60e51b8152600401610cc690612c34565b6013610efb8282612ce4565b33600090815260186020526040902054611a125760405162461bcd60e51b815260206004820152601860248201527f4e6f20636f6e747269627574696f6e20746f20636c61696d00000000000000006044820152606401610cc6565b3360008181526018602052604080822054905181156108fc0292818181858888f19350505050158015611a49573d6000803e3d6000fd5b50336000818152601860209081526040808320839055519182527fcea2d90093c266953ae450fdb508a6731b84e3721309933f62e069621d90138c910160405180910390a2565b60138054610e4490612c5c565b601b8054610e4490612c5c565b6001546000906001600160a01b0316611ad55760405162461bcd60e51b8152600401610cc690612e02565b600160009054906101000a90046001600160a01b03166001600160a01b031663313ce5676040518163ffffffff1660e01b8152600401602060405180830381865afa925050508015611b44575060408051601f3d908101601f19168201909252611b4191810190612fee565b60015b61186657611b50612f33565b806308c379a00361185a5750611b64612f4e565b80611b6f575061185c565b60405162461bcd60e51b815260206004820152601c60248201527f4572726f722067657474696e6720746f6b656e20646563696d616c73000000006044820152606401610cc6565b611bbf6127b4565b600780546001600160a01b0319166001600160a01b0392909216919091179055565b6002546001600160a01b03163314611c0b5760405162461bcd60e51b8152600401610cc690612c34565b601e5460ff1615611c575760405162461bcd60e51b815260206004820152601660248201527514d85b1948185b1c9958591e48199a5b985b1a5e995960521b6044820152606401610cc6565b6001546040516370a0823160e01b81523060048201526000916001600160a01b0316906370a0823190602401602060405180830381865afa158015611ca0573d6000803e3d6000fd5b505050506040513d601f19601f82011682018060405250810190611cc49190612e31565b905060008111611d095760405162461bcd60e51b815260206004820152601060248201526f4e6f20756e736f6c6420746f6b656e7360801b6044820152606401610cc6565b60015460025460405163a9059cbb60e01b81526001600160a01b0391821660048201526024810184905291169063a9059cbb906044016020604051808303816000875af1158015611d5e573d6000803e3d6000fd5b505050506040513d601f19601f82011682018060405250810190610efb9190612de0565b6005546001600160a01b03163314611dac5760405162461bcd60e51b8152600401610cc690612c34565b601b610efb8282612ce4565b60408051818152600a818301526922ba3420b6b7bab73a1d60b11b6060820152346020820181905291517f65bac6982c4d38c5d60d31375a5acc5e2f09ceba4f763127a5a9fb8fbce0a45e9181900360800190a1600a54811015611e5e5760405162461bcd60e51b815260206004820152601d60248201527f416d6f756e742062656c6f77206d696e20636f6e747269627574696f6e0000006044820152606401610cc6565b600b5433600090815260186020526040902054611e7c908390612dba565b1115611eca5760405162461bcd60e51b815260206004820152601d60248201527f416d6f756e742061626f7665206d617820636f6e747269627574696f6e0000006044820152606401610cc6565b600c54421015611f1c5760405162461bcd60e51b815260206004820152601860248201527f53616c6520686176656e277420737461727465642079657400000000000000006044820152606401610cc6565b600d54421115611f5e5760405162461bcd60e51b815260206004820152600d60248201526c14d85b1948199a5b9a5cda1959609a1b6044820152606401610cc6565b3360009081526018602052604081208054839290611f7d908490612dba565b925050819055508060166000828254611f969190612dba565b925050819055508060126000828254611faf9190612dba565b9091555050600e54600090670de0b6b3a764000090611fce9084612e4a565b611fd89190612e61565b90507f65bac6982c4d38c5d60d31375a5acc5e2f09ceba4f763127a5a9fb8fbce0a45e8160405161203391906040808252600d908201526c2a37b5b2b71020b6b7bab73a1d60991b6060820152602081019190915260800190565b60405180910390a1336000908152601960205260408120805483929061205a908490612dba565b90915550612069905033612989565b6120b057600480546001810182556000919091527f8a35acfbc15ff81a39ae7d344fd709f28e8600b4aa8c65c6b64bfe7fe36bd19b0180546001600160a01b031916331790555b60405182815233907f4d154d4aae216bed6d0926db77c00df2b57c6b5ba4eee05775de20facede3a7b9060200160405180910390a2600d544211610efb5760095460125410610efb577f6756557036e1e627ff2a1cff103a3f6f50754d34a7895080c5b028838770406060165460405161212c91815260200190565b60405180910390a15050565b60408051600280825260608083018452926000929190602083019080368337019050509050600a548160008151811061217357612173612fd8565b602002602001018181525050600b548160018151811061191357611913612fd8565b6002546001600160a01b03163314806121b857506005546001600160a01b031633145b6121d45760405162461bcd60e51b8152600401610cc690612c34565b60005b600454811015612313576000600482815481106121f6576121f6612fd8565b6000918252602080832091909101546001546001600160a01b03918216808552601890935260409384902054935163a9059cbb60e01b8152600481018490526024810194909452919350169063a9059cbb906044016020604051808303816000875af115801561226a573d6000803e3d6000fd5b505050506040513d601f19601f8201168201806040525081019061228e9190612de0565b506001600160a01b0381166000818152601860209081526040918290205491519182527f896e034966eaaf1adc54acc0f257056febbd300c9e47182cf761982cf1f5e430910160405180910390a26001600160a01b0316600090815260186020908152604080832083905560199091528120558061230b81613011565b9150506121d7565b506040517fe0e133045a83e38ee79d367a84f6cbf75018e4457eccd0336c5b596d620d126d90600090a1565b60408051600280825260608083018452926000929190602083019080368337019050509050600c548160008151811061237a5761237a612fd8565b602002602001018181525050600d548160018151811061191357611913612fd8565b6002546001600160a01b031633146123c65760405162461bcd60e51b8152600401610cc690612c34565b601e5460ff166124115760405162461bcd60e51b815260206004820152601660248201527514d85b19481b9bdd081e595d08199a5b985b1a5e995960521b6044820152606401610cc6565b6001546040516370a0823160e01b81523060048201526000916001600160a01b0316906370a0823190602401602060405180830381865afa15801561245a573d6000803e3d6000fd5b505050506040513d601f19601f8201168201806040525081019061247e9190612e31565b9050600081116124c65760405162461bcd60e51b81526020600482015260136024820152724e6f2072656d61696e696e6720746f6b656e7360681b6044820152606401610cc6565b47806125075760405162461bcd60e51b815260206004820152601060248201526f09cde40e4cadac2d2dcd2dcce408aa8960831b6044820152606401610cc6565b60015460025460405163a9059cbb60e01b81526001600160a01b0391821660048201526024810185905291169063a9059cbb906044016020604051808303816000875af115801561255c573d6000803e3d6000fd5b505050506040513d601f19601f820116820180604052508101906125809190612de0565b506002546040516000916001600160a01b03169083908381818185875af1925050503d80600081146125ce576040519150601f19603f3d011682016040523d82523d6000602084013e6125d3565b606091505b50509050806126245760405162461bcd60e51b815260206004820152601e60248201527f455448207472616e7366657220746f2063726561746f72206661696c656400006044820152606401610cc6565b505050565b6001546060906001600160a01b03166126545760405162461bcd60e51b8152600401610cc690612e02565b600160009054906101000a90046001600160a01b03166001600160a01b03166395d89b416040518163ffffffff1660e01b8152600401600060405180830381865afa9250505080156126c857506040513d6000823e601f3d908101601f191682016040526126c59190810190612eb1565b60015b611866576126d4612f33565b806308c379a00361185a57506126e8612f4e565b806126f3575061185c565b60405162461bcd60e51b815260206004820152601a60248201527f4572726f722067657474696e6720746f6b656e2073796d626f6c0000000000006044820152606401610cc6565b6127436127b4565b6001600160a01b0381166127a85760405162461bcd60e51b815260206004820152602660248201527f4f776e61626c653a206e6577206f776e657220697320746865207a65726f206160448201526564647265737360d01b6064820152608401610cc6565b6127b181612939565b50565b6000546001600160a01b031633146116205760405162461bcd60e51b815260206004820181905260248201527f4f776e61626c653a2063616c6c6572206973206e6f7420746865206f776e65726044820152606401610cc6565b6001600160a01b0381166000908152601f602052604081208054600c54839161283691612dba565b6128409042612dcd565b90506000601554826128529190612e61565b90508260030154811061287e57505050506001600160a01b031660009081526019602052604090205490565b6000606484600201548360016128949190612dba565b6001600160a01b0389166000908152601960205260409020546128b79190612e4a565b6128c19190612e4a565b6128cb9190612e61565b9050600084600101548560000154600c546128e69190612dba565b86600401546128f59190612dcd565b6001600160a01b0389166000908152601960205260409020546129189190612e4a565b6129229190612e61565b905061292e8183612dcd565b979650505050505050565b600080546001600160a01b038381166001600160a01b0319831681178455604051919092169283917f8be0079c531659141344cd1fd0a4f28419497f9722a3daafe3b4186f6b6457e09190a35050565b6000805b6004548110156129e957826001600160a01b0316600482815481106129b4576129b4612fd8565b6000918252602090912001546001600160a01b0316036129d75750600192915050565b806129e181613011565b91505061298d565b50600092915050565b80356001600160a01b038116811461186657600080fd5b600060208284031215612a1b57600080fd5b612a24826129f2565b9392505050565b600080600080600060a08688031215612a4357600080fd5b612a4c866129f2565b97602087013597506040870135966060810135965060800135945092505050565b60005b83811015612a88578181015183820152602001612a70565b50506000910152565b6020815260008251806020840152612ab0816040850160208701612a6d565b601f01601f19169190910160400192915050565b634e487b7160e01b600052604160045260246000fd5b601f8201601f1916810167ffffffffffffffff81118282101715612b0057612b00612ac4565b6040525050565b600067ffffffffffffffff821115612b2157612b21612ac4565b50601f01601f191660200190565b600060208284031215612b4157600080fd5b813567ffffffffffffffff811115612b5857600080fd5b8201601f81018413612b6957600080fd5b8035612b7481612b07565b604051612b818282612ada565b828152866020848601011115612b9657600080fd5b8260208501602083013760009281016020019290925250949350505050565b60008060408385031215612bc857600080fd5b50508035926020909101359150565b600060208284031215612be957600080fd5b5035919050565b6020808252825182820181905260009190848201906040850190845b81811015612c2857835183529284019291840191600101612c0c565b50909695505050505050565b6020808252600e908201526d139bdd08185d5d1a1bdc9a5e995960921b604082015260600190565b600181811c90821680612c7057607f821691505b602082108103612c9057634e487b7160e01b600052602260045260246000fd5b50919050565b601f82111561262457600081815260208120601f850160051c81016020861015612cbd5750805b601f850160051c820191505b81811015612cdc57828155600101612cc9565b505050505050565b815167ffffffffffffffff811115612cfe57612cfe612ac4565b612d1281612d0c8454612c5c565b84612c96565b602080601f831160018114612d475760008415612d2f5750858301515b600019600386901b1c1916600185901b178555612cdc565b600085815260208120601f198616915b82811015612d7657888601518255948401946001909101908401612d57565b5085821015612d945787850151600019600388901b60f8161c191681555b5050505050600190811b01905550565b634e487b7160e01b600052601160045260246000fd5b808201808211156116ea576116ea612da4565b818103818111156116ea576116ea612da4565b600060208284031215612df257600080fd5b81518015158114612a2457600080fd5b602080825260159082015274151bdad95b881859191c995cdcc81b9bdd081cd95d605a1b604082015260600190565b600060208284031215612e4357600080fd5b5051919050565b80820281158282048414176116ea576116ea612da4565b600082612e7e57634e487b7160e01b600052601260045260246000fd5b500490565b600080600060608486031215612e9857600080fd5b8351925060208401519150604084015190509250925092565b600060208284031215612ec357600080fd5b815167ffffffffffffffff811115612eda57600080fd5b8201601f81018413612eeb57600080fd5b8051612ef681612b07565b604051612f038282612ada565b828152866020848601011115612f1857600080fd5b612f29836020830160208701612a6d565b9695505050505050565b600060033d111561186b5760046000803e5060005160e01c90565b600060443d1015612f5c5790565b6040516003193d81016004833e81513d67ffffffffffffffff8160248401118184111715612f8c57505050505090565b8285019150815181811115612fa45750505050505090565b843d8701016020828501011115612fbe5750505050505090565b612fcd60208286010187612ada565b509095945050505050565b634e487b7160e01b600052603260045260246000fd5b60006020828403121561300057600080fd5b815160ff81168114612a2457600080fd5b60006001820161302357613023612da4565b506001019056fea2646970667358221220822ec46d44cd0d0860b701c9111894597919fae880fc08768dd347d5d4857a0b64736f6c63430008120033",
  "linkReferences": {},
  "deployedLinkReferences": {}
}