{
  "_format": "hh-sol-artifact-1",
  "contractName": "PublicSale",
  "sourceName": "contracts/PublicSale.sol",
  "abi": [
    {
      "inputs": [
        {
          "internalType": "uint256[]",
          "name": "_Caps",
          "type": "uint256[]"
        },
        {
          "internalType": "uint256[]",
          "name": "_Contributions",
          "type": "uint256[]"
        },
        {
          "internalType": "uint256[]",
          "name": "_Times",
          "type": "uint256[]"
        },
        {
          "internalType": "uint256[]",
          "name": "_Rate",
          "type": "uint256[]"
        },
        {
          "internalType": "string",
          "name": "_dataURL",
          "type": "string"
        },
        {
          "internalType": "uint256",
          "name": "_liquidityPercent",
          "type": "uint256"
        },
        {
          "internalType": "uint256",
          "name": "_liquidityLockupTime",
          "type": "uint256"
        },
        {
          "internalType": "address[]",
          "name": "_addr",
          "type": "address[]"
        },
        {
          "internalType": "address",
          "name": "_creator",
          "type": "address"
        }
      ],
      "stateMutability": "nonpayable",
      "type": "constructor"
    },
    {
      "anonymous": false,
      "inputs": [
        {
          "indexed": true,
          "internalType": "address",
          "name": "contributor",
          "type": "address"
        },
        {
          "indexed": false,
          "internalType": "uint256",
          "name": "amount",
          "type": "uint256"
        }
      ],
      "name": "BNBRefunded",
      "type": "event"
    },
    {
      "anonymous": false,
      "inputs": [
        {
          "indexed": true,
          "internalType": "address",
          "name": "contributor",
          "type": "address"
        },
        {
          "indexed": false,
          "internalType": "uint256",
          "name": "amount",
          "type": "uint256"
        }
      ],
      "name": "Contribution",
      "type": "event"
    },
    {
      "anonymous": false,
      "inputs": [
        {
          "indexed": false,
          "internalType": "uint256",
          "name": "amountToken",
          "type": "uint256"
        },
        {
          "indexed": false,
          "internalType": "uint256",
          "name": "amountETH",
          "type": "uint256"
        },
        {
          "indexed": false,
          "internalType": "uint256",
          "name": "liquidity",
          "type": "uint256"
        }
      ],
      "name": "LiquidityAdded",
      "type": "event"
    },
    {
      "anonymous": false,
      "inputs": [
        {
          "indexed": false,
          "internalType": "string",
          "name": "message",
          "type": "string"
        },
        {
          "indexed": false,
          "internalType": "uint256",
          "name": "value",
          "type": "uint256"
        }
      ],
      "name": "LogDebug",
      "type": "event"
    },
    {
      "anonymous": false,
      "inputs": [
        {
          "indexed": true,
          "internalType": "address",
          "name": "previousOwner",
          "type": "address"
        },
        {
          "indexed": true,
          "internalType": "address",
          "name": "newOwner",
          "type": "address"
        }
      ],
      "name": "OwnershipTransferred",
      "type": "event"
    },
    {
      "anonymous": false,
      "inputs": [],
      "name": "SaleCancelled",
      "type": "event"
    },
    {
      "anonymous": false,
      "inputs": [
        {
          "indexed": false,
          "internalType": "uint256",
          "name": "totalContributions",
          "type": "uint256"
        }
      ],
      "name": "SaleCompleted",
      "type": "event"
    },
    {
      "anonymous": false,
      "inputs": [
        {
          "indexed": false,
          "internalType": "bool",
          "name": "success",
          "type": "bool"
        },
        {
          "indexed": false,
          "internalType": "uint256",
          "name": "totalContributions",
          "type": "uint256"
        }
      ],
      "name": "SaleFinalized",
      "type": "event"
    },
    {
      "anonymous": false,
      "inputs": [
        {
          "indexed": true,
          "internalType": "address",
          "name": "contributor",
          "type": "address"
        },
        {
          "indexed": false,
          "internalType": "uint256",
          "name": "amount",
          "type": "uint256"
        }
      ],
      "name": "TokensClaimed",
      "type": "event"
    },
    {
      "inputs": [],
      "name": "UniswapV2Factory",
      "outputs": [
        {
          "internalType": "contract IUniswapV2Factory",
          "name": "",
          "type": "address"
        }
      ],
      "stateMutability": "view",
      "type": "function"
    },
    {
      "inputs": [],
      "name": "UniswapV2Router02",
      "outputs": [
        {
          "internalType": "contract IUniswapV2Router02",
          "name": "",
          "type": "address"
        }
      ],
      "stateMutability": "view",
      "type": "function"
    },
    {
      "inputs": [],
      "name": "admin",
      "outputs": [
        {
          "internalType": "address",
          "name": "",
          "type": "address"
        }
      ],
      "stateMutability": "view",
      "type": "function"
    },
    {
      "inputs": [],
      "name": "adminAddress",
      "outputs": [
        {
          "internalType": "address",
          "name": "",
          "type": "address"
        }
      ],
      "stateMutability": "view",
      "type": "function"
    },
    {
      "inputs": [],
      "name": "auditLink",
      "outputs": [
        {
          "internalType": "string",
          "name": "",
          "type": "string"
        }
      ],
      "stateMutability": "view",
      "type": "function"
    },
    {
      "inputs": [],
      "name": "cancelSale",
      "outputs": [],
      "stateMutability": "nonpayable",
      "type": "function"
    },
    {
      "inputs": [
        {
          "internalType": "string",
          "name": "_newDataURL",
          "type": "string"
        }
      ],
      "name": "changeDataURL",
      "outputs": [],
      "stateMutability": "nonpayable",
      "type": "function"
    },
    {
      "inputs": [],
      "name": "claimRefund",
      "outputs": [],
      "stateMutability": "nonpayable",
      "type": "function"
    },
    {
      "inputs": [],
      "name": "claimTokens",
      "outputs": [],
      "stateMutability": "nonpayable",
      "type": "function"
    },
    {
      "inputs": [],
      "name": "contribute",
      "outputs": [],
      "stateMutability": "payable",
      "type": "function"
    },
    {
      "inputs": [
        {
          "internalType": "address",
          "name": "",
          "type": "address"
        }
      ],
      "name": "contributions",
      "outputs": [
        {
          "internalType": "uint256",
          "name": "",
          "type": "uint256"
        }
      ],
      "stateMutability": "view",
      "type": "function"
    },
    {
      "inputs": [
        {
          "internalType": "uint256",
          "name": "",
          "type": "uint256"
        }
      ],
      "name": "contributorAddresses",
      "outputs": [
        {
          "internalType": "address",
          "name": "",
          "type": "address"
        }
      ],
      "stateMutability": "view",
      "type": "function"
    },
    {
      "inputs": [],
      "name": "creator",
      "outputs": [
        {
          "internalType": "address",
          "name": "",
          "type": "address"
        }
      ],
      "stateMutability": "view",
      "type": "function"
    },
    {
      "inputs": [],
      "name": "dataURL",
      "outputs": [
        {
          "internalType": "string",
          "name": "",
          "type": "string"
        }
      ],
      "stateMutability": "view",
      "type": "function"
    },
    {
      "inputs": [],
      "name": "endTime",
      "outputs": [
        {
          "internalType": "uint256",
          "name": "",
          "type": "uint256"
        }
      ],
      "stateMutability": "view",
      "type": "function"
    },
    {
      "inputs": [],
      "name": "finalizeSale",
      "outputs": [],
      "stateMutability": "nonpayable",
      "type": "function"
    },
    {
      "inputs": [],
      "name": "getAdmin",
      "outputs": [
        {
          "internalType": "address",
          "name": "",
          "type": "address"
        }
      ],
      "stateMutability": "view",
      "type": "function"
    },
    {
      "inputs": [],
      "name": "getAuditLink",
      "outputs": [
        {
          "internalType": "string",
          "name": "",
          "type": "string"
        }
      ],
      "stateMutability": "view",
      "type": "function"
    },
    {
      "inputs": [],
      "name": "getCaps",
      "outputs": [
        {
          "internalType": "uint256[]",
          "name": "",
          "type": "uint256[]"
        }
      ],
      "stateMutability": "view",
      "type": "function"
    },
    {
      "inputs": [],
      "name": "getContributions",
      "outputs": [
        {
          "internalType": "uint256[]",
          "name": "",
          "type": "uint256[]"
        }
      ],
      "stateMutability": "view",
      "type": "function"
    },
    {
      "inputs": [],
      "name": "getCreator",
      "outputs": [
        {
          "internalType": "address",
          "name": "",
          "type": "address"
        }
      ],
      "stateMutability": "view",
      "type": "function"
    },
    {
      "inputs": [],
      "name": "getDataURL",
      "outputs": [
        {
          "internalType": "string",
          "name": "",
          "type": "string"
        }
      ],
      "stateMutability": "view",
      "type": "function"
    },
    {
      "inputs": [],
      "name": "getEtherBalance",
      "outputs": [
        {
          "internalType": "uint256",
          "name": "",
          "type": "uint256"
        }
      ],
      "stateMutability": "view",
      "type": "function"
    },
    {
      "inputs": [],
      "name": "getKYCLink",
      "outputs": [
        {
          "internalType": "string",
          "name": "",
          "type": "string"
        }
      ],
      "stateMutability": "view",
      "type": "function"
    },
    {
      "inputs": [],
      "name": "getLiquidityLockupTime",
      "outputs": [
        {
          "internalType": "uint256",
          "name": "",
          "type": "uint256"
        }
      ],
      "stateMutability": "view",
      "type": "function"
    },
    {
      "inputs": [],
      "name": "getLiquidityPercent",
      "outputs": [
        {
          "internalType": "uint256",
          "name": "",
          "type": "uint256"
        }
      ],
      "stateMutability": "view",
      "type": "function"
    },
    {
      "inputs": [],
      "name": "getNumberOfParticipants",
      "outputs": [
        {
          "internalType": "uint256",
          "name": "",
          "type": "uint256"
        }
      ],
      "stateMutability": "view",
      "type": "function"
    },
    {
      "inputs": [
        {
          "internalType": "address",
          "name": "_participant",
          "type": "address"
        }
      ],
      "name": "getParticipantInfo",
      "outputs": [
        {
          "internalType": "uint256",
          "name": "contributionAmount",
          "type": "uint256"
        },
        {
          "internalType": "uint256",
          "name": "claimableTokens",
          "type": "uint256"
        }
      ],
      "stateMutability": "view",
      "type": "function"
    },
    {
      "inputs": [],
      "name": "getRates",
      "outputs": [
        {
          "internalType": "uint256[]",
          "name": "",
          "type": "uint256[]"
        }
      ],
      "stateMutability": "view",
      "type": "function"
    },
    {
      "inputs": [],
      "name": "getRouter",
      "outputs": [
        {
          "internalType": "address",
          "name": "",
          "type": "address"
        }
      ],
      "stateMutability": "view",
      "type": "function"
    },
    {
      "inputs": [],
      "name": "getSAFULink",
      "outputs": [
        {
          "internalType": "string",
          "name": "",
          "type": "string"
        }
      ],
      "stateMutability": "view",
      "type": "function"
    },
    {
      "inputs": [],
      "name": "getTimes",
      "outputs": [
        {
          "internalType": "uint256[]",
          "name": "",
          "type": "uint256[]"
        }
      ],
      "stateMutability": "view",
      "type": "function"
    },
    {
      "inputs": [],
      "name": "getTokenAddress",
      "outputs": [
        {
          "internalType": "address",
          "name": "",
          "type": "address"
        }
      ],
      "stateMutability": "view",
      "type": "function"
    },
    {
      "inputs": [],
      "name": "getTokenBalance",
      "outputs": [
        {
          "internalType": "uint256",
          "name": "",
          "type": "uint256"
        }
      ],
      "stateMutability": "view",
      "type": "function"
    },
    {
      "inputs": [],
      "name": "getTokenDecimal",
      "outputs": [
        {
          "internalType": "uint8",
          "name": "",
          "type": "uint8"
        }
      ],
      "stateMutability": "view",
      "type": "function"
    },
    {
      "inputs": [
        {
          "internalType": "uint256",
          "name": "priceRate",
          "type": "uint256"
        },
        {
          "internalType": "uint256",
          "name": "hardCap",
          "type": "uint256"
        }
      ],
      "name": "getTokenForSale",
      "outputs": [
        {
          "internalType": "uint256",
          "name": "",
          "type": "uint256"
        }
      ],
      "stateMutability": "pure",
      "type": "function"
    },
    {
      "inputs": [],
      "name": "getTokenName",
      "outputs": [
        {
          "internalType": "string",
          "name": "",
          "type": "string"
        }
      ],
      "stateMutability": "view",
      "type": "function"
    },
    {
      "inputs": [],
      "name": "getTokenSymbol",
      "outputs": [
        {
          "internalType": "string",
          "name": "",
          "type": "string"
        }
      ],
      "stateMutability": "view",
      "type": "function"
    },
    {
      "inputs": [],
      "name": "getTokenTotalSupply",
      "outputs": [
        {
          "internalType": "uint256",
          "name": "",
          "type": "uint256"
        }
      ],
      "stateMutability": "view",
      "type": "function"
    },
    {
      "inputs": [],
      "name": "getTotalBNBContributed",
      "outputs": [
        {
          "internalType": "uint256",
          "name": "",
          "type": "uint256"
        }
      ],
      "stateMutability": "view",
      "type": "function"
    },
    {
      "inputs": [],
      "name": "getTotalContributions",
      "outputs": [
        {
          "internalType": "uint256",
          "name": "",
          "type": "uint256"
        }
      ],
      "stateMutability": "view",
      "type": "function"
    },
    {
      "inputs": [],
      "name": "hardCap",
      "outputs": [
        {
          "internalType": "uint256",
          "name": "",
          "type": "uint256"
        }
      ],
      "stateMutability": "view",
      "type": "function"
    },
    {
      "inputs": [
        {
          "internalType": "address",
          "name": "",
          "type": "address"
        }
      ],
      "name": "isPublicSale",
      "outputs": [
        {
          "internalType": "bool",
          "name": "",
          "type": "bool"
        }
      ],
      "stateMutability": "view",
      "type": "function"
    },
    {
      "inputs": [],
      "name": "kycLink",
      "outputs": [
        {
          "internalType": "string",
          "name": "",
          "type": "string"
        }
      ],
      "stateMutability": "view",
      "type": "function"
    },
    {
      "inputs": [],
      "name": "liquidityLockupTime",
      "outputs": [
        {
          "internalType": "uint256",
          "name": "",
          "type": "uint256"
        }
      ],
      "stateMutability": "view",
      "type": "function"
    },
    {
      "inputs": [],
      "name": "liquidityPercent",
      "outputs": [
        {
          "internalType": "uint256",
          "name": "",
          "type": "uint256"
        }
      ],
      "stateMutability": "view",
      "type": "function"
    },
    {
      "inputs": [],
      "name": "listingRate",
      "outputs": [
        {
          "internalType": "uint256",
          "name": "",
          "type": "uint256"
        }
      ],
      "stateMutability": "view",
      "type": "function"
    },
    {
      "inputs": [],
      "name": "maxContribution",
      "outputs": [
        {
          "internalType": "uint256",
          "name": "",
          "type": "uint256"
        }
      ],
      "stateMutability": "view",
      "type": "function"
    },
    {
      "inputs": [],
      "name": "minContribution",
      "outputs": [
        {
          "internalType": "uint256",
          "name": "",
          "type": "uint256"
        }
      ],
      "stateMutability": "view",
      "type": "function"
    },
    {
      "inputs": [],
      "name": "owner",
      "outputs": [
        {
          "internalType": "address",
          "name": "",
          "type": "address"
        }
      ],
      "stateMutability": "view",
      "type": "function"
    },
    {
      "inputs": [],
      "name": "priceRate",
      "outputs": [
        {
          "internalType": "uint256",
          "name": "",
          "type": "uint256"
        }
      ],
      "stateMutability": "view",
      "type": "function"
    },
    {
      "inputs": [],
      "name": "renounceOwnership",
      "outputs": [],
      "stateMutability": "nonpayable",
      "type": "function"
    },
    {
      "inputs": [],
      "name": "safuLink",
      "outputs": [
        {
          "internalType": "string",
          "name": "",
          "type": "string"
        }
      ],
      "stateMutability": "view",
      "type": "function"
    },
    {
      "inputs": [],
      "name": "saleFinalized",
      "outputs": [
        {
          "internalType": "bool",
          "name": "",
          "type": "bool"
        }
      ],
      "stateMutability": "view",
      "type": "function"
    },
    {
      "inputs": [
        {
          "internalType": "string",
          "name": "_auditLink",
          "type": "string"
        }
      ],
      "name": "setAuditLink",
      "outputs": [],
      "stateMutability": "nonpayable",
      "type": "function"
    },
    {
      "inputs": [
        {
          "internalType": "string",
          "name": "_dataURL",
          "type": "string"
        }
      ],
      "name": "setDataURL",
      "outputs": [],
      "stateMutability": "nonpayable",
      "type": "function"
    },
    {
      "inputs": [
        {
          "internalType": "string",
          "name": "_kycLink",
          "type": "string"
        }
      ],
      "name": "setKYCLink",
      "outputs": [],
      "stateMutability": "nonpayable",
      "type": "function"
    },
    {
      "inputs": [
        {
          "internalType": "string",
          "name": "_safuLink",
          "type": "string"
        }
      ],
      "name": "setSAFULink",
      "outputs": [],
      "stateMutability": "nonpayable",
      "type": "function"
    },
    {
      "inputs": [
        {
          "internalType": "address",
          "name": "_tokenAddress",
          "type": "address"
        }
      ],
      "name": "setToken",
      "outputs": [],
      "stateMutability": "nonpayable",
      "type": "function"
    },
    {
      "inputs": [
        {
          "internalType": "address",
          "name": "_router",
          "type": "address"
        }
      ],
      "name": "setUniswapRouter",
      "outputs": [],
      "stateMutability": "nonpayable",
      "type": "function"
    },
    {
      "inputs": [],
      "name": "softCap",
      "outputs": [
        {
          "internalType": "uint256",
          "name": "",
          "type": "uint256"
        }
      ],
      "stateMutability": "view",
      "type": "function"
    },
    {
      "inputs": [],
      "name": "startTime",
      "outputs": [
        {
          "internalType": "uint256",
          "name": "",
          "type": "uint256"
        }
      ],
      "stateMutability": "view",
      "type": "function"
    },
    {
      "inputs": [],
      "name": "token",
      "outputs": [
        {
          "internalType": "contract IERC20",
          "name": "",
          "type": "address"
        }
      ],
      "stateMutability": "view",
      "type": "function"
    },
    {
      "inputs": [],
      "name": "tokenBalance",
      "outputs": [
        {
          "internalType": "uint256",
          "name": "",
          "type": "uint256"
        }
      ],
      "stateMutability": "view",
      "type": "function"
    },
    {
      "inputs": [
        {
          "internalType": "address",
          "name": "",
          "type": "address"
        }
      ],
      "name": "tokenBalances",
      "outputs": [
        {
          "internalType": "uint256",
          "name": "",
          "type": "uint256"
        }
      ],
      "stateMutability": "view",
      "type": "function"
    },
    {
      "inputs": [],
      "name": "totalBNBContributed",
      "outputs": [
        {
          "internalType": "uint256",
          "name": "",
          "type": "uint256"
        }
      ],
      "stateMutability": "view",
      "type": "function"
    },
    {
      "inputs": [],
      "name": "totalContributions",
      "outputs": [
        {
          "internalType": "uint256",
          "name": "",
          "type": "uint256"
        }
      ],
      "stateMutability": "view",
      "type": "function"
    },
    {
      "inputs": [],
      "name": "totalTokensNeeded",
      "outputs": [
        {
          "internalType": "uint256",
          "name": "",
          "type": "uint256"
        }
      ],
      "stateMutability": "view",
      "type": "function"
    },
    {
      "inputs": [
        {
          "internalType": "address",
          "name": "newOwner",
          "type": "address"
        }
      ],
      "name": "transferOwnership",
      "outputs": [],
      "stateMutability": "nonpayable",
      "type": "function"
    },
    {
      "inputs": [],
      "name": "withdrawRemaining",
      "outputs": [],
      "stateMutability": "nonpayable",
      "type": "function"
    },
    {
      "inputs": [],
      "name": "withdrawUnsoldTokens",
      "outputs": [],
      "stateMutability": "nonpayable",
      "type": "function"
    }
  ],
  "bytecode": "0x60806040523480156200001157600080fd5b506040516200341938038062003419833981016040819052620000349162000462565b6200003f336200021b565b8860008151811062000055576200005562000591565b60200260200101516008819055508860018151811062000079576200007962000591565b6020026020010151600981905550876000815181106200009d576200009d62000591565b6020026020010151600a8190555087600181518110620000c157620000c162000591565b6020026020010151600b8190555086600081518110620000e557620000e562000591565b6020026020010151600c819055508660018151811062000109576200010962000591565b6020026020010151600d81905550856000815181106200012d576200012d62000591565b6020026020010151600e819055508560018151811062000151576200015162000591565b6020908102919091010151600f5560108490556011839055815182906000906200017f576200017f62000591565b6020026020010151600760006101000a8154816001600160a01b0302191690836001600160a01b0316021790555081600181518110620001c357620001c362000591565b6020908102919091010151600580546001600160a01b03199081166001600160a01b03938416179091556002805490911691831691909117905560136200020b868262000636565b5050505050505050505062000702565b600080546001600160a01b038381166001600160a01b0319831681178455604051919092169283917f8be0079c531659141344cd1fd0a4f28419497f9722a3daafe3b4186f6b6457e09190a35050565b634e487b7160e01b600052604160045260246000fd5b604051601f8201601f191681016001600160401b0381118282101715620002ac57620002ac6200026b565b604052919050565b60006001600160401b03821115620002d057620002d06200026b565b5060051b60200190565b600082601f830112620002ec57600080fd5b8151602062000305620002ff83620002b4565b62000281565b82815260059290921b840181019181810190868411156200032557600080fd5b8286015b8481101562000342578051835291830191830162000329565b509695505050505050565b600082601f8301126200035f57600080fd5b81516001600160401b038111156200037b576200037b6200026b565b602062000391601f8301601f1916820162000281565b8281528582848701011115620003a657600080fd5b60005b83811015620003c6578581018301518282018401528201620003a9565b506000928101909101919091529392505050565b80516001600160a01b0381168114620003f257600080fd5b919050565b600082601f8301126200040957600080fd5b815160206200041c620002ff83620002b4565b82815260059290921b840181019181810190868411156200043c57600080fd5b8286015b8481101562000342576200045481620003da565b835291830191830162000440565b60008060008060008060008060006101208a8c0312156200048257600080fd5b89516001600160401b03808211156200049a57600080fd5b620004a88d838e01620002da565b9a5060208c0151915080821115620004bf57600080fd5b620004cd8d838e01620002da565b995060408c0151915080821115620004e457600080fd5b620004f28d838e01620002da565b985060608c01519150808211156200050957600080fd5b620005178d838e01620002da565b975060808c01519150808211156200052e57600080fd5b6200053c8d838e016200034d565b965060a08c0151955060c08c0151945060e08c01519150808211156200056157600080fd5b50620005708c828d01620003f7565b925050620005826101008b01620003da565b90509295985092959850929598565b634e487b7160e01b600052603260045260246000fd5b600181811c90821680620005bc57607f821691505b602082108103620005dd57634e487b7160e01b600052602260045260246000fd5b50919050565b601f8211156200063157600081815260208120601f850160051c810160208610156200060c5750805b601f850160051c820191505b818110156200062d5782815560010162000618565b5050505b505050565b81516001600160401b038111156200065257620006526200026b565b6200066a81620006638454620005a7565b84620005e3565b602080601f831160018114620006a25760008415620006895750858301515b600019600386901b1c1916600185901b1785556200062d565b600085815260208120601f198616915b82811015620006d357888601518255948401946001909101908401620006b2565b5085821015620006f25787850151600019600388901b60f8161c191681555b5050505050600190811b01905550565b612d0780620007126000396000f3fe6080604052600436106104105760003560e01c80639accab551161021e578063c80c28a211610123578063ea46193e116100ab578063f851a4401161007a578063f851a44014610b14578063fb3de3c014610b34578063fb86a40414610b4a578063fc0c546a14610b60578063fc6f946814610b8057600080fd5b8063ea46193e14610ab7578063ee38db9514610aca578063f1850af814610adf578063f2fde38b14610af457600080fd5b8063d7bb99ba116100f2578063d7bb99ba14610a5b578063dda0a81a14610a63578063ddf556d014610a78578063e7e1049014610a8d578063e9ab77e514610aa257600080fd5b8063c80c28a2146109fb578063c8bdbfb614610a10578063ceb791d914610a25578063d517792014610a3b57600080fd5b8063b0f479a1116101a6578063b9dc4ab211610175578063b9dc4ab214610974578063bba8bd2014610989578063bdd06a0a1461099f578063bddb971b146109b4578063bea9849e146109db57600080fd5b8063b0f479a11461092c578063b4a344941461094a578063b5545a3c1461095f578063b6c0406d146108b157600080fd5b8063a296d67d116101ed578063a296d67d146108b1578063a5f0dea2146108d1578063aaffadf3146108eb578063ae9763a514610901578063b06837551461091657600080fd5b80639accab551461084e5780639d706d31146108705780639e1a4d1914610885578063a20ecbbb1461089b57600080fd5b8063715018a611610324578063862b092b116102ac5780638da5cb5b1161027b5780638da5cb5b146107cf5780638dd08557146107ed578063906a26e01461080d57806393632ddd14610823578063987e5f581461083957600080fd5b8063862b092b1461074f578063892ec554146107645780638b3635c8146107795780638d3d6576146107b957600080fd5b806375d35b62116102f357806375d35b62146106da57806378cc70b2146106ef57806378e979251461070f5780637a127d551461072557806382b2e2571461073a57600080fd5b8063715018a61461063857806371bdce551461064d57806372d41f70146106a5578063755e8b72146106ba57600080fd5b806342e94c90116103a7578063523fba7f11610376578063523fba7f146105a357806355cb2666146105d057806357df844b146105f057806358a687ec146106055780636e9960c31461061a57600080fd5b806342e94c901461052c57806348c54b9d146105595780634a68ae941461056e5780634d68ceb91461058e57600080fd5b80633197cbb6116103e35780633197cbb6146104b057806331d7c4fb146104d457806333dbef9f146104f657806337c089231461051657600080fd5b806302d05d3f146104155780630ee2cb101461045257806310fe9ae814610470578063144fa6d71461048e575b600080fd5b34801561042157600080fd5b50600254610435906001600160a01b031681565b6040516001600160a01b0390911681526020015b60405180910390f35b34801561045e57600080fd5b506002546001600160a01b0316610435565b34801561047c57600080fd5b506001546001600160a01b0316610435565b34801561049a57600080fd5b506104ae6104a93660046126f7565b610ba0565b005b3480156104bc57600080fd5b506104c6600d5481565b604051908152602001610449565b3480156104e057600080fd5b506104e9610c28565b604051610449919061274b565b34801561050257600080fd5b506104ae6105113660046127e9565b610cb6565b34801561052257600080fd5b506104c660155481565b34801561053857600080fd5b506104c66105473660046126f7565b60176020526000908152604090205481565b34801561056557600080fd5b506104ae610cf0565b34801561057a57600080fd5b506104ae6105893660046127e9565b610ea9565b34801561059a57600080fd5b506104e9610edf565b3480156105af57600080fd5b506104c66105be3660046126f7565b60186020526000908152604090205481565b3480156105dc57600080fd5b50600754610435906001600160a01b031681565b3480156105fc57600080fd5b506104c6610eec565b34801561061157600080fd5b506104ae610f93565b34801561062657600080fd5b506003546001600160a01b0316610435565b34801561064457600080fd5b506104ae611465565b34801561065957600080fd5b506106906106683660046126f7565b6001600160a01b03166000908152601760209081526040808320546018909252909120549091565b60408051928352602083019190915201610449565b3480156106b157600080fd5b506104e9611477565b3480156106c657600080fd5b506104c66106d536600461286f565b611509565b3480156106e657600080fd5b506011546104c6565b3480156106fb57600080fd5b50600654610435906001600160a01b031681565b34801561071b57600080fd5b506104c6600c5481565b34801561073157600080fd5b506104e9611533565b34801561074657600080fd5b506104c6611542565b34801561075b57600080fd5b506104e961158b565b34801561077057600080fd5b506104e96116b1565b34801561078557600080fd5b506107a96107943660046126f7565b60196020526000908152604090205460ff1681565b6040519015158152602001610449565b3480156107c557600080fd5b506104c6600b5481565b3480156107db57600080fd5b506000546001600160a01b0316610435565b3480156107f957600080fd5b50610435610808366004612891565b6116c0565b34801561081957600080fd5b506104c660085481565b34801561082f57600080fd5b506104c660125481565b34801561084557600080fd5b506104e96116ea565b34801561085a57600080fd5b506108636116f9565b60405161044991906128aa565b34801561087c57600080fd5b50610863611766565b34801561089157600080fd5b506104c660145481565b3480156108a757600080fd5b506104c6600f5481565b3480156108bd57600080fd5b506104ae6108cc3660046127e9565b6117c3565b3480156108dd57600080fd5b50601d546107a99060ff1681565b3480156108f757600080fd5b506104c6600a5481565b34801561090d57600080fd5b506012546104c6565b34801561092257600080fd5b506104c660105481565b34801561093857600080fd5b506007546001600160a01b0316610435565b34801561095657600080fd5b506010546104c6565b34801561096b57600080fd5b506104ae6117f9565b34801561098057600080fd5b506104e96118ce565b34801561099557600080fd5b506104c660165481565b3480156109ab57600080fd5b506104e96118db565b3480156109c057600080fd5b506109c96118e8565b60405160ff9091168152602001610449565b3480156109e757600080fd5b506104ae6109f63660046126f7565b6119f5565b348015610a0757600080fd5b506004546104c6565b348015610a1c57600080fd5b506104ae611a1f565b348015610a3157600080fd5b506104c6600e5481565b348015610a4757600080fd5b506104ae610a563660046127e9565b611bb9565b6104ae611bef565b348015610a6f57600080fd5b50610863611f6f565b348015610a8457600080fd5b506015546104c6565b348015610a9957600080fd5b506104ae611fcc565b348015610aae57600080fd5b50610863612176565b348015610ac357600080fd5b50476104c6565b348015610ad657600080fd5b506104ae6121d3565b348015610aeb57600080fd5b506104e9612459565b348015610b0057600080fd5b506104ae610b0f3660046126f7565b61256b565b348015610b2057600080fd5b50600354610435906001600160a01b031681565b348015610b4057600080fd5b506104c660115481565b348015610b5657600080fd5b506104c660095481565b348015610b6c57600080fd5b50600154610435906001600160a01b031681565b348015610b8c57600080fd5b50600554610435906001600160a01b031681565b610ba86125e4565b6001546001600160a01b031615610c065760405162461bcd60e51b815260206004820152601960248201527f546f6b656e206164647265737320616c7265616479207365740000000000000060448201526064015b60405180910390fd5b600180546001600160a01b0319166001600160a01b0392909216919091179055565b601c8054610c35906128ee565b80601f0160208091040260200160405190810160405280929190818152602001828054610c61906128ee565b8015610cae5780601f10610c8357610100808354040283529160200191610cae565b820191906000526020600020905b815481529060010190602001808311610c9157829003601f168201915b505050505081565b6005546001600160a01b03163314610ce05760405162461bcd60e51b8152600401610bfd90612928565b601c610cec828261299e565b5050565b601d5460ff16610d3b5760405162461bcd60e51b815260206004820152601660248201527514d85b19481b9bdd081e595d08199a5b985b1a5e995960521b6044820152606401610bfd565b33600090815260176020526040902054610d925760405162461bcd60e51b81526020600482015260186024820152774e6f20636f6e747269627574696f6e20746f20636c61696d60401b6044820152606401610bfd565b3360009081526018602052604090205480610de45760405162461bcd60e51b81526020600482015260126024820152714e6f20746f6b656e7320746f20636c61696d60701b6044820152606401610bfd565b60015460405163a9059cbb60e01b8152336004820152602481018390526001600160a01b039091169063a9059cbb906044016020604051808303816000875af1158015610e35573d6000803e3d6000fd5b505050506040513d601f19601f82011682018060405250810190610e599190612a5e565b503360008181526018602052604080822091909155517f896e034966eaaf1adc54acc0f257056febbd300c9e47182cf761982cf1f5e43090610e9e9084815260200190565b60405180910390a250565b6005546001600160a01b03163314610ed35760405162461bcd60e51b8152600401610bfd90612928565b601b610cec828261299e565b601b8054610c35906128ee565b6001546000906001600160a01b0316610f175760405162461bcd60e51b8152600401610bfd90612a80565b600160009054906101000a90046001600160a01b03166001600160a01b03166318160ddd6040518163ffffffff1660e01b8152600401602060405180830381865afa158015610f6a573d6000803e3d6000fd5b505050506040513d601f19601f82011682018060405250810190610f8e9190612aaf565b905090565b6002546001600160a01b03163314610fbd5760405162461bcd60e51b8152600401610bfd90612928565b600d544210156110065760405162461bcd60e51b815260206004820152601460248201527353616c65206973207374696c6c2061637469766560601b6044820152606401610bfd565b601d5460ff16156110525760405162461bcd60e51b815260206004820152601660248201527514d85b1948185b1c9958591e48199a5b985b1a5e995960521b6044820152606401610bfd565b6008546015541061145b576000670de0b6b3a76400006064601054600f5460155461107d9190612ade565b6110879190612ade565b6110919190612af5565b61109b9190612af5565b9050600060646010546012546110b19190612ade565b6110bb9190612af5565b6001546040516370a0823160e01b815230600482015291925083916001600160a01b03909116906370a0823190602401602060405180830381865afa158015611108573d6000803e3d6000fd5b505050506040513d601f19601f8201168201806040525081019061112c9190612aaf565b101561118b5760405162461bcd60e51b815260206004820152602860248201527f496e73756666696369656e7420746f6b656e2062616c616e636520666f72206c604482015267697175696469747960c01b6064820152608401610bfd565b600154600754604051636eb1769f60e11b81523060048201526001600160a01b0391821660248201528492919091169063dd62ed3e90604401602060405180830381865afa1580156111e1573d6000803e3d6000fd5b505050506040513d601f19601f820116820180604052508101906112059190612aaf565b10156112655760405162461bcd60e51b815260206004820152602960248201527f496e73756666696369656e7420616c6c6f77616e636520666f7220556e69737760448201526830b8103937baba32b960b91b6064820152608401610bfd565b60015460075460405163095ea7b360e01b81526001600160a01b0391821660048201526024810185905291169063095ea7b3906044016020604051808303816000875af11580156112ba573d6000803e3d6000fd5b505050506040513d601f19601f820116820180604052508101906112de9190612a5e565b50600754600154600254600092839283926001600160a01b039283169263f305d719928892908216918a91829185911661131a42610258612b17565b60405160e089901b6001600160e01b03191681526001600160a01b039687166004820152602481019590955260448501939093526064840191909152909216608482015260a481019190915260c40160606040518083038185885af1158015611387573d6000803e3d6000fd5b50505050506040513d601f19601f820116820180604052508101906113ac9190612b2a565b925092509250600081116114025760405162461bcd60e51b815260206004820152601960248201527f4c6971756964697479206164646974696f6e206661696c6564000000000000006044820152606401610bfd565b60408051848152602081018490529081018290527fd7f28048575eead8851d024ead087913957dfb4fd1a02b4d1573f5352a5a2be39060600160405180910390a15050601d805460ff1916600117905550611463915050565b611463611fcc565b565b61146d6125e4565b611463600061263e565b6060601b8054611486906128ee565b80601f01602080910402602001604051908101604052809291908181526020018280546114b2906128ee565b80156114ff5780601f106114d4576101008083540402835291602001916114ff565b820191906000526020600020905b8154815290600101906020018083116114e257829003601f168201915b5050505050905090565b600080670de0b6b3a764000061151f8486612ade565b6115299190612af5565b9150505b92915050565b6060601c8054611486906128ee565b6001546040516370a0823160e01b81523060048201526000916001600160a01b0316906370a0823190602401602060405180830381865afa158015610f6a573d6000803e3d6000fd5b6001546060906001600160a01b03166115b65760405162461bcd60e51b8152600401610bfd90612a80565b600160009054906101000a90046001600160a01b03166001600160a01b03166306fdde036040518163ffffffff1660e01b8152600401600060405180830381865afa92505050801561162a57506040513d6000823e601f3d908101601f191682016040526116279190810190612b58565b60015b6116a957611636612bda565b806308c379a00361169d575061164a612bf5565b80611655575061169f565b60405162461bcd60e51b815260206004820152601860248201527f4572726f722067657474696e6720746f6b656e206e616d6500000000000000006044820152606401610bfd565b505b3d6000803e3d6000fd5b919050565b90565b6060601a8054611486906128ee565b600481815481106116d057600080fd5b6000918252602090912001546001600160a01b0316905081565b606060138054611486906128ee565b60408051600280825260608083018452926000929190602083019080368337019050509050600e548160008151811061173457611734612c7f565b602002602001018181525050600f548160018151811061175657611756612c7f565b6020908102919091010152919050565b60408051600280825260608083018452926000929190602083019080368337019050509050600854816000815181106117a1576117a1612c7f565b6020026020010181815250506009548160018151811061175657611756612c7f565b6002546001600160a01b031633146117ed5760405162461bcd60e51b8152600401610bfd90612928565b6013610cec828261299e565b336000908152601760205260409020546118505760405162461bcd60e51b81526020600482015260186024820152774e6f20636f6e747269627574696f6e20746f20636c61696d60401b6044820152606401610bfd565b3360008181526017602052604080822054905181156108fc0292818181858888f19350505050158015611887573d6000803e3d6000fd5b50336000818152601760209081526040808320839055519182527fcea2d90093c266953ae450fdb508a6731b84e3721309933f62e069621d90138c910160405180910390a2565b60138054610c35906128ee565b601a8054610c35906128ee565b6001546000906001600160a01b03166119135760405162461bcd60e51b8152600401610bfd90612a80565b600160009054906101000a90046001600160a01b03166001600160a01b031663313ce5676040518163ffffffff1660e01b8152600401602060405180830381865afa925050508015611982575060408051601f3d908101601f1916820190925261197f91810190612c95565b60015b6116a95761198e612bda565b806308c379a00361169d57506119a2612bf5565b806119ad575061169f565b60405162461bcd60e51b815260206004820152601c60248201527f4572726f722067657474696e6720746f6b656e20646563696d616c73000000006044820152606401610bfd565b6119fd6125e4565b600780546001600160a01b0319166001600160a01b0392909216919091179055565b611a276125e4565b601d5460ff1615611a735760405162461bcd60e51b815260206004820152601660248201527514d85b1948185b1c9958591e48199a5b985b1a5e995960521b6044820152606401610bfd565b6001546040516370a0823160e01b81523060048201526000916001600160a01b0316906370a0823190602401602060405180830381865afa158015611abc573d6000803e3d6000fd5b505050506040513d601f19601f82011682018060405250810190611ae09190612aaf565b905060008111611b255760405162461bcd60e51b815260206004820152601060248201526f4e6f20756e736f6c6420746f6b656e7360801b6044820152606401610bfd565b6001546001600160a01b031663a9059cbb611b486000546001600160a01b031690565b6040516001600160e01b031960e084901b1681526001600160a01b039091166004820152602481018490526044016020604051808303816000875af1158015611b95573d6000803e3d6000fd5b505050506040513d601f19601f82011682018060405250810190610cec9190612a5e565b6005546001600160a01b03163314611be35760405162461bcd60e51b8152600401610bfd90612928565b601a610cec828261299e565b60408051818152600a818301526922ba3420b6b7bab73a1d60b11b6060820152346020820181905291517f65bac6982c4d38c5d60d31375a5acc5e2f09ceba4f763127a5a9fb8fbce0a45e9181900360800190a1600a54811015611c955760405162461bcd60e51b815260206004820152601d60248201527f416d6f756e742062656c6f77206d696e20636f6e747269627574696f6e0000006044820152606401610bfd565b600b5433600090815260176020526040902054611cb3908390612b17565b1115611d015760405162461bcd60e51b815260206004820152601d60248201527f416d6f756e742061626f7665206d617820636f6e747269627574696f6e0000006044820152606401610bfd565b600c54421015611d535760405162461bcd60e51b815260206004820152601860248201527f53616c6520686176656e277420737461727465642079657400000000000000006044820152606401610bfd565b600d54421115611d955760405162461bcd60e51b815260206004820152600d60248201526c14d85b1948199a5b9a5cda1959609a1b6044820152606401610bfd565b3360009081526017602052604081208054839290611db4908490612b17565b925050819055508060156000828254611dcd9190612b17565b925050819055508060126000828254611de69190612b17565b9091555050600e54600090670de0b6b3a764000090611e059084612ade565b611e0f9190612af5565b90507f65bac6982c4d38c5d60d31375a5acc5e2f09ceba4f763127a5a9fb8fbce0a45e81604051611e6a91906040808252600d908201526c2a37b5b2b71020b6b7bab73a1d60991b6060820152602081019190915260800190565b60405180910390a13360009081526018602052604081208054839290611e91908490612b17565b90915550611ea090503361268e565b611ee757600480546001810182556000919091527f8a35acfbc15ff81a39ae7d344fd709f28e8600b4aa8c65c6b64bfe7fe36bd19b0180546001600160a01b031916331790555b60405182815233907f4d154d4aae216bed6d0926db77c00df2b57c6b5ba4eee05775de20facede3a7b9060200160405180910390a2600d544211610cec5760095460125410610cec577f6756557036e1e627ff2a1cff103a3f6f50754d34a7895080c5b0288387704060601554604051611f6391815260200190565b60405180910390a15050565b60408051600280825260608083018452926000929190602083019080368337019050509050600a5481600081518110611faa57611faa612c7f565b602002602001018181525050600b548160018151811061175657611756612c7f565b6002546001600160a01b0316331480611fef57506005546001600160a01b031633145b61200b5760405162461bcd60e51b8152600401610bfd90612928565b60005b60045481101561214a5760006004828154811061202d5761202d612c7f565b6000918252602080832091909101546001546001600160a01b03918216808552601790935260409384902054935163a9059cbb60e01b8152600481018490526024810194909452919350169063a9059cbb906044016020604051808303816000875af11580156120a1573d6000803e3d6000fd5b505050506040513d601f19601f820116820180604052508101906120c59190612a5e565b506001600160a01b0381166000818152601760209081526040918290205491519182527f896e034966eaaf1adc54acc0f257056febbd300c9e47182cf761982cf1f5e430910160405180910390a26001600160a01b0316600090815260176020908152604080832083905560189091528120558061214281612cb8565b91505061200e565b506040517fe0e133045a83e38ee79d367a84f6cbf75018e4457eccd0336c5b596d620d126d90600090a1565b60408051600280825260608083018452926000929190602083019080368337019050509050600c54816000815181106121b1576121b1612c7f565b602002602001018181525050600d548160018151811061175657611756612c7f565b6121db6125e4565b601d5460ff166122265760405162461bcd60e51b815260206004820152601660248201527514d85b19481b9bdd081e595d08199a5b985b1a5e995960521b6044820152606401610bfd565b6001546040516370a0823160e01b81523060048201526000916001600160a01b0316906370a0823190602401602060405180830381865afa15801561226f573d6000803e3d6000fd5b505050506040513d601f19601f820116820180604052508101906122939190612aaf565b9050600081116122db5760405162461bcd60e51b81526020600482015260136024820152724e6f2072656d61696e696e6720746f6b656e7360681b6044820152606401610bfd565b478061231c5760405162461bcd60e51b815260206004820152601060248201526f09cde40e4cadac2d2dcd2dcce408aa8960831b6044820152606401610bfd565b6001546001600160a01b031663a9059cbb61233f6000546001600160a01b031690565b6040516001600160e01b031960e084901b1681526001600160a01b039091166004820152602481018590526044016020604051808303816000875af115801561238c573d6000803e3d6000fd5b505050506040513d601f19601f820116820180604052508101906123b09190612a5e565b50600080546040516001600160a01b039091169083908381818185875af1925050503d80600081146123fe576040519150601f19603f3d011682016040523d82523d6000602084013e612403565b606091505b50509050806124545760405162461bcd60e51b815260206004820152601c60248201527f455448207472616e7366657220746f206f776e6572206661696c6564000000006044820152606401610bfd565b505050565b6001546060906001600160a01b03166124845760405162461bcd60e51b8152600401610bfd90612a80565b600160009054906101000a90046001600160a01b03166001600160a01b03166395d89b416040518163ffffffff1660e01b8152600401600060405180830381865afa9250505080156124f857506040513d6000823e601f3d908101601f191682016040526124f59190810190612b58565b60015b6116a957612504612bda565b806308c379a00361169d5750612518612bf5565b80612523575061169f565b60405162461bcd60e51b815260206004820152601a60248201527f4572726f722067657474696e6720746f6b656e2073796d626f6c0000000000006044820152606401610bfd565b6125736125e4565b6001600160a01b0381166125d85760405162461bcd60e51b815260206004820152602660248201527f4f776e61626c653a206e6577206f776e657220697320746865207a65726f206160448201526564647265737360d01b6064820152608401610bfd565b6125e18161263e565b50565b6000546001600160a01b031633146114635760405162461bcd60e51b815260206004820181905260248201527f4f776e61626c653a2063616c6c6572206973206e6f7420746865206f776e65726044820152606401610bfd565b600080546001600160a01b038381166001600160a01b0319831681178455604051919092169283917f8be0079c531659141344cd1fd0a4f28419497f9722a3daafe3b4186f6b6457e09190a35050565b6000805b6004548110156126ee57826001600160a01b0316600482815481106126b9576126b9612c7f565b6000918252602090912001546001600160a01b0316036126dc5750600192915050565b806126e681612cb8565b915050612692565b50600092915050565b60006020828403121561270957600080fd5b81356001600160a01b038116811461272057600080fd5b9392505050565b60005b8381101561274257818101518382015260200161272a565b50506000910152565b602081526000825180602084015261276a816040850160208701612727565b601f01601f19169190910160400192915050565b634e487b7160e01b600052604160045260246000fd5b601f8201601f1916810167ffffffffffffffff811182821017156127ba576127ba61277e565b6040525050565b600067ffffffffffffffff8211156127db576127db61277e565b50601f01601f191660200190565b6000602082840312156127fb57600080fd5b813567ffffffffffffffff81111561281257600080fd5b8201601f8101841361282357600080fd5b803561282e816127c1565b60405161283b8282612794565b82815286602084860101111561285057600080fd5b8260208501602083013760009281016020019290925250949350505050565b6000806040838503121561288257600080fd5b50508035926020909101359150565b6000602082840312156128a357600080fd5b5035919050565b6020808252825182820181905260009190848201906040850190845b818110156128e2578351835292840192918401916001016128c6565b50909695505050505050565b600181811c9082168061290257607f821691505b60208210810361292257634e487b7160e01b600052602260045260246000fd5b50919050565b6020808252600e908201526d139bdd08185d5d1a1bdc9a5e995960921b604082015260600190565b601f82111561245457600081815260208120601f850160051c810160208610156129775750805b601f850160051c820191505b8181101561299657828155600101612983565b505050505050565b815167ffffffffffffffff8111156129b8576129b861277e565b6129cc816129c684546128ee565b84612950565b602080601f831160018114612a0157600084156129e95750858301515b600019600386901b1c1916600185901b178555612996565b600085815260208120601f198616915b82811015612a3057888601518255948401946001909101908401612a11565b5085821015612a4e5787850151600019600388901b60f8161c191681555b5050505050600190811b01905550565b600060208284031215612a7057600080fd5b8151801515811461272057600080fd5b602080825260159082015274151bdad95b881859191c995cdcc81b9bdd081cd95d605a1b604082015260600190565b600060208284031215612ac157600080fd5b5051919050565b634e487b7160e01b600052601160045260246000fd5b808202811582820484141761152d5761152d612ac8565b600082612b1257634e487b7160e01b600052601260045260246000fd5b500490565b8082018082111561152d5761152d612ac8565b600080600060608486031215612b3f57600080fd5b8351925060208401519150604084015190509250925092565b600060208284031215612b6a57600080fd5b815167ffffffffffffffff811115612b8157600080fd5b8201601f81018413612b9257600080fd5b8051612b9d816127c1565b604051612baa8282612794565b828152866020848601011115612bbf57600080fd5b612bd0836020830160208701612727565b9695505050505050565b600060033d11156116ae5760046000803e5060005160e01c90565b600060443d1015612c035790565b6040516003193d81016004833e81513d67ffffffffffffffff8160248401118184111715612c3357505050505090565b8285019150815181811115612c4b5750505050505090565b843d8701016020828501011115612c655750505050505090565b612c7460208286010187612794565b509095945050505050565b634e487b7160e01b600052603260045260246000fd5b600060208284031215612ca757600080fd5b815160ff8116811461272057600080fd5b600060018201612cca57612cca612ac8565b506001019056fea2646970667358221220acb8a845f7a4776dbde1a8f82c99913b90a3ddb74ed0e7c2ee71a27a4252ea0964736f6c63430008120033",
  "linkReferences": {},
  "deployedLinkReferences": {}
}